:40000000008000200D1E0000F5CF0000F5CF0000F5CF0000F5CF0000F5CF0000F5CF0000F5CF0000F5CF0000F5CF0000F5CF0000F5CF0000F5CF0000F5CF0000F5CF00003D
:40004000F5CF0000F5CF0000F5CF0000F5CF0000F5CF0000F5CF0000F5CF0000F5CF0000F5CF0000F5CF0000F5CF0000F5CF0000F5CF0000F5CF0000F5CF0000F5CF000040
:40008000F5CF0000F5CF0000F5CF0000F5CF0000F5CF0000F5CF0000F5CF0000F5CF0000F5CF0000F5CF0000F5CF0000F5CF0000F5CF0000F5CF0000F5CF0000F5CF000000
:4000C00080B51448144B21E05C689968DD688C420CD0002205E0A6180832D6E9008941E902898C460831AA42F5D101E004EB050C1C696146002204E008320026002741E9DE
:4001000002670831A242F7D1143301380028DBD10CF016FF01000000F0D9000048F2A863C1F6FF731A780AB901201870704700BF48F20010C1F6FF7008B503682BB140F2BA
:400140000003C0F2000303B1984708BD80B582B000AFC7E90001D7E9000104F0D5FB0346184604F0D1F802460B461046194607F10807BD4680BD00BF80B582B000AFC7E9A5
:400180000001D7E90001FFF7E1FF02460B46104619464FF000024FF07E5303F5E00303F067FF02460B461046194607F10807BD4680BD00BF000000002DE9F04FA3B008AF21
:4001C00078607B68002B00F0AC8407F1380378684DF28801C0F200011A4604F087FD0346012B40F09F8407F13803184604F09AFE0346FB6307F1380318464DF29401C0F2F0
:40020000000104F0A1FD0346002B2CD14FF000037B63FA6B7B681A4407F1340310464DF29801C0F200011A4604F060FD0346002B03DD7B6B184601F049F901F061F90346D4
:4002400048F6A000C1F6FF704DF29C01C0F200011A4604F0D3FC48F6A000C1F6FF7002F063FC00F05FBC07F1380318464DF2AC01C0F2000104F068FD0346002B2DD101F07C
:400280003FF9064601F00CF982468B4601F0DEF88046894601F0E8F804460D4601F0F2F802460B46CDE900ABCDE90289CDE90445CDE9062348F6A000C1F6FF704DF2B00179
:4002C000C0F20001324604F099FC48F6A000C1F6FF7002F029FC00F025BC07F1380318464DF2E801C0F2000104F02EFD0346002B1DD100F091FF0346002B02D100F010FFAB
:4003000001E000F02FFF00F087FF0346002B07D04DF2EC00C0F2000002F006FC00F002BC4DF2FC00C0F2000002F0FEFBFAE307F1380318464DF21011C0F2000104F004FD30
:400340000346002B1CD100F073FF0346002B02D100F016FF01E000F01FFF00F069FF0346002B06D04DF21410C0F2000002F0DCFBD8E34DF22C10C0F2000002F0D5FBD1E3A1
:4003800007F1380318464DF24411C0F2000104F0DBFC0346002B1CD100F056FF0346002B02D100F00DFF01E000F02AFF00F04CFF0346002B06D04DF24810C0F2000002F0F7
:4003C000B3FBAFE34DF26810C0F2000002F0ACFBA8E307F1380318464DF28C11C0F2000104F0B2FC0346002B31D14FF000033B63FA6B7B681A4407F1300310464DF2980119
:40040000C0F200011A4604F071FC0346002B09DD3B6B184603F078FF02460B461046194600F0C2FF01F012F802460B4648F6A000C1F6FF704DF29011C0F2000104F0DEFB89
:4004400048F6A000C1F6FF7002F06EFB6AE307F1380318464DF29C11C0F2000104F074FC0346002B30D14FF000024FF00003C7E90A23FA6B7B681A4407F1280310464DF209
:40048000A011C0F200011A4604F030FC0346002B05DDD7E90A231046194600F097FF00F0E3FF02460B4648F6A000C1F6FF704DF2A411C0F2000104F0A1FB48F6A000C1F69F
:4004C000FF7002F031FB2DE307F1380318464DF2B011C0F2000104F037FC0346002B31D14FF000037B62FA6B7B681A4407F1240310464DF29801C0F200011A4604F0F6FB74
:400500000346002B09DD7B6A184603F0FDFE02460B461046194600F06BFF00F0B3FF02460B4648F6A000C1F6FF704DF2B411C0F2000104F063FB48F6A000C1F6FF7002F04A
:40054000F3FAEFE207F1380318464DF2C011C0F2000104F0F9FB0346002B2BD14FF000033B62FA6B7B681A4407F1200310464DF29801C0F200011A4604F0B8FB0346002B15
:4005800003DD3B6A184600F0FFFE00F093FF034648F6A000C1F6FF704DF2C411C0F200011A4604F02BFB48F6A000C1F6FF7002F0BBFAB7E207F1380318464DF2D811C0F2AC
:4005C000000104F0C1FB0346002B30D14FF000024FF00003C7E90623FA6B7B681A4407F1180310464DF2A011C0F200011A4604F07DFB0346002B05DDD7E906231046194607
:4006000000F052FE00F006FF02460B4648F6A000C1F6FF704DF2DC11C0F2000104F0EEFA48F6A000C1F6FF7002F07EFA7AE207F1380318464DF2F411C0F2000104F084FB68
:400640000346002B30D14FF000024FF00003C7E90423FA6B7B681A4407F1100310464DF2A011C0F200011A4604F040FB0346002B05DDD7E904231046194600F04DFE00F055
:40068000D7FE02460B4648F6A000C1F6FF704DF2F811C0F2000104F0B1FA48F6A000C1F6FF7002F041FA3DE207F1380318464DF21421C0F2000104F047FB0346002B1CD18F
:4006C00000F0E6FD0346002B02D100F0C9FD01E000F0D2FD00F0DCFD0346002B06D04DF21820C0F2000002F01FFA1BE24DF23020C0F2000002F018FA14E207F1380318467A
:400700004DF24821C0F2000104F01EFB0346002B02D100F001FF05E207F1380318464DF24C21C0F2000104F00FFB0346002B3CD148F2D063C1F6FF731A6848F2D463C1F684
:40074000FF73D3F800C048F2D863C1F6FF731C6848F2DC63C1F6FF73D3F800E048F2E063C1F6FF73186848F2E463C1F6FF73196848F2E863C1F6FF731B680094CDF804E04E
:4007800002900391049348F6A000C1F6FF704DF25021C0F20001634604F030FA48F6A000C1F6FF7002F0C0F9BCE107F1380318464DF2EC21C0F2000104F0C6FA0346002B4A
:4007C00028D148F2EC63C1F6FF731A6848F2F063C1F6FF73D3F800C048F2F463C1F6FF73196848F2F863C1F6FF731B680091019348F6A000C1F6FF704DF2F021C0F20001E3
:40080000634604F0FBF948F6A000C1F6FF7002F08BF987E107F1380318464DF20C31C0F2000104F091FA0346002B37D148F2D863C1F6FF734FF000021A6048F2DC63C1F601
:40084000FF734FF000021A6048F2D063C1F6FF734FF000021A6048F2D463C1F6FF734FF000021A6048F2E063C1F6FF734FF000021A6048F2E463C1F6FF734FF000021A60DF
:4008800048F2E863C1F6FF734FF000021A604DF21030C0F2000002F047F943E107F1380318464DF22831C0F2000104F04DFA0346002B40F037814FF000024FF00003C7E9A2
:4008C0000223FA6B7B681A4407F1080310464DF2A011C0F200011A4604F008FA0346002B40F3C680D7E902234FF000010C46104619464FF000024FF07E5303F5E00303F0A3
:40090000F9FF0346002B02D04FF001031C46E3B2002B07D04FF000024FF07E5303F5E003C7E90223D7E902234FF000010C46104619464FF000024FF0000303F0BDFF034695
:40094000002B02D04FF001031C46E3B2002B05D04FF000024FF00003C7E902234DF27003C0F20003D3E900014DF26803C0F20003D3E9002303F07AFB02460B4610461946D0
:40098000D7E9022303F026FD02460B46104619464DF26803C0F20003D3E9002303F068FB02460B46C7E914234DF26003C0F20003D3E90023D7E9140103F00CFD02460B463A
:4009C000C7E916234DF27003C0F20003D3E900014DF26803C0F20003D3E9002303F048FB02460B46104619464FF000024FF07E5303F5C00303F0EEFC02460B4610461946F1
:400A00004DF26003C0F20003D3E9002303F0E2FC02460B46C7E918234FF000031C46D7E91601D7E9182303F065FF0346002B02D04FF001031C46E3B2002B08D0D7E9160104
:400A4000FFF784FB02460B46C7E9162307E0D7E91601FFF791FB02460B46C7E91623D7E9160103F079FF03469BB2184602F058FC46F22643C4F200031B889BB2184603F0A6
:400A800043FC4DF26003C0F20003D3E9002303F0CBFD02460B46C7E910234DF26803C0F20003D3E90023D7E9100103F0DFFA02460B4614461D464DF27003C0F20003D3E936
:400AC00000014DF26803C0F20003D3E9002303F0CDFA02460B462046294603F0A5FD02460B46C7E91223D7E9100111A3D3E9002303F070FC02460B46CDE9002348F6A00069
:400B0000C1F6FF704DF22C31C0F20001D7E9122304F074F848F6A000C1F6FF7002F004F800E000BF07F16C07BD46BDE8F08F00BF0000000000408F4080B500AF48F2AC63CD
:400B4000C1F6FF731B68002B05D04DF24C30C0F2000001F0E9FF48F2AC63C1F6FF734FF001021A6080BD00BF80B500AF48F2B063C1F6FF731B68002B05D04DF26C30C0F2EF
:400B8000000001F0D1FF48F2B063C1F6FF734FF001021A6080BD00BF80B500AF48F2B463C1F6FF731B68002B05D04DF28C30C0F2000001F0B9FF48F2B463C1F6FF734FF056
:400BC00001021A6080BD00BF80B500AF48F2B863C1F6FF731B68002B05D04DF2AC30C0F2000001F0A1FF48F2B863C1F6FF734FF001021A6080BD00BF80B500AF48F2BC63C6
:400C0000C1F6FF731B68002B05D04DF2CC30C0F2000001F089FF48F2BC63C1F6FF734FF001021A6080BD00BF80B400AF48F2EC63C1F6FF731B6803F1010248F2EC63C1F619
:400C4000FF731A6048F2C063C1F6FF734FF001021A60BD4680BC704780B400AF48F2F063C1F6FF731B6803F1010248F2F063C1F6FF731A6048F2C463C1F6FF734FF0010241
:400C80001A60BD4680BC704780B400AF48F2F463C1F6FF731B6803F1010248F2F463C1F6FF731A6048F2C863C1F6FF734FF001021A60BD4680BC704780B400AF48F2F863C1
:400CC000C1F6FF731B6803F1010248F2F863C1F6FF731A6048F2CC63C1F6FF734FF001021A60BD4680BC704780B582B000AF62B601F042F901F086FD02F050FA4DF2680321
:400D0000C0F20003D3E900014DF27003C0F20003D3E9002303F0ACF902460B46104619464FF000024FF0804303F07EFC02460B46104619464DF26003C0F20003D3E90023E1
:400D400003F048FB02460B461046194603F004FE03469BB2184602F0E3FA01F057FB40F63930C0F2000001F069FB01F01DFE01F0E9FB40F66930C0F2000001F0FBFB02F013
:400D8000A7F801F037FC40F69930C0F2000001F049FC02F089F901F085FC40F6C930C0F2000001F097FC01F07BFF01F0D3FC40F6F930C0F2000001F0E5FC02F0FFFC40F60D
:400DC0002940C0F2000002F011FD02F02BFE40F65940C0F2000002F03DFE02F097FC40F68940C0F2000002F0A9FC02F0A9FA40F6B940C0F2000002F0BBFA02F01BFC02F02A
:400E00007BFD02F093FB4FF000004FF0000101F0C9F848F20410C1F6FF7001F0FDF800F0CDF800F071F900E000BF48F2AC63C1F6FF731B68002B12D000F0EEF90346002B34
:400E400002D000F069FB03E000F09AF900F068F948F2AC63C1F6FF734FF000021A6048F2B063C1F6FF731B68002B0DD000F0ACF803467B607868FFF79FF948F2B063C1F63D
:400E8000FF734FF000021A6048F2B463C1F6FF731B68002B08D000F047FB48F2B463C1F6FF734FF000021A6048F2B863C1F6FF731B68002B08D000F0DBFB48F2B863C1F6C8
:400EC000FF734FF000021A6048F2BC63C1F6FF731B68002B08D000F0D9FB48F2BC63C1F6FF734FF000021A6048F2C063C1F6FF731B68002B12D048F2D863C1F6FF731B6885
:400F000003F1010248F2D863C1F6FF731A6048F2C063C1F6FF734FF000021A6048F2C463C1F6FF731B68002B12D048F2DC63C1F6FF731B6803F1010248F2DC63C1F6FF7389
:400F40001A6048F2C463C1F6FF734FF000021A6048F2C863C1F6FF731B68002B12D048F2D463C1F6FF731B6803F1010248F2D463C1F6FF731A6048F2C863C1F6FF734FF09F
:400F800000021A6048F2CC63C1F6FF731B68002B3FF44AAF48F2D063C1F6FF731B6803F1010248F2D063C1F6FF731A6048F2CC63C1F6FF734FF000021A6036E780B500AFDB
:400FC00000F07AF880BD00BF80B582B000AF48F26473C1F6FF731B68002B08D000F06CF848F26473C1F6FF734FF000021A6001F05BFD0346FB71FB790A2B05D0FB790D2B4C
:4010000002D0FB79042B13D14FF0240001F072FDFB79184601F06EFD48F26473C1F6FF734FF001021A6048F2FC63C1F6FF733DE0FB79002B34D048F26073C1F6FF731B6835
:40104000642B11D14DF2F030C0F2000001F06CFD48F26473C1F6FF734FF001021A6048F2FC63C1F6FF7321E048F26073C1F6FF731A6848F2FC63C1F6FF73F979995448F2C8
:401080006073C1F6FF731B6803F1010248F26073C1F6FF731A60FB79184601F02BFD03E04FF0210001F026FD4FF00003184607F10807BD4680BD00BF80B483B000AF4FF0CD
:4010C00000037B600BE07A6848F2FC63C1F6FF734FF0000199547B6803F101037B6048F26073C1F6FF731B687A689A42EBDB48F26073C1F6FF734FF000021A6007F10C0767
:40110000BD4680BC704700BF80B500AF00F014FE00F03CFE4FF0000000F02EFD80BD00BF80B500AF00F032FE00F060FE48F65003C1F6FF734FF001021A6048F2E873C1F680
:40114000FF734FF000004FF00001C3E9000148F2E073C1F6FF734FF000004FF00001C3E9000180BD80B500AF48F65003C1F6FF734FF000021A604FF0000000F0FDFC80BDF4
:4011800080B400AF48F65403C1F6FF734FF001021A60BD4680BC704780B400AF48F65403C1F6FF734FF000021A6048F65803C1F6FF734FF000021A60BD4680BC704700BF4E
:4011C00080B500AF48F65003C1F6FF731B68002B06D04DF22440C0F2000001F0A5FC0DE048F65803C1F6FF734FF001021A6048F65403C1F6FF734FF001021A6080BD00BF05
:4012000080B400AF48F65803C1F6FF734FF000021A60BD4680BC704780B400AF48F65003C1F6FF731B681846BD4680BC704700BF80B400AF48F65403C1F6FF731B681846A3
:40124000BD4680BC704700BF80B400AF48F65803C1F6FF731B681846BD4680BC704700BF80B400AF48F65C03C1F6FF734FF001021A60BD4680BC704780B400AF48F65C03A3
:40128000C1F6FF734FF000021A60BD4680BC704780B400AF48F65C03C1F6FF731B681846BD4680BC704700BF80B582B000AFC7E9000148F65803C1F6FF731B68002B06D008
:4012C0004DF26840C0F2000001F02EFC1FE048F21013C1F6FF73D7E90001C3E9000148F21813C1F6FF73D3E9000148F21013C1F6FF73D3E9002303F097F902460B46104625
:40130000194648F22013C1F6FF73C3E9000107F10807BD4680BD00BF80B582B000AFC7E9000148F65803C1F6FF731B68002B06D04DF2B040C0F2000001F0F6FB1FE048F2FC
:401340001813C1F6FF73D7E90001C3E9000148F21813C1F6FF73D3E9000148F21013C1F6FF73D3E9002303F05FF902460B461046194648F22013C1F6FF73C3E9000107F127
:401380000807BD4680BD00BF80B483B000AF786048F22813C1F6FF737A681A6007F10C07BD4680BC704700BF80B483B000AFC7E9000148F23013C1F6FF73D7E90001C3E99D
:4013C000000107F10C07BD4680BC704780B483B000AFC7E9000148F23813C1F6FF73D7E90001C3E9000107F10C07BD4680BC704780B483B000AFC7E9000148F24013C1F6FC
:40140000FF73D7E90001C3E9000107F10C07BD4680BC704780B400AF48F21013C1F6FF73D3E9002310461946BD4680BC704700BF80B400AF48F21813C1F6FF73D3E90023C9
:4014400010461946BD4680BC704700BF80B400AF48F23013C1F6FF73D3E9002310461946BD4680BC704700BF80B400AF48F23813C1F6FF73D3E9002310461946BD4680BCCC
:40148000704700BF80B400AF48F24013C1F6FF73D3E9002310461946BD4680BC704700BF80B500AF00F0B0FB02460B461046194680BD00BF80B400AF48F22813C1F6FF738A
:4014C0001B681846BD4680BC704700BF80B582B000AF786048F65003C1F6FF731B68002B03D1786800F048FB05E04DF2FC40C0F2000001F019FB07F10807BD4680BD00BFFC
:4015000080B400AF48F2CC73C1F6FF731B681846BD4680BC704700BF80B500AF00F018FB80BD00BF0000000080B582B000AF01F007FD03463B6048F2D873C1F6FF731A688E
:401540003B68C3EB02037B607B68002B07DA4DF20C43C0F200031A687B68134400E07B687B6048F2D073C1F6FF731A6848F60413C1F6FF73796843F8221048F2D073C1F686
:40158000FF731B6803F1010145F25653C5F2555383FB01024FEAE173C3EB020213464FEA43031344C3EB010248F2D073C1F6FF731A6048F2D473C1F6FF731B68022B0BDC00
:4015C00048F2D473C1F6FF731B6803F1010248F2D473C1F6FF731A6048F2D873C1F6FF733A681A604DF21843C0F20003D3E90023104619461AA3D3E9002302F0EBFE024637
:401600000B461046194618A3D3E9002302F0E2FE02460B46104619464FF000024FF0804303F5201303F000F802460B461046194648F2E073C1F6FF73D3E9002302F018FDA7
:4016400002460B461046194648F2E073C1F6FF73C3E9000107F10807BD4680BDAFF30080182D4454FB2109409A9999999999C93F80B500AF00F060FB00F088FB4DF220501E
:40168000C0F2000001F050FA80BD00BFB0B500AF48F65003C1F6FF731B68002B39D04DF22043C0F200031B68184602F02DFE04460D464DF21043C0F200031B68184602F0B0
:4016C00023FE02460B462046294602F0ADFF02460B461046194648F2E873C1F6FF73D3E9002302F0C5FC02460B461046194648F2E873C1F6FF73C3E9000100F085FA0246AF
:401700000B461046194600F005F80346184600F033FAB0BDB0B5A0B010AFC7E9000148F65403C1F6FF731B68002B34D048F2E073C1F6FF73D3E9000148F21813C1F6FF73EF
:40174000D3E900234FF0000C644603F0C9F80346002B02D04FF001031C46E3B2002B1AD000F0F6F948F2E873C1F6FF73D3E9002348F26870C1F6FF704DF23051C0F2000125
:4017800003F03CFA48F26870C1F6FF7001F0CCF94FF00003D7E148F21013C1F6FF73D3E90023C7E902234FF000024FF00003C7E904234FF000024FF00003C7E9062348F2EE
:4017C0001013C1F6FF73D3E900231046194602F04FFC02460B46C7E9082348F65803C1F6FF731B68002B7AD048F21813C1F6FF73D3E9000148F2E073C1F6FF73D3E90023BE
:4018000002F034FC02460B46C7E9042348F22013C1F6FF73D3E9000148F2E873C1F6FF73D3E9002302F022FC02460B46C7E906234FF000031C46D7E904014FF000024FF0BB
:40184000000303F057F80346002B02D04FF001031C46E3B2002B42D04FF000031C46D7E906014FF000024FF0000303F02FF80346002B02D04FF001031C46E3B2002B04D0DF
:40188000D7E90823C7E9022329E0D7E90401D7E9062302F0C9FE02460B46C7E902234FF000031C46D7E90201D7E9082303F022F80346002B02D04FF001031C46E3B2002B80
:4018C0000DD048F21013C1F6FF73D3E900231046194602F0CDFB02460B46C7E90223D7E90201D7E9002302F0C1FB02460B46C7E90A2348F64003C1F6FF731A6848F2F07336
:40190000C1F6FF734FEAC20202EB0301D7E90A23C1E9002348F64003C1F6FF731A6848F2F073C1F6FF734FEAC2021344D3E9000148F64403C1F6FF731A6848F2F073C1F64F
:40194000FF734FEAC2021344D3E9002302F08EFB02460B46104619464FF000024FF0804303F5101302F060FE02460B46C7E90C2348F64003C1F6FF731B6803F1010146F278
:401980006763C6F2666383FB01234FEAA3024FEAE173C3EB020213464FEA830313444FEA4303C3EB010248F64003C1F6FF731A6048F64003C1F6FF731A6848F64403C1F6F2
:4019C000FF731B689A421FD148F64403C1F6FF731B6803F1010146F26763C6F2666383FB01234FEAA3024FEAE173C3EB020213464FEA830313444FEA4303C3EB010248F6E0
:401A00004403C1F6FF731A6048F64803C1F6FF73D3E9002310461946D7E90A2302F028FB02460B461046194648F64803C1F6FF73C3E9000148F23013C1F6FF73D3E9002342
:401A400010461946D7E90A2302F0C4FC02460B4614461D4648F64803C1F6FF73D3E9000148F23813C1F6FF73D3E9002302F0B2FC02460B462046294602F0FAFA02460B4633
:401A800014461D4648F24013C1F6FF73D3E9002310461946D7E90C2302F09CFC02460B462046294602F0E2FA02460B461046194602F02AFF024648F22813C1F6FF731B6898
:401AC0001344FB6348F65C03C1F6FF731B68002B38D048F64803C1F6FF73D3E9000148F2E073C1F6FF73D3E90023D7E90045CDE90045D7E90A45CDE90245CDE90401D7E92A
:401B00000C01CDE90601CDE90823D7E90223CDE90A23D7E90423CDE90C23D7E90623CDE90E2348F26870C1F6FF704DF25451C0F20001FA6B03F062F848F26870C1F6FF70DD
:401B400000F0F2FFFB6B184607F14007BD46B0BD80B500AF4FF0000000F00EF848F65003C1F6FF734FF000021A604DF29450C0F2000000F0D9FF80BD80B584B000AF7860B9
:401B80007B68002B02DA4FF000037B604DF20843C0F200031B687A689A4205DD4DF20843C0F200031B687B6048F2CC73C1F6FF737A681A6048F2CC73C1F6FF731B689BB2AF
:401BC000184600F0E1FE4FF001004FF0000100F0E9F948F2CC73C1F6FF731B6807F10C0210464DF2B051C0F200011A4603F006F807F10C03184600F00FFA07F11007BD4631
:401C000080BD00BF0000000080B58AB000AF4FF000024FF00003C7E9002348F2D473C1F6FF731B68002B04D14FF000024FF0000374E04FF00003FB6017E0FA6848F60413E5
:401C4000C1F6FF7353F82230184602F05DFB02460B46D7E9000102F00BFA02460B46C7E90023FB6803F10103FB60FB68022BE4DD48F2D473C1F6FF731B68184602F044FB76
:401C800002460B46D7E9000102F0CEFC02460B46C7E904234DF21043C0F200031B68184602F032FB02460B4610461946D7E9042302F0BAFC02460B46C7E906234DF218436E
:401CC000C0F20003D3E900231046194616A3D3E9002302F07FFB02460B46104619464FF000024FF0804303F5A01302F09DFC02460B4610461946D7E9062302F06BFB0246F9
:401D00000B46104619460AA3D3E9002302F062FB02460B46C7E90823D7E908231046194607F12807BD4680BD182D4454FB210940555555555555B53F80B483B000AF48F2C3
:401D4000D073C1F6FF734FF000021A6048F2D473C1F6FF734FF000021A604FF000037B600CE07A6848F60413C1F6FF734FF0000143F822107B6803F101037B607B68022BFB
:401D8000EFDD07F10C07BD4680BC704780B483B000AF48F64003C1F6FF734FF000021A6048F64403C1F6FF734FF000021A604FF000037B6012E07A6848F2F073C1F6FF73BB
:401DC0004FEAC20202EB03014FF000024FF00003C1E900237B6803F101037B607B68092BE9DD07F10C07BD4680BC704780B400AF48F64803C1F6FF734FF000004FF00001FD
:401E0000C3E90001BD4680BC704700BF054B1C7844F001041C70044B1A78D2B2034B1A70FEF74EF9E8460040FA460040BC76004080B582B000AF4EF60C53CEF2000340F210
:401E40000042C0F2FA521A604EF61453CEF200034EF61452CEF20002126842F400721A604FF000037B6014E07A687B684FEA830140F20003C0F200030B441B68194648F24A
:401E80000003C1F6FF7343F822107B6803F101037B607B682F2BE7D947F2BC63C4F200031B78DAB248F61013C1F6FF731A704EF60853CEF2000348F20002C1F6FF721A6052
:401EC00001F03AFF07F10807BD4680BD80B500AF4FF0280000F0FEFA4FF0030000F050FA4FF0050000F0F6FA4FF0030000F048FA4FF00F0000F0EEFA4FF0030000F040FA98
:401F00004FF0010000F0E6FA4FF0020000F038FA4FF0050000F0DEFA4FF0060000F0B8F84FF00E0000F0B4F84FF02C0000F0B0F84FF0080000F0ACF84FF0010000F0A8F8A6
:401F40004FF00C0000F0A4F84FF0030000F0A0F84FF0050000F0BEFA80BD00BF80B500AF4FF00C0000F094F848F66003C1F6FF734FF001021A7080BD80B500AF48F66103D4
:401F8000C1F6FF731B78002B08D1FFF79FFF48F66103C1F6FF734FF001021A70FFF7DEFF80BD00BF80B582B000AF02460B46FA71BB71FB79032B2AD801A252F823F000BFBE
:401FC000D11F0000E11F0000F11F000001200000BB79A3F18003DBB2184600F059F816E0BB79A3F14003DBB2184600F051F80EE0BB79A3F16C03DBB2184600F049F806E0FD
:40200000BB79A3F12C03DBB2184600F041F807F10807BD4680BD00BF80B584B000AF78604FF00103BB737B681B78FB730CE0FB7B184600F011F8BA7B7B6813441B78FB7321
:40204000BB7B03F10103BB73FB7B002BEFD107F11007BD4680BD00BF80B584B000AF0346FB7100F035F8FB794FEA1313FB73FB7B184600F02FF9FB7903F00F03FB73FB7B21
:40208000184600F027F907F11007BD4680BD00BF80B584B000AF0346FB71FB794FEA1313FB7300F015F8FB7B03F00F03FB73FB7B184600F065F9FB7903F00F03FB73FB7B31
:4020C000184600F05DF907F11007BD4680BD00BF80B582B000AF4FF00003FB7145F22013C4F2000345F22012C4F200021278D2B202F080021A7045F22213C4F200031B7862
:40210000DBB223F00F03FB7145F22213C4F20003FA7942F00F02D2B21A7045F22313C4F200031B78DBB223F00F03FB7145F22313C4F20003FA791A7045F22413C4F2000377
:402140001B78DBB223F00F03FB7145F22413C4F20003FA791A7045F22013C4F2000345F22012C4F200021278D2B202F0DF021A7045F22013C4F2000345F22012C4F2000297
:402180001278D2B242F04002D2B21A704FF0000000F0C4F945F22013C4F2000345F22012C4F200021278D2B242F01002D2B21A704FF0010000F0B2F945F22113C4F2000300
:4021C0001B78FB7145F22013C4F2000345F22012C4F200021278D2B202F0EF021A704FF0000000F09BF9FB7903F00803FB7145F22013C4F2000345F22012C4F200021278B2
:40220000D2B242F01002D2B21A704FF0010000F085F945F22013C4F2000345F22012C4F200021278D2B202F0EF021A70FB79002BACD145F22013C4F2000345F22012C4F2FD
:4022400000021278D2B202F0BF021A7045F22013C4F2000345F22012C4F200021278D2B202F080021A7045F22213C4F200031B78DBB223F00F03FB7145F22213C4F20003C6
:40228000FA791A7045F22313C4F200031B78DBB223F00F03FB7145F22313C4F20003FA7942F00F02D2B21A7045F22413C4F200031B78DBB223F00F03FB7145F22413C4F264
:4022C0000003FA7942F00F02D2B21A7007F10807BD4680BD80B582B000AF0346FB71FFF7F7FE45F22013C4F2000345F22012C4F200021278D2B242F02002D2B21A7045F22F
:402300002013C4F2000345F22012C4F200021278D2B202F0BF021A7045F22013C4F2000345F22012C4F200021278D2B202F0F0021A7045F22013C4F2000345F22012C4F243
:4023400000021278D1B2FA7941EA0202D2B242F01002D2B21A704FF0010000F0DFF845F22013C4F2000345F22012C4F200021278D2B202F0EF021A7007F10807BD4680BDC9
:4023800080B582B000AF0346FB7145F22013C4F2000345F22012C4F200021278D2B202F09F021A7045F22013C4F2000345F22012C4F200021278D2B202F0F0021A7045F2EC
:4023C0002013C4F2000345F22012C4F200021278D1B2FA7941EA0202D2B242F01002D2B21A704FF0010000F099F845F22013C4F2000345F22012C4F200021278D2B202F046
:40240000EF021A7007F10807BD4680BD80B500AF00F048F842F23140C0F2000000F00EF84FF0070000F01EF800F030F880BD00BF80B400AFBD4680BC704700BF80B485B018
:4024400000AF78604EF60853CEF200031B68FB60FB6803F150037A681A6007F11407BD4680BC704780B483B000AF0346FB714EF20443CEF20003FA794FEA4212D2B21A7063
:4024800007F10C07BD4680BC704700BF80B400AF4EF20013CEF200034FF010021A60BD4680BC704780B400AF4EF28013CEF200034FF010021A60BD4680BC704780B483B001
:4024C00000AF0346FB7101BE07F10C07BD4680BC704700BF80B582B000AF78600BE048F25413C1F6FF731B68184601F085FD7B68A3F500437B607B68B3F5004FEFD848F28E
:402500004C13C1F6FF731B687A6802FB03F3184601F072FD07F10807BD4680BD80B582B000AF0346FB80FA8848F25013C1F6FF731B7803FB02F3184601F05EFD07F108075D
:40254000BD4680BD80B500AF00F048F842F26950C0F2000000F00EF84FF0070000F01EF800F030F880BD00BF80B400AFBD4680BC704700BF80B485B000AF78604EF60853EB
:40258000CEF200031B68FB60FB6803F154037A681A6007F11407BD4680BC704780B483B000AF0346FB714EF20543CEF20003FA794FEA4212D2B21A7007F10C07BD4680BCF9
:4025C000704700BF80B400AF4EF20013CEF200034FF020021A60BD4680BC704780B400AF4EF28013CEF200034FF020021A60BD4680BC704780B500AF00F048F842F2196090
:40260000C0F2000000F00EF84FF0070000F01EF800F030F880BD00BF80B400AFBD4680BC704700BF80B485B000AF78604EF60853CEF200031B68FB60FB6803F15C037A6832
:402640001A6007F11407BD4680BC704780B483B000AF0346FB714EF20743CEF20003FA794FEA4212D2B21A7007F10C07BD4680BC704700BF80B400AF4EF20013CEF20003F8
:402680004FF080021A60BD4680BC704780B400AF4EF28013CEF200034FF080021A60BD4680BC704780B500AF00F048F842F2C960C0F2000000F00EF84FF0070000F01EF8DA
:4026C00000F030F880BD00BF80B400AFBD4680BC704700BF80B485B000AF78604EF60853CEF200031B68FB60FB6803F158037A681A6007F11407BD4680BC704780B483B080
:4027000000AF0346FB714EF20643CEF20003FA794FEA4212D2B21A7007F10C07BD4680BC704700BF80B400AF4EF20013CEF200034FF040021A60BD4680BC704780B400AF4E
:402740004EF28013CEF200034FF040021A60BD4680BC704780B500AF00F048F842F27970C0F2000000F00EF84FF0070000F01EF800F030F880BD00BF80B400AFBD4680BC77
:40278000704700BF80B485B000AF78604EF60853CEF200031B68FB60FB6803F184037A681A6007F11407BD4680BC704780B483B000AF0346FB714EF21143CEF20003FA799B
:4027C0004FEA4212D2B21A7007F10C07BD4680BC704700BF80B400AF4EF20013CEF200034FF400321A60BD4680BC704780B400AF4EF28013CEF200034FF400321A60BD4635
:4028000080BC704780B500AF48F66203C1F6FF731B78002B08D100F00BF848F66203C1F6FF734FF001021A7000F062F880BD00BF80B582B000AF46F27543C4F200031B783B
:40284000DBB223F03F03BB7146F27543C4F20003BA7942F00902D2B21A7046F29443C4F2000346F29442C4F200021278D2B242F00102D2B21A7046F29543C4F2000346F243
:402880009542C4F200021278D2B242F00102D2B21A7040F2E73000F041F840F2E73000F063F84FF0000000F06FF846F28543C4F200034FF000021A7001F0A6FB0346FB71D1
:4028C00046F29543C4F2000346F29542C4F200021278D2B242F01002D2B21A70FB79184601F096FB00F02AF807F10807BD4680BD80B400AF46F27543C4F2000346F27542C0
:40290000C4F200021278D2B26FEA42626FEA5262D2B21A70BD4680BC704700BF80B483B000AF0346FB8046F20443C4F20003FA881A8007F10C07BD4680BC704780B400AFF2
:4029400004E046F25443C4F200031B8846F26543C4F200031B78DBB203F01003002BF0D1BD4680BC704700BF80B483B000AF0346FB8046F24443C4F20003FA881A8007F182
:402980000C07BD4680BC704780B483B000AF0346FB8046F22443C4F20003FA881A8007F10C07BD4680BC704780B500AF48F66303C1F6FF731B78002B08D100F00BF848F646
:4029C0006303C1F6FF734FF001021A7000F024F880BD00BF80B400AF46F28553C4F200034FF020021A7046F22A53C4F200034FF007021A7046F23A53C4F200034FF0480296
:402A00001A7046F28B53C4F200034FF000021A70BD4680BC704700BF80B582B000AF01F0F3FA0346FB7146F29653C4F2000346F29652C4F200021278D2B242F02002D2B27C
:402A40001A7046F29553C4F2000346F29552C4F200021278D2B242F01002D2B21A7046F29B53C4F2000346F29B52C4F200021278D2B242F01002D2B21A7044F2A233C4F2DF
:402A8000000344F2A232C4F200021278D2B242F00402D2B21A70FB79184601F0B9FA07F10807BD4680BD00BF80B483B000AF4FF00003BB7146F26553C4F200031B78FB7155
:402AC000FB7903F02003002B0DD046F24553C4F200031B78BB71FB7903F01E03002B02D04FF00003BB71BB79184607F10C07BD4680BC704780B483B000AF0346FB7146F273
:402B00006B53C4F200031B78DBB203F00403002BF5D146F24B53C4F20003FA791A7007F10C07BD4680BC704780B582B000AF786048F66303C1F6FF731B78002B0DD008E048
:402B40007B681B787A6802F101027A601846FFF7D1FF7B681B78002BF2D107F10807BD4680BD00BF80B500AF44F60073C4F2000344F60072C4F200021278D2B202F00102EE
:402B80001A7044F60273C4F2000344F60272C4F200021278D2B202F0FC021A7044F60173C4F2000344F60172C4F200021278D2B242F00102D2B21A7044F60B73C4F20003A7
:402BC00044F60B72C4F200021278D2B202F0CF021A7044F60B73C4F2000344F60B72C4F200021278D2B242F03002D2B21A7044F60B73C4F2000344F60B72C4F20002127841
:402C0000D2B202F0F0021A7044F60B73C4F2000344F60B72C4F200021278D2B242F00F02D2B21A7044F6206000F0A4F844F6206000F05CF84FF0080000F048F880BD00BFAC
:402C400080B400AF44F2A333C4F2000344F2A332C4F200021278D2B242F00102D2B21A7044F2B333C4F2000344F2B332C4F200021278D2B242F00102D2B21A7044F60073F2
:402C8000C4F2000344F60072C4F200021278D2B242F00102D2B21A70BD4680BC704700BF80B500AF48F66503C1F6FF731B78002B08D1FFF757FF48F66503C1F6FF734FF04D
:402CC00001021A70FFF7BCFF80BD00BF80B483B000AF0346FB7144F60373C4F20003FA791A7007F10C07BD4680BC704780B582B000AF0346FB8044F2A333C4F200031B7836
:402D0000DBB203F00103002B0ED044F2A333C4F200031B78DBB203F00103002B14BF002301231846FFF7CAFB44F2A333C4F2000344F2A332C4F200021278D2B242F0010201
:402D4000D2B21A7044F60673C4F20003FA881A8044F2A333C4F2000344F2A332C4F200021278D2B202F0FE021A7007F10807BD4680BD00BF80B483B000AF0346FB8044F691
:402D80000473C4F20003FA881A8007F10C07BD4680BC704780B500AF44F62473C4F2000344F62472C4F200021278D2B202F001021A7044F62673C4F2000344F62672C4F22F
:402DC00000021278D2B202F0FC021A7044F62F73C4F2000344F62F72C4F200021278D2B202F0CF021A7044F62F73C4F2000344F62F72C4F200021278D2B242F03002D2B2A8
:402E00001A7044F62F73C4F2000344F62F72C4F200021278D2B202F0F0021A7044F62F73C4F2000344F62F72C4F200021278D2B242F00F02D2B21A7044F62573C4F2000352
:402E400044F62572C4F200021278D2B242F00102D2B21A704FF6FF7000F060F84FF6FF7000F07AF84FF0000000F048F880BD00BF80B400AF44F2A333C4F2000344F2A33248
:402E8000C4F200021278D2B242F00802D2B21A7044F2B333C4F2000344F2B332C4F200021278D2B242F00802D2B21A7044F62473C4F2000344F62472C4F200021278D2B2E2
:402EC00042F00102D2B21A70BD4680BC704700BF80B500AF48F66603C1F6FF731B78002B08D1FFF757FF48F66603C1F6FF734FF001021A70FFF7BCFF80BD00BF80B483B093
:402F000000AF0346FB7144F62773C4F20003FA791A7007F10C07BD4680BC704780B485B000AF0346FB80FB88FB8144F62873C4F20003FA891A8007F11407BD4680BC704713
:402F400080B400AF44F62C73C4F200031B889BB21846BD4680BC704780B483B000AF0346FB8007F10C07BD4680BC704780B500AF44F60C73C4F2000344F60C72C4F20002F7
:402F80001278D2B202F001021A7044F60E73C4F2000344F60E72C4F200021278D2B202F0FC021A7044F60D73C4F2000344F60D72C4F200021278D2B242F00102D2B21A70E1
:402FC00044F61773C4F2000344F61772C4F200021278D2B202F0CF021A7044F61773C4F2000344F61772C4F200021278D2B242F03002D2B21A7044F61773C4F2000344F64F
:403000001772C4F200021278D2B202F0F0021A7044F61773C4F2000344F61772C4F200021278D2B242F00F02D2B21A7042F2107000F0A4F842F2107000F05CF84FF00800FD
:4030400000F048F880BD00BF80B400AF44F2A333C4F2000344F2A332C4F200021278D2B242F00202D2B21A7044F2B333C4F2000344F2B332C4F200021278D2B242F002027B
:40308000D2B21A7044F60C73C4F2000344F60C72C4F200021278D2B242F00102D2B21A70BD4680BC704700BF80B500AF48F66703C1F6FF731B78002B08D1FFF757FF48F644
:4030C0006703C1F6FF734FF001021A70FFF7BCFF80BD00BF80B483B000AF0346FB7144F60F73C4F20003FA791A7007F10C07BD4680BC704780B582B000AF0346FB8044F276
:40310000A333C4F200031B78DBB203F00203002B0ED044F2A333C4F200031B78DBB203F00203002B14BF002301231846FFF7C6F944F2A333C4F2000344F2A332C4F2000222
:403140001278D2B242F00202D2B21A7044F61273C4F20003FA881A8044F2A333C4F2000344F2A332C4F200021278D2B202F0FD021A7007F10807BD4680BD00BF80B483B0EB
:4031800000AF0346FB8044F61073C4F20003FA881A8007F10C07BD4680BC704780B500AF48F66803C1F6FF731B78002B08D100F00BF848F66803C1F6FF734FF001021A702B
:4031C00000F062F880BD00BF80B582B000AF46F27443C4F200031B78DBB223F03F03BB7146F27443C4F20003BA7942F00902D2B21A7046F29643C4F2000346F29642C4F274
:4032000000021278D2B242F00102D2B21A7046F29743C4F2000346F29742C4F200021278D2B242F00102D2B21A7040F2CF7000F041F840F2CF7000F063F84FF0000000F0D1
:403240006FF846F28743C4F200034FF000021A7000F0DAFE0346FB7146F29743C4F2000346F29742C4F200021278D2B242F01002D2B21A70FB79184600F0CAFE00F02AF854
:4032800007F10807BD4680BD80B400AF46F27443C4F2000346F27442C4F200021278D2B26FEA42626FEA5262D2B21A70BD4680BC704700BF80B483B000AF0346FB8046F2A9
:4032C0000643C4F20003FA881A8007F10C07BD4680BC704780B400AF04E046F25643C4F200031B8846F26743C4F200031B78DBB203F01003002BF0D1BD4680BC704700BF59
:4033000080B483B000AF0346FB8046F24643C4F20003FA881A8007F10C07BD4680BC704780B483B000AF0346FB8046F22643C4F20003FA881A8007F10C07BD4680BC7047CB
:4033400080B500AF00F048F843F26530C0F2000000F00EF84FF0070000F01EF800F030F880BD00BF80B400AFBD4680BC704700BF80B485B000AF78604EF60853CEF200037D
:403380001B68FB60FB6803F148037A681A6007F11407BD4680BC704780B483B000AF0346FB714EF20243CEF20003FA794FEA4212D2B21A7007F10C07BD4680BC704700BF47
:4033C00080B400AF4EF20013CEF200034FF004021A60BD4680BC704780B400AF4EF28013CEF200034FF004021A60BD4680BC704780B500AF44F61873C4F2000344F61872CB
:40340000C4F200021278D2B202F001021A7044F61A73C4F2000344F61A72C4F200021278D2B202F0FC021A7044F62373C4F2000344F62372C4F200021278D2B202F0CF02E0
:403440001A7044F62373C4F2000344F62372C4F200021278D2B242F03002D2B21A7044F62373C4F2000344F62372C4F200021278D2B202F0F0021A7044F62373C4F200031D
:4034800044F62372C4F200021278D2B242F00F02D2B21A7044F61973C4F2000344F61972C4F200021278D2B242F00102D2B21A704FF6FF7000F060F84FF6FF7000F06EF8D3
:4034C0004FF0000000F048F880BD00BF80B400AF44F2A333C4F2000344F2A332C4F200021278D2B242F00402D2B21A7044F2B333C4F2000344F2B332C4F200021278D2B2EC
:4035000042F00402D2B21A7044F61873C4F2000344F61872C4F200021278D2B242F00102D2B21A70BD4680BC704700BF80B500AF48F66903C1F6FF731B78002B08D1FFF701
:4035400057FF48F66903C1F6FF734FF001021A70FFF7BCFF80BD00BF80B483B000AF0346FB7144F61B73C4F20003FA791A7007F10C07BD4680BC704780B485B000AF0346FE
:40358000FB80FB88FB8144F61C73C4F20003FA891A8007F11407BD4680BC704780B483B000AF0346FB8007F10C07BD4680BC704780B582B000AF4FF6FF7000F06DF84FF6AA
:4035C000FF7000F085F800F01FFD0346FB7146F29343C4F2000346F29342C4F200021278D2B242F01002D2B21A70FB79184600F00FFD00F07DF84FF0000000F031F807F1BF
:403600000807BD4680BD00BF80B400AF46F27343C4F2000346F27342C4F200021278D2B26FEA42626FEA5262D2B21A70BD4680BC704700BF80B500AF48F66A03C1F6FF73BA
:403640001B78002B08D1FFF7B3FF48F66A03C1F6FF734FF001021A70FFF7D6FF80BD00BF80B483B000AF0346FB7146F28343C4F20003FA791A7007F10C07BD4680BC704724
:4036800080B400AF46F26343C4F200031B78DBB21846BD4680BC704780B483B000AF0346FB8046F22243C4F20003FA881A8007F10C07BD4680BC704780B400AF46F242432F
:4036C000C4F200031B889BB21846BD4680BC704780B483B000AF0346FB8046F20243C4F20003FA881A8007F10C07BD4680BC704780B500AF01E0FFF7DFFFFFF7C1FF034608
:4037000003F00803002BF6D180BD00BF80B500AF00F048F843F23170C0F2000000F00EF84FF0070000F01EF800F030F880BD00BF80B400AFBD4680BC704700BF80B485B0AA
:4037400000AF78604EF60853CEF200031B68FB60FB6803F14C037A681A6007F11407BD4680BC704780B483B000AF0346FB714EF20343CEF20003FA794FEA4212D2B21A7055
:4037800007F10C07BD4680BC704700BF80B400AF4EF20013CEF200034FF008021A60BD4680BC704780B400AF4EF28013CEF200034FF008021A60BD4680BC704780B500AF81
:4037C00000F048F843F2E170C0F2000000F00EF84FF0070000F01EF800F030F880BD00BF80B400AFBD4680BC704700BF80B485B000AF78604EF60853CEF200031B68FB6043
:40380000FB6803F144037A681A6007F11407BD4680BC704780B483B000AF0346FB714EF20143CEF20003FA794FEA4212D2B21A7007F10C07BD4680BC704700BF80B400AFC2
:403840004EF20013CEF200034FF002021A60BD4680BC704780B400AF4EF28013CEF200034FF002021A60BD4680BC704780B582B000AF4FF6FF7000F071F84FF6FF7000F08C
:4038800089F800F0C1FB0346FB7146F29143C4F2000346F29142C4F200021278D2B242F01002D2B21A70FB79184600F0B1FB4FF0000000F07FF800F0A7F84FF0020000F06A
:4038C00031F807F10807BD4680BD00BF80B400AF46F27043C4F2000346F27042C4F200021278D2B26FEA42626FEA5262D2B21A70BD4680BC704700BF80B500AF48F66B0305
:40390000C1F6FF731B78002B08D1FFF7AFFF48F66B03C1F6FF734FF001021A70FFF7D6FF80BD00BF80B483B000AF0346FB7146F28143C4F20003FA791A7007F10C07BD4630
:4039400080BC704780B400AF46F26143C4F200031B78DBB21846BD4680BC704780B483B000AF0346FB8046F22043C4F20003FA881A8007F10C07BD4680BC704780B400AF3A
:4039800046F24043C4F200031B889BB21846BD4680BC704780B483B000AF0346FB8046F20043C4F20003FA881A8007F10C07BD4680BC704780B483B000AF0346FB71FB79E5
:4039C00003F00303FB7146F27043C4F2000346F27042C4F200021278D2B202F0FC021A7046F27043C4F2000346F27042C4F200021278D1B2FA7941EA0202D2B21A7007F199
:403A00000C07BD4680BC704780B500AF01E0FFF7B5FFFFF797FF034603F00803002BF6D180BD00BF80B500AF00F048F843F64920C0F2000000F00EF84FF0070000F01EF8A3
:403A400000F030F880BD00BF80B400AFBD4680BC704700BF80B485B000AF78604EF60853CEF200031B68FB60FB6803F140037A681A6007F11407BD4680BC704780B483B004
:403A800000AF0346FB714EF20043CEF20003FA794FEA4212D2B21A7007F10C07BD4680BC704700BF80B400AF4EF20013CEF200034FF001021A60BD4680BC704780B400AF00
:403AC0004EF28013CEF200034FF001021A60BD4680BC704780B485B000AF4FF000037B604FF000033B6036E03B684FEA830303F190431B68BB60BB68FB73BB6823F0FF03C6
:403B0000BB6018E07B684FEA430303F1904303F178031B781A46BB6813441A467B684FEA430303F1904303F178035B7813707B6803F101037B60FB7B002B0CBF00230123B6
:403B4000DBB2FA7B02F1FF32FA73002BDAD13B6803F101033B603B681D2BC5D907F11407BD4680BC704700BF80B584B000AF07F10803FB6044F28000C4F2000040F201013F
:403B8000C0F2180100F048FA44F28400C4F2000040F21D01C0F2190100F03EFA44F28800C4F2000040F23811C0F2180100F034FA44F28C00C4F2000047F22F51C0F219017F
:403BC00000F02AFA44F20033C4F200034FF002021A7044F20003C4F200034FF008021A7044F20023C4F200034FF003021A7044F2A163C4F2000340F20812C4F60012127888
:403C0000D2B21A7044F22223C4F200034FF008021A8044F22023C4F2000341F251021A804FF00003FB714FF01903BB601AE0FB79DBB24FEA4303DAB244F22523C4F20003AC
:403C40001B78DBB203F0010342EA0303DBB203F00303FB714FF4F07000F0CEF9BB6803F1FF33BB60FB681B68002B03D0FB79DBB2032BDCD144F20403C4F200034FF4807260
:403C80001A8044F20403C4F200034FF007021A7044F20603C4F200034FF000021A7044F20803C4F200034FF048021A7044F20403C4F200034FF000021A7044F20103C4F221
:403CC00000034FF002021A7044F2A233C4F2000344F2A232C4F200021278D2B242F00F02D2B21A7007F11007BD4680BD80B483B000AF40F2CF13C4F600131B78FB7145F68F
:403D00006E03C4F20003FA7902F007021A7045F66F03C4F20003FA794FEA1212D2B21A7045F67603C4F200034FF044021A7007F10C07BD4680BC704780B586B000AF72B65E
:403D400044F2E863C4F2000344F2E862C4F200021278D2B242F00402D2B21A704FF00003FB7031E0FA7813464FEA430313444FEA43031A464DF2B853C0F2000313447B600E
:403D80007B681A7859784FEA012141EA020299784FEA014141EA0202DB784FEA036343EA02031A467B6819795B794FEA032343EA01039BB210464FF000011A4600F0B4FE36
:403DC000FB7803F10103FB70FB78092BCAD94FF00003FB7043E0FA7813464FEA830313444FEA43031A464DF2F453C0F200031344BB60BB681A7859784FEA012141EA020256
:403E000099784FEA014141EA0202DB784FEA036343EA0203FB60BB681A7959794FEA012141EA020299794FEA014141EA0202DB794FEA036343EA02033B61BB681A7A5B7A2D
:403E40004FEA032343EA0203FB82FB8AF86839691A4600F0A1FDFB7803F10103FB70FB78002BB8D0FFF736FE45F20303C4F2010345F20302C4F201021278D2B242F0020269
:403E8000D2B21A7045F21303C4F2010345F21302C4F201021278D2B242F00202D2B21A7044F2A033C4F2000344F2A032C4F200021278D2B242F04002D2B21A7044F2C23359
:403EC000C4F2000344F2C232C4F200021278D2B242F01002D2B21A7045F20210C4F2000040F69C01C4F600014FF0080200F054FD45F22210C4F2000040F6A401C4F60001FB
:403F00004FF0080200F048FD45F23010C4F2000040F6AC01C4F600014FF00A0200F03CFD45F24210C4F2000040F6B801C4F600014FF0080200F030FD45F25210C4F2000026
:403F400040F6C001C4F600014FF0080200F024FD45F26010C4F2000040F6C801C4F600014FF00A0200F018FD40F2DB03C4F201036FF03B021A7040F2DB23C4F201036FF095
:403F80003B021A7044F22233C4F2000344F22232C4F200021278D2B242F00802D2B21A7044F60003C4F200034FF001021A70FFF7DBFD44F60003C4F200036FF07E021A706D
:403FC00040F20403C4F208034FF001021A70FFF78DFE44F2B030C4F2000044F2A031C4F200014FF00E0200F0D7FC07F11807BD4680BD00BF000000000230800803D000BF7C
:4040000001380046FCD17047EFF3108072B6704780F31088704700BF80B483B000AF786039603B68DAB27B681A707B6803F101037B603B684FEA13233B603B68DAB27B6813
:404040001A707B6803F101037B603B684FEA13233B603B68DAB27B681A7007F10C07BD4680BC704781F0004102E000BF83F0004330B54FEA41044FEA430594EA050F08BF70
:4040800090EA020F1FBF54EA000C55EA020C7FEA645C7FEA655C00F0E2804FEA5454D4EB5555B8BF6D420CDD2C4480EA020281EA030382EA000083EA010180EA020281EAFF
:4040C0000303362D88BF30BD11F0004F4FEA01314FF4801C4CEA113102D0404261EB410113F0004F4FEA03334CEA133302D0524263EB430394EA050F00F0A780A4F10104B5
:40410000D5F1200E0DDB02FA0EFC22FA05F2801841F1000103FA0EF2801843FA05F359410EE0A5F120050EF1200E012A03FA0EFC28BF4CF0020C43FA05F3C01851EBE37185
:4041400001F0004507D54FF0000EDCF1000C7EEB00006EEB0101B1F5801F1BD3B1F5001F0CD349085FEA30004FEA3C0C04F101044FEA445212F5800F80F09A80BCF1004F3C
:4041800008BF5FEA500C50F1000041EB045141EA050130BD5FEA4C0C404141EB010111F4801FA4F10104E9D191F0000F04BF01460020B1FA81F308BF2033A3F10B03B3F132
:4041C00020020CDA0C3208DD02F1140CC2F10C0201FA0CF021FA02F10CE002F11402D8BFC2F1200C01FA02F120FA0CFCDCBF41EA0C019040E41AA2BF01EB0451294330BDA4
:404200006FEA04041F3C1CDA0C340EDC04F11404C4F1200220FA04F001FA02F340EA030021FA04F345EA030130BDC4F10C04C4F1200220FA02F001FA04F340EA030029462B
:4042400030BD21FA04F0294630BD94F0000F83F4801306BF81F480110134013D4EE77FEA645C18BF7FEA655C29D094EA050F08BF90EA020F05D054EA000C04BF1946104638
:4042800030BD91EA030F1EBF0021002030BD5FEA545C05D14000494128BF41F0004130BD14F580043CBF01F5801130BD01F0004545F0FE4141F470014FF0000030BD7FEAB9
:4042C000645C1ABF194610467FEA655C1CBF0B46024650EA013406BF52EA033591EA030F41F4002130BD00BF90F0000F04BF0021704730B54FF4806404F132044FF00005F6
:404300004FF0000150E700BF90F0000F04BF0021704730B54FF4806404F1320410F0004548BF40424FF000013EE700BF42004FEAE2014FEA31014FEA02701FBF12F07F43DE
:4043400093F07F4F81F06051704792F0000F14BF93F07F4F704730B54FF4607401F0004521F0004120E700BF50EA010208BF704730B54FF000050AE050EA010208BF7047D4
:4043800030B511F0004502D5404261EB41014FF4806404F132045FEA915C3FF4DCAE4FF003025FEADC0C18BF03325FEADC0C18BF033202EBDC02C2F1200300FA03FC20FA34
:4043C00002F001FA03FE40EA0E0021FA02F11444C1E600BF70B54FF0FF0C4CF4E06C1CEA11541DBF1CEA135594EA0C0F95EA0C0F00F0DEF82C4481EA030621EA4C5123EA89
:404400004C5350EA013518BF52EA033541F4801143F4801338D0A0FB02CE4FF00005E1FB02E506F00042E0FB03E54FF00006E1FB03569CF0000F18BF4EF0010EA4F1FF044C
:40444000B6F5007F64F5407404D25FEA4E0E6D4146EB060642EAC62141EA55514FEAC52040EA5E504FEACE2EB4F1FD0C88BFBCF5E06F1ED8BEF1004F08BF5FEA500E50F1F8
:40448000000041EB045170BD06F0004646EA010140EA020081EA0301B4EB5C04C2BFD4EB0C0541EA045170BD41F480114FF0000E013C00F3AB8014F1360FDEBF002001F0E2
:4044C000004170BDC4F10004203C35DA0C341BDC04F11404C4F1200500FA05F320FA04F001FA05F240EA020001F0004221F0004110EBD37021FA04F642EB06015EEA430E49
:4045000008BF20EAD37070BDC4F10C04C4F1200500FA04F320FA05F001FA04F240EA020001F0004110EBD37041F100015EEA430E08BF20EAD37070BDC4F1200500FA05F236
:404540004EEA020E20FA04F301FA05F243EA020321FA04F001F0004121FA04F220EA020000EBD3705EEA430E08BF20EAD37070BD94F0000F0FD101F00046400041EB010140
:4045800011F4801F08BF013CF7D041EA060195F0000F18BF704703F00046520043EB030313F4801F08BF013DF7D043EA0603704794EA0C0F0CEA135518BF95EA0C0F0CD0D6
:4045C00050EA410618BF52EA4306D1D181EA030101F000414FF0000070BD50EA410606BF1046194652EA430619D094EA0C0F02D150EA013613D195EA0C0F05D152EA033620
:404600001CBF104619460AD181EA030101F0004141F0FE4141F470014FF0000070BD41F0FE4141F4780170BD70B54FF0FF0C4CF4E06C1CEA11541DBF1CEA135594EA0C0F58
:4046400095EA0C0F00F0A7F8A4EB050481EA030E52EA03354FEA013100F088804FEA03334FF0805545EA131343EA12634FEA022245EA111545EA10654FEA00260EF00041B8
:404680009D4208BF964244F1FD0404F5407402D25B084FEA3202B61A65EB03055B084FEA32024FF480104FF4002CB6EB020E75EB030E22BFB61A754640EA0C005B084FEA5B
:4046C0003202B6EB020E75EB030E22BFB61A754640EA5C005B084FEA3202B6EB020E75EB030E22BFB61A754640EA9C005B084FEA3202B6EB020E75EB030E22BFB61A7546F0
:4047000040EADC0055EA060E18D04FEA051545EA16754FEA06164FEAC30343EA52734FEAC2025FEA1C1CC0D111F4801F0BD141EA00014FF000004FF0004CB6E711F4801F1F
:4047400004BF01430020B4F1FD0C88BFBCF5E06F3FF6AFAEB5EB030C04BFB6EB020C5FEA500C50F1000041EB045170BD0EF0004E4EEA113114EB5C04C2BFD4EB0C0541EA35
:40478000045170BD41F480114FF0000E013C90E645EA060E8DE60CEA135594EA0C0F08BF95EA0C0F3FF43BAF94EA0C0F0AD150EA01347FF434AF95EA0C0F7FF425AF104616
:4047C00019462CE795EA0C0F06D152EA03353FF4FDAE1046194622E750EA410618BF52EA43067FF4C5AE50EA41047FF40DAF52EA43057FF4EBAE12E74FF0FF3C06E000BFAD
:404800004FF0010C02E000BF4FF0010C4DF804CD4FEA410C7FEA6C5C4FEA430C18BF7FEA6C5C1BD001B050EA410C0CBF52EA430C91EA030F02BF90EA020F0020704710F1B8
:40484000000F91EA030F58BF994208BF90422CBFD8176FEAE37040F0010070474FEA410C7FEA6C5C02D150EA013C07D14FEA430C7FEA6C5CD6D152EA033CD3D05DF8040BE8
:40488000704700BF8446104662468C461946634600E000BF01B5FFF7B7FF002848BF10F1000F01BD4DF808EDFFF7F4FF0CBF012000205DF808FB00BF4DF808EDFFF7EAFF83
:4048C00034BF012000205DF808FB00BF4DF808EDFFF7E0FF94BF012000205DF808FB00BF4DF808EDFFF7CEFF94BF012000205DF808FB00BF4DF808EDFFF7C4FF34BF012004
:4049000000205DF808FB00BF4FEA410212F5001215D211D56FF47873B3EB625212D94FEAC12343F0004343EA505311F0004F23FA02F018BF404270474FF00000704750EA51
:40494000013005D111F0004008BF6FF0004070474FF00000704700BF4A0011D212F5001211D20DD56FF47873B3EB62520ED44FEAC12343F0004343EA505323FA02F0704767
:404980004FF00000704750EA013002D14FF0FF3070474FF000007047032A2DE9F0070BD83AB1002311F803C000F803C001339342F8D1BDE8F007704782180C46034603E0B9
:4049C00014F8011C03F8011C03F003061946A44601330134002EF3D11CF00304634608BFC1EB020C68D06542C4F1040A0CEB050733464FEACA0A5CF805604FEAC408551A41
:404A000008E057F8044F264604FA0AF449EA0404CC5004335C18032D26FA08F9A5F104050CEB0306EDDC002302E0F15CE154013319199142F9D3BCE753F8404C41F8404CFE
:404A400053F83C4C41F83C4C53F8384C41F8384C53F8344C41F8344C53F8304C41F8304C53F82C4C41F82C4C53F8284C41F8284C53F8244C41F8244C53F8204C41F8204C76
:404A800053F81C4C41F81C4C53F8184C41F8184C53F8144C41F8144C53F8104C41F8104C53F80C4C41F80C4C53F8084C41F8084C53F8044C41F8044C1C460D4640334031B9
:404AC000BCF13F0FACF1400CB6DC21462B46541B0FE051F8105C43F8105C51F80C5C43F80C5C51F8085C43F8085C51F8045C43F8045C0F2C0D469C4601F1100103F1100350
:404B0000A4F11004E5DCCCEB0201002303E0EC584CF8034004335E19032903EB0C04A1F10401F4DC7FE700BF032AC9B230B407D822B10023C15401339342FBD130BC70472E
:404B400000EB020C034601E003F8011C03F003041A460133002CF7D14FF00133C2EB0C0403FB01F31FE042F8403C42F83C3C42F8383C42F8343C42F8303C42F82C3C42F815
:404B8000283C42F8243C42F8203C42F81C3C42F8183C42F8143C42F8103C42F80C3C42F8083C42F8043C154640323F2CA4F14004D9DC2A46C5EB0C0407E042F8103C42F81A
:404BC0000C3C42F8083C42F8043C154610320F2CA4F11004F1DC2A46C5EB0C0501E042F8043C14460432032DA5F10405F7DC01E004F8011B6445FBD3A0E700BF0EB448F2B7
:404C0000601330B59CB01FACC1F6FF73054601A954F8042B4FF0FF3C18684FF40273ADF810302346059501956FF00045ADF812C0069503951B9400F033FA019B00221A70DA
:404C40001CB0BDE8304003B0704700BF0CB40B4610B59CB01EAC01A905934FF4027C54F8042B01934FF0FF33ADF8123023461B946FF00044ADF810C00694039400F010FA79
:404C8000019B00221A701CB0BDE8104002B07047002070470CB44FF40173F0B59DB022AC05460846ADF8103054F8047B0191059100F038F93A46234601A94FF0FF3C1B9426
:404CC000ADF812C00646284644F691450696C0F2000502960A95002513950E9501F08CFC1DB0BDE8F04002B0704700BF0EB44FF4017370B59DB021ACADF8103054F8045BEE
:404D00000590019000F00EF948F260112A46C1F6FF71234644F691454FF0FF3CC0F20005ADF812C00A9500251B9413950E950646086801A90696029601F05EFC1DB0BDE8DE
:404D4000704003B0704700BF80EA010212F0030F3AD110F0030220F0030021F0030150F804CB08BF51F8043B0DD082F003024FEAC2026FF07F4323FA02F251F8043B4CEAFA
:404D8000020C43EA020300BFACF101329C4501BF22EA0C0212F0803F50F804CB51F8043BF2D04FEA0C604FEA1C2C012828BFB0EB036F08BF1B0AF4D003F0FF034FEA1060B6
:404DC000A0EB0300704700BF10F0030F0AD010F8012B11F8013B012A28BF9A42F4D0A2EB030070474DF8045D4DF8044D4FF0010242EA022242EA024201F0030C21F00301FE
:404E000050F8044B51F8045BBCF1020F26D04BD824F07F4CBCEB152FA4EB020323EA04030DD113EAC21308BF51F8045B0AD18CEA040CBCEB056F0CD150F8044BE8E74FEAD3
:404E400015255CE033F07F4352D10D784FEA146C55E04FEA146C05F0FF0550E04FEA044CA4EB02034FEA1C4C23EA0403BCEB154F17D113EAC21308BF51F8045B07D18CEA0B
:404E8000040CBCEB054F08D150F8044BE6E71B042ED10D884FEA144C31E04FEA05454FEA144C4FEA15452AE004F0FF0CBCEB156FA4EB020323EA04030DD113EAC21308BF4B
:404EC00051F8045B0AD18CEA040CBCEB052F0AD150F8044BE8E74FEA156510E014F0FF0F06D051F8045B4FEA142C25F07F4506E04FF000005DF8044B5DF8045B70470CF0D8
:404F0000FF0205F0FF00012828BF904204BF4FEA1C2C2D0AF3D0A2EB00005DF8044B5DF8045B704720F0030110F00300C0F1000051F8043B00F1040C4FEACC0C6FF00002FD
:404F40001CBF22FA0CF213434FF0010C4CEA0C2C4CEA0C4CA3EB0C0222EA030212EACC1204BF51F8043B0430F4D013F0FF0F1FBF013013F47F4F013013F47F0F18BF013011
:404F8000704700BF2DE9F04F85B092460C46039090681768002800F081804FF000090B684D46002D54D0A668B542B0463EBF18462E46A8463CD3A08910F4906F08BF1846ED
:404FC00036D06269216902EB420B5B1A03F1010C0BEBDB7BAC444FEA6B0BE3455A463CBFE3465A4610F4806F37D011460398019303F04EFF019B00283BD01A462169019322
:405000000290FFF7C9FCA289019BDDF808C022F4906242F08002A2812E46A846C3EB0B020CEB0300A260C4F810C02060C4F814B04246494604F082FAA2682368961BA66068
:40504000DAF8082043442360551BCAF80850FDB1D7F800907D680837A3E70398019304F079FF019B84460028D6D10398216903F087FD039A0C234FF0FF3013600023A28980
:40508000CAF8043042F04002CAF80830A28102E02846CAF8045005B0BDE8F08F5060FAE72DE9F04FC5B00E469A461546099003F0ABFEB38913F0800F00681B9003D03369BB
:4050C000002B01F08C800DF17409B3464C46002210920023189217921A920D922DAA199328320DF1F703169207930023CDF8DC90389339932B78B3F1250218BF0122002B68
:405100000CBF002202F0010202B32E4616F8013F1A1E18BF0122252B0CBF002202F00102002AF3D1771B08BF35460FD06760389B399A01332560D219072B3992389379DCE3
:4051400008340D983546C0190D903378002B00F0378700214FF00002CDF828A06B1C0C914FF0FF388DF80F218A466A782B204FF0200C5D1CA2F12003582B00F21982DFE82D
:4051800013F029021702170235021702170217021702170217023C0248021702C802CF021702EF02F602F602F602F602F602F602F602F602F6021702170217021702170247
:4051C000170217021702170217024F028802170288021702170217021702C10217021702EE0317021702170217021702930317021702AD03170217021702170217021702DF
:405200001702170217021702C703D8038802880288020B03D803170217020F031702190329033E038C03170259031702840317021702EA000998594637AAFFF7A3FE002858
:405240007CD14C467DE71899012940F35284119A01236360389B2260399A013338930132072B399200F39685083401236360389B399A01331B980132072B399220603893E5
:4052800000F37D8508341098002200231999FFF709FB002840F003851899119B4A1E6260591C389B21603999013338938A18072B399200F32F8408341A9A1A9862603EAA92
:4052C000389B2260399A013338931218072B399200F34F8104F108031AF0040F00F056810C990B9A8E1A002E40F35081102E4DF20067D8BFC0F2000740F3DE831024C0F2E7
:4053000000070DF1DC08DDF824A003E0103E102E40F3D2835C60389A399901321F601031072A399103F108033892EFDD504659464246FFF727FE4B460028E7D05E46B389E9
:405340000D9813F0400F18BF4FF0FF300D900D9845B0BDE8F08F1AF0200F4DF24460C0F200001492179000F0C3820A99CB1D23F0070303F108020A92D3E9006756EA070199
:405380000CBF002201221AEA020F40F0BC8402234FF000018DF80F11B8F1000FA8BF2AF0800AB8F1000F18BF42F00102002A00F06081012B00F03484022B00F01784169991
:4053C000CDF82C8011914FEAD6084FEAD70C48EA477806F0070067464646303056EA070201F8010DEFD11AF0010FDDF82C80119140F0DB84169B5B1A0E930E9BCDF85480FB
:405400004345B8BF43460B939DF80F3113B10B9901310B911AF00202139202D00B9B02330B931AF08400129038D10C990B9A8E1A002E33DD102E4DF20067D8BFC0F20007A0
:4054400020DD4FF01008C0F2000702E0103E102E18DDC4F80480389B399A013327601032072B399204F108043893EFDD0998594637AA4C46FFF786FD00287FF45FAF103E21
:40548000102EE6DC6660389B27605A1C399B38929B19072A399300F3F78308349DF80F3173B101236360389B43AA03322260399A013338930132072B399200F34083083413
:4054C000139B6BB102236360389B43AA2260399A013338930232072B399200F33A8308341298802800F0B28215980E9BC61A002E2EDD102EA74FC8BF4FF0100803DC1BE0F8
:40550000103E102E18DDC4F80480389B399A013327601032072B399204F108043893EFDD0998594637AA4C46FFF72CFD00287FF405AF103E102EE6DC6660389B27605A1C6D
:40554000399B38929B19072A399300F3EE8208341AF4807F40F019820E99119A6160389B2260399A013338935218072B39927FF7B1AE0998594637AAFFF704FD00287FF43C
:40558000DDAE1AF0040F4B467FF4AAAE399B0D980B9A0C998A42ACBF801840180D90002B40F09E820023DDF828A038934C46A1E51492002A00F0048501208DF8B4204FF040
:4055C00000012DAA0B908DF80F1111920E90002115911FE79DF80F31002B40F00C840A992B468DF80FC12A780A91C2E50A994AF0010A2A782B460A91BBE50A9B0A9A1B6876
:40560000111D002B0C93C0F2B2852A782B460A91AFE50A992B468DF80F012A780A91A8E54AF0100A14921AF0200F00F087810A98C31D23F0070303F108010A91D3E900674F
:40564000002E77F10000C0F2768356EA07014FF001030CBF00220122B8F1000FA8BF2AF0800AB8F1000F18BF42F00102002A7FF4A0AE002B40F0E5811AF0010F00F0E181AF
:4056800030238DF8DB302DAB012027330E901193B3E61AF0080F149200F0BF830A98C31D23F0070303F108010A915E681F68199610973846314604F027FE0346002800F097
:4056C00093843846002200233146FFF7F5F8002840F015849DF80F3103204DF238624DF234610B901498C0F20001C0F200022AF0800A4728D8BF0A460321119200220E91B0
:40570000159283E60A994AF0080A2A782B460A912FE50A992A784AF0040A2B460A9128E52B4613F8012B2A2A00F0CF86A2F13001092988BF4FF0000810D802354FF00008D7
:4057400015F8012C08EB88082B46013501EB4808A2F130010929F3D948EAE8781D4609E50A994AF0800A2A782B460A9101E5A2F1300100262B4606EB860613F8012B01EBEE
:405780004606A2F130011D460929F3D90C961D46F0E400BF10D600004AF0400A0A9934E72A786C2A00F018840A994AF0100A2B460A91DEE41AF0200F00F023830A990D9A16
:4057C0000B6810464FEAE0710A9AC3E9000102F1040A8FE41AF02003149200F0C7800A9BDA1D002322F0070202F108000A90D2E9006756EA07010CBF00220122C8E50A9A4D
:405800004DF244600A997823C0F200001493166804318DF80D314AF0020A3023321E18BF01228DF80C3136464FF00007179002230A91ADE50A9B14924FF00002181D8DF8D2
:405840000F211B680A901193002B00F04D85B8F1000F1198C0F22A850021424603F034FE0346002800F06E8511981B1A0E93434540F38284CDF83880002128EAE8789DF881
:405880000F31CDF82C801591C0E51AF0200F149210D00A9BDA1D0123A4E70A994AF0200A2A782B460A9164E44AF0100A14921AF0200FEED11AF0100F40F054821AF0400F6B
:4058C00000F050820A980123011D0A910688321E18BF012236464FF0000759E51AF0200F14924DF22062C0F2000217927FF43DAD1AF0100F40F02D821AF0400F00F0298239
:405900000A990A1D0A920E8836464FF0000735E5149201200A9A4FF000010B900E90136804328DF80F110A922DAA8DF8B43011924DE61AF0200F14927FF479AE1AF0100F01
:4059400040F0ED811AF0400F00F0E9810A98011D0A91B0F9006036464FEAE67770E64AF0100A14921AF020037FF439AF1AF0100200F05F820A9A101D0A901668321E18BF8B
:40598000012236464FF0000702E5149B652B7FF75AAC1098002200231999FEF783FF002800F0E18001236360389A4DF26063C0F200032360399B013238920133072A3993DC
:4059C000D8BF04F1080300F39F82429A1898824203DB1AF0010F3FF47FAC1B9901225A60389A19603999013238920131072A399100F3EB830833189A561E002E7FF76CAC00
:405A0000102EA04F40F3E98110240DF1DC0803E0103E102E40F3E1815C60389A399901321F601031072A399103F108033892EFDD099859464246FFF7A5FA4B460028E7D0D2
:405A40007CE4169900220E921191D6E40C990B9A8E1A002E7FF748AD102E8A4FC8BF4FF0100803DC1BE0103E102E18DDC4F80480389B399A013327601032072B399204F149
:405A800008043893EFDD0998594637AA4C46FFF779FA00287FF452AC103E102EE6DC6660389B27605A1C399B38929B19072A399300F38881083417E55E60389A1F60399B44
:405AC00001323892F318072A39937FF760AD0998594637AAFFF756FA00283FF457AD2DE40998594637AAFFF74DFA00283FF45AAD24E41AF0010F7FF4AAAB01236360389BE3
:405B0000399A013311990132072B3992216038937FF7D1AB0998594637AAFFF733FA00287FF40CAC4C46FFF7C7BB0998594637AAFFF728FA00287FF401AC4C4608E5099804
:405B4000594637AAFFF71EFA00287FF4F7AB4C46B6E40998594637AAFFF714FA00287FF4EDAB4C46BCE4429B002B40F3D98118998B42C0F26F81119A6160389B2260399A5B
:405B8000013338935218072B3992D8BF04F1080300F3BA83429C1898241A002C40F39B81102C384F40F38B81CDF838A01026AA460DF1DC08099D03E0103C102C40F37C8189
:405BC0005E60389A399901321F601031072A399103F108033892EFDD284659464246FFF7D1F94B460028E7D0FFF7A8BB1698DDF85CC003461190310906F00F0241EA077135
:405C000038091CF802200E46074656EA070103F8012DF0D1169A1193D21A0E92FFF7EDBB00230922B24273EB0700169B3EBFCDF82C80A0461C461AD2304639460A2200235E
:405C400006F00AFE30463946002302F1300C0A2204F801CD06F000FE06460F4609200021B042B941E8D323464446DDF82C805A1E3036119203F8016C169B9B1A0E93FFF709
:405C8000BCBB00BF10D600000998594637AAFFF779F900287FF452AB4C46FFF7FFBB1898461E002E7FF708AB102E9C4FC8BF4FF0100803DC1BE0103E102E18DDC4F8048058
:405CC000389B399A013327601032072B399204F108043893EFDD0998594637AA4C46FFF751F900287FF42AAB103E102EE6DC6660389B399A013327609219072B3992389321
:405D00007FF7D9AA06E7149830214AF0020A012202238DF80C118DF80D01FFF739BB0A9A131D16680A9336464FEAE677002E77F10000BFF68AAC764267EB47072D2356EA69
:405D400007028DF80F310CBF002201220123FFF723BB0A9B181D1E680A9036464FF00007FFF70CBB0A9A131D16680A930123321E18BF012236464FF00007FFF709BB09985A
:405D8000594637AAFFF7FEF800287FF4D7AA4C46FFF779BA0998594637AAFFF7F3F800287FF4CCAA4C46FFF760BA302800F09682119A302302F8013D169B11929B1A0E93AB
:405DC000FFF71BBB0998594637AAFFF7DBF800287FF4B4AA4C46FFF787BB5E60389A399901321F608919072A399138923FF7C1AB0833FFF771BA0A992B462A780A91FFF76A
:405E0000B8B91AF0100F00F0CD810A980D9900F1040A03681960FFF76DB90A9AD31D23F0070303F108000A905E681F68199610973FE41AF0400300F0A9810A9913460A1DAC
:405E40000A920E88321E18BF012236464FF00007FFF79EBA119A636038992260399A01313891D3180729399300F3628208340123429E6360389B399A01331B980132072B54
:405E80003893D8BF04F108032060399200F34682429A119918988E191E60811A596039998A1A3899121839920131389107293FF760AB0833FFF710BA5546DDF838A05C6024
:405EC000389A399901321F600919072A3991389200F37F8208331AF0010F3FF4FDA91B9901225A60389A19603999013238920131072A39913FF73DAB0833FFF7EDB92D2326
:405F00008DF80F31FFF7E8BB0998594637AAFFF739F800287FF412AA4B4656E510D6000001236360389A4DF26063C0F200032360399B013238920133072A3993D8BF04F131
:405F4000080300F37381429A2AB9189818B91AF0010F3FF4C1A91B9901225A60389A19603999013238920131072A399100F368810833429C6442002C40F38781102C9E4F35
:405F800040F3A08110260DF1DC0803E0103C102C40F398815E60389A399901321F601031072A399103F108033892EFDD099859464246FEF7E7FF4B460028E7D0FFF7BEB959
:405FC000399B5E46002B3FF4BAA90998594637AAFEF7D8FFFFF7B3B90A994AF0200A6A786B1C0A91FFF7C5B838463146089304F09DF9089B002840F00181B8F1FF3F08BF56
:4060000008F107080ED0149A672A14BF00230123472A08BF43F0010323B1B8F1000F08BF4FF0010833463A46CDE93A234AF4807A3B9B002BC0F20A8200231593149966298D
:4060400014BF00230123462908BF43F001031293002B00F08A810323CDF82C800B990E970F9600930998DDE90E23019142A9029141A9039140A9049101F042FC149AB2F192
:40608000670318BF0123472A0CBF002303F0010311902BB91AF0010F08BFDDF800C11AD0119B0B98129903EB000C29B11B78302B00F0D080429B9C4438460022002331464C
:4060C000CDF820C0FEF7EEFBDDF820C0002800F07381CDF800C114981199672814BF00230123472808BF43F00103C1EB0C011891002B00F04A81429A12F1030F0E9202DBB4
:40610000904580F24B81149B023B14930E9A1498531E4293002B8DF8F800C0F2D1812B228DF8F920092B00F362813FA930338DF8FB3030238DF8FA303EAB189ACB1A189950
:406140001A935918012A0E9140F3CC810E9801300E9020EAE0710B91159B002B00F0FD802D2300208DF80F311590FFF750B90C9B5B420C93FFF7CEBA0E9A00209DF80F312C
:4061800022EAE27215900B92FFF740B90A98011D0A910668321E18BF012236464FF00007FFF7F6B81AF0400F17BF0A9A0A990D9802F1040A11BF136801F1040A0B680D9A54
:4061C00014BF18801A60FEF795BF0998594637AAFEF7D8FE00287FF4B1A84B460BE40998402102F055FE30603061002800F08D8140237361FEF767BF10D6000003204DF2E9
:4062000040624DF23C610B901498C0F20001C0F2000215934728D8BF0A462AF0800A032111929DF80F310E91FFF7F0B80998594637AAFEF7A7FE00287FF480A84B4682E640
:406240000998594637AAFEF79DFE00287FF476A84B468EE63846002200233146CDF820C0FEF720FBDDF820C000287FF423AF0B9AC2F1010342931EE70998594637AAFEF752
:4062800081FE00287FF45AA84B46189A11985A60389A399918600132189838920918072A39913FF766A90833FFF716B800211591FEF738FE9DF80F3120EAE0720E900B9295
:4062C000FFF7A4B85C60389A1F60511C399A3891121907293992CFDC0833D6E716991198081A0E90FFF789B8B8F1060F34BF414606214DF25862C0F2000221EAE1730E9114
:4063000011920B93FFF763B90998594637AAFEF739FE00287FF412A84B463BE40998594637AAFEF72FFE00287FF408A84B46AFE50998594637AAFEF725FE00287EF4FEAF85
:406340004C4694E5CDF8388028EAE8781590CDF82C809DF80F31FFF759B80E989DF80F3120EAE0700B90FFF751B8149A652A14BF00230123452A08BF43F00103002B32D0D1
:4063800008F101030B93022368E61498652862DD149A662A1CBF429B0E936FD0189A0E9B9A425BDC1AF0010F40F0818023EAE37067210B901491CFE6409B9C4598BF9C46F6
:4063C0007FF689AE302203F8012B9C454093FAD881E60998594637AAFEF7D4FD00287EF4ADAF4B4677E5CDF82C80023336E646F2676C0DF1F700C6F2666C8CFB0321DA17D9
:40640000C2EBA10202EB8201A3EB410113463031092A00F8011DF0DC3033421ED9B200F8011C079B934298BF0DF1FA017FF684AE02460DF1FB0301E012F8011B03F8011CC9
:406440001946079801339042F6D875E62D2006F100461590F2E542990E9157E60E9918980029DABF0E9AC2F1020301231B18672123EAE3720E9314910B926DE64298002840
:406480000E9038DDB8F1000F07D11AF0010F04BF20EAE0710B913FF45FAE0E9A66201490531C43440E9323EAE3710B9154E60E9A6723149301320E9222EAE2700B904BE60F
:4064C0002D225B428DF8F9202CE60A991A78D1F8008004310A91B8F1000FB8BF4FF0FF38FEF747BE1AF0010F04BF21EAE1730B933FF432AE2AE6B8F1000F0ED11AF0010F65
:406500000BD101220B920E9226E609980C234FF0FF310D910360FEF71ABF08F10203662023EAE3710E9314900B9115E610B50C46496B69B104F14403994201D002F020FB6A
:40654000236C00206063636013B1E36B236010BD22690021A3894FF0FF30616043F020032260A38110BD00BFB1F1FF3F30B583B014D0B2F80CC0CCB2536B2CF02001918118
:406580007BB15168936B99422CDA13682146581E106003F8014C536801335360084603B030BD1369E3B11068834204D210F8011C431EA1420FD055681346D063214602F169
:4065C000440003F8464F5063032015649063012013605060E2E750681360431C5360DDE71068E8E71146019201F01CF8019A0028CBD04FF0FF31D1E72DE9F04FADF52F7D19
:406600000C4617468046099302F082F9A38948F2542113F4005FC1F6FF7102BF43F40053A381626E0D9104BF22F400536366002067AA054603320A900C900B9003923A78D9
:40664000AD923AB348F25C160137C1F6FF763368991891F8019019F0080923D063680DE0236831685A1C1B785B185B7813F0080FE5D0636801352260013B6360002BEFDCF9
:4066800040462146FFF752FF0028E9D03A78AD92002AD7D10C9D02F03DF928460DF52F7DBDE8F08F252A10D06368002B40F30A81236817F8012C19789142EBD16268013329
:4066C00001352360531E6360B9E73A78CB460A210137782A00F2C4830FF2040C5CF822F0856E0000616E0000616E0000616E0000616E0000616E0000616E0000616E0000F9
:40670000616E0000616E0000616E0000616E0000616E0000616E0000616E0000616E0000616E0000616E0000616E0000616E0000616E0000616E0000616E0000616E000069
:40674000616E0000616E0000616E0000616E0000616E0000616E0000616E0000616E0000616E0000616E0000616E0000616E0000616E0000A9660000616E0000616E0000E9
:40678000616E0000616E00008F6E0000616E0000616E0000616E0000616E0000616E0000976E0000976E0000976E0000976E0000976E0000976E0000976E0000976E00000B
:4067C000976E0000976E0000616E0000616E0000616E0000616E0000616E0000616E0000616E0000616E0000616E0000616E0000EB680000A56E0000616E0000A56E000031
:40680000616E0000616E0000616E0000616E0000AD6E0000616E0000616E0000B56E0000616E0000616E0000616E0000616E0000616E0000616E0000616E0000616E0000C8
:40684000CF6E0000616E0000616E0000ED6E0000616E0000616E0000616E0000616E0000616E0000616E0000616E0000036F0000EF680000A56E0000A56E0000A56E000037
:40688000C56D0000CD6D0000616E0000616E0000E36D0000616E0000F76D0000136E0000296E0000616E0000616E0000436E0000616E00004B6E0000616E0000616E0000BE
:4068C000CF6E000040462146FFF730FE00283FF4EFAE0C9D02F01EF825B1A38913F0400F3FF4DBAE4FF0FF35D7E649F00109DA464BF29142C0F200020A234FF0030C0B9222
:406900000A93CDF820C06368002B40F34A8219F0400F08BF236812D0089A531E032B00F2D780DFE813F0AA0194001D00360140462146FFF7FBFD0028CBD1236801351978BC
:40694000013332688A18527812F0080FE4D06268013A6260002AC8BF2360E8DD0135EEE70BF1FF3349F4586CB3F5AE7F4DF2646388BFABF5AE7B0DF14C09C0F200030E977E
:406980000A9F92BF4FF0000B40F25D1A0BF1FF3B2A4600264D46089699466646D4F800C09CF80000A0F12B014D2900F2A781DFE811F0C701A501C701A501A501D201CD010A
:4069C000CD01CD01CD01CD01CD01CD01F101F101A501A501A501A501A501A501A501EC01EC01EC01EC01EC01EC01A501A501A501A501A501A501A501A501A501A501A501A5
:406A0000A501A501A501A501A501A5018C01A501A501A501A501A501A501A501A501EC01EC01EC01EC01EC01EC01A501A501A501A501A501A501A501A501A501A501A50105
:406A4000A501A501A501A501A501A5018C01BBF1000F14BFDA464FF0FF3A19F0010300F0ED8319F01000089018BF0DF52D7B04D10999D1F800B0043109913B464FF0000958
:406A80002F465D469B460E960E9B2268196813785918497881F00801C1F3C001BAF1000F0CBF002101F00101002940F046845B46AB463D461F46089E002E7FF4C0ADCBF82C
:406AC0000060DDF830C00CF1010CCDF830C0B6E5BBF1000F14BFDA464FF0010A19F0010600F05A8319F01000089018BF4FF0000904D10999D1F80090043109912B46CDF89D
:406B00003C90C146DDF83480554600260DF14C0B9A460E97D8F800309E423FF4DAAE23680021D4F804E00822ABA8ABAF13F801CB0EF1FF3EC4F804E00BF806C0013623605A
:406B4000FDF7F2FF48460F995A463346009702F071FCB0F1FF3F3FF4BCAE002840F0B983089808B90F990860089AB244013D002A00F0B98300266368002B40F35083002DEF
:406B8000C8D10E9F5546C846089E002E7FF457AD97E70BF1FF33B3F5AE7F00F2F78200224FF0000B41461197904649F4F06913AE5B465F460A46CDF820B0CDF840B0CDF842
:406BC00038B0CDF83CB0D4F800E09EF80000A0F12B014E2900F2D681DFE811F05D02D4015D025502D4014502BE01BE01BE01BE01BE01BE01BE01BE01BE01D401D401D40139
:406C0000D401D401D401D401D302D401D401D401BA02B302D401D4019602D401D401D401D4016B02D401D401D401D401D4016402D401D401D401D4018F02D401D401D40145
:406C4000D401D401D401D401D302D401D401D401BA02B302D401D4019602D401D401D401D4016B02D401D401D401D401D4016402D401D401D401D4018F02BBF1000F14BFF6
:406C8000DA464FF0FF3A19F0100F00F04081236800261A780DF5D67C01331CF80220002A00F0B883626801362360013AB245626000F0B282002AECDC40462146FFF736FC6A
:406CC000002840F0A9822368E3E706F4C061B1F5007F13D126F40076102746F4A06605F8010B6168013961600029C4BF0CF1010121605EDDBAF1010A7FF450AE16F4807F2D
:406D0000A9460A97B44615460E9F0FD00DF14C0ACA4508D219F8011D404622460796FFF723FCDDF81CC0CA453FF4B4AC1CF0100200F0548313AB0898ED1A2D184D447EE401
:406D400016F0800FDAD026F08006C8E739F9177026F43866C3E716F4006FC0D017B946F40076083716F4806F18BF26F4B066B6D1BBF1000F03D00BF1FF3B0AF1010A0898B5
:406D800026F4607601300890ABE70A2FB6DD26F43866A4E739F91770082FAFDD26F438669DE740462146FFF7C1FB00283FF4AFAD8FE5404621460792FFF7B8FB079A0028FF
:406DC00098D09BE749F004093A7881E44BF291400021C0F200000322DA460B900A91089291E53A786C2A0ABF49F0020949F0010917F8012F6CE419F0100F7FF420AC19F049
:406E0000040F00F07783099E3368043609961D8015E44BF2D9730820C0F200030321DA460B930A9008916EE54BF2D9701021C0F20000032249F408790B90DA460A9108929A
:406E400061E50221DA4608915DE54BF2D9700A21C0F200000322DA460B900A91089252E5D318DA465B7813F0010F4BF2914318BF49F00109C0F200030A2003210B930A90A8
:406E8000089140E501F046FD4FF0FF3505E449F010093A781CE401FB0BFBABF1300B93443A7815E40420DA4608902CE549F002093A780DE44BF2D9730820C0F200030321C7
:406EC00049F001090B93DA460A9008911BE54BF2D9721023C0F200024FF0030C49F400790B92DA460A93CDF820C00CE539466BA803F03EFA49F040090122DA460892074692
:406F000001E5002349F04009DA460893FBE4099822680668334612786BA98A5C002A00F0F681226861680139616012F8011BBAF1010A03F8011B226000F0E98161680029F6
:406F4000E9DC404621460693FFF7F0FA069B002840F0DA812268DEE70BEB070191B929F4C07906F8010B61680135013961600029C4BF0EF10101216040F3BA81BAF1010A4F
:406F80007FF421AE0E9390460E9A3B46119F0AB129F48079013B012B40F223830BF1FF33062B21D8BBF1020F40F20F83BBF1030F1AD0CDF84490DA46B1460AF1FF3A404643
:406FC00016F8011D22465FFA8AFAFFF7CDFABAF1030FF2D8ABF10403013D4E46DDF84490DBB2ED1ADB43F61819F4807F16D019F4806F40F00B8316F8011D013DB1F16503DE
:4070000018BF012345290CBF002303F00103002B40F0598240462246FFF7A6FA19F010027FF40DAB09F4C0633270B3F5806F00F040821098002840F024820022404613A9ED
:4070400003F01EFA19F0010F82468B4600F0E881099A161D1368C3E900AB0C9B099601330C93FFF7ECBA19F4807F3FF475AF29F080090133B8F1000F3FF475AF08F1FF3825
:407080000AF1010A6FE719F4007F3FF47BAF29F420790F9365E719F0800F3FF473AF29F080095EE7BBF1060F7FF46CAF4FF0070B57E7D7F1010138BF0021002B14BF002134
:4070C00001F00101002900F0338109F4E061B1F5E06F00F0D181BBF1010F14BF00210121BBF1040F08BF41F0010100293FF44AAF0BF1010B5FFA8BFB33E7BBF1070F7FF445
:4071000041AF4FF0080B2CE7DBF1010138BF0021002B14BF002101F0010129B109F4E061B1F5E06F00F0E081BBF1030F14BF00210121BBF1050F08BF41F001010029D7D145
:4071400020E7BBF1020F7FF41DAF4FF0030B08E709F4A061B1F5806F06D0191E18BF012111EA99213FF40EAF19F4007F03D10F9908965B1A109329F4F069002349F4C079C5
:40718000EFE6012F7FF4FEAE0227EAE6ABF5AE7240F25D1A013A03E519F0100929D109985646D146AA46D0F800B065685846AE422A4640F2F7812168761BFDF7EDFB236858
:4071C0000021404661605B1921462360AB44FFF7ADF90028E9D05546B9EB060A3FF479AB099A55440C9B0432099201330C93FFF726BA636840462146534580F2AF812268DE
:40720000F618C3EB0A0AD3182360FFF78FF90028EFD0002E3FF45DABAD19FFF710BA48462146FFF783F900283FF4A9AC55460E9FC846002E3FF4A8ACFFF74BBB19F0100F76
