:1000000000800020E1010000A1130000A113000006
:10001000A1130000A1130000A1130000A113000010
:10002000A1130000A1130000A1130000A113000000
:10003000A1130000A1130000A1130000A1130000F0
:10004000A1130000A1130000A1130000A1130000E0
:10005000A1130000A1130000A1130000A1130000D0
:10006000A1130000A1130000A1130000A1130000C0
:10007000A1130000A1130000A1130000A1130000B0
:10008000A1130000A1130000A1130000A1130000A0
:10009000A1130000A1130000A1130000A113000090
:1000A000A1130000A1130000A1130000A113000080
:1000B000A1130000A1130000A1130000A113000070
:1000C00080B51448144B21E05C689968DD688C4267
:1000D0000CD0002205E0A6180832D6E9008941E9D3
:1000E00002898C460831AA42F5D101E004EB050CE7
:1000F0001C696146002204E008320026002741E91D
:1001000002670831A242F7D1143301380028DBD14D
:1001100001F02EF9010000006814000048F21813E5
:10012000C1F6FF731A780AB901201870704700BF32
:1001300048F20010C1F6FF7008B503682BB140F219
:100140000003C0F2000303B1984708BD80B500AFBB
:1001500046F22E43C4F200031B78DBB2002B10D111
:100160004FF0630000F034FC4FF001004FF000014D
:1001700000F002F941F2F430C0F2000000F036F96C
:100180000FE04FF0000000F023FC4FF001004FF0B3
:10019000000100F0F1F841F2F830C0F2000000F088
:1001A00025F980BD80B500AF62B600F039FD40F2A0
:1001B0004D10C0F2000000F04BFD00F055FB00F0C8
:1001C000B5FC00F0C3F84FF000004FF0000100F064
:1001D000D3F841F2FC30C0F2000000F007F9FEE76E
:1001E000054B1C7844F001041C70044B1A78D2B201
:1001F000034B1A70FFF764FFE8460040FA460040E0
:10020000BC76004080B582B000AF4EF60C53CEF203
:10021000000340F20042C0F2FA521A604EF6145344
:10022000CEF200034EF61452CEF20002126842F4EF
:1002300000721A604FF000037B6014E07A687B68FC
:100240004FEA830140F20003C0F200030B441B6835
:10025000194648F20003C1F6FF7343F822107B6889
:1002600003F101037B607B682F2BE7D947F2BC6366
:10027000C4F200031B78DAB248F21D13C1F6FF7313
:100280001A704EF60853CEF2000348F20002C1F68F
:10029000FF721A6000F030FE07F10807BD4680BD0E
:1002A00080B500AF4FF0280000F0A6FA4FF0030031
:1002B00000F050FA4FF0050000F09EFA4FF00300F6
:1002C00000F048FA4FF00F0000F096FA4FF00300EC
:1002D00000F040FA4FF0010000F08EFA4FF00200FB
:1002E00000F038FA4FF0050000F086FA4FF00600F3
:1002F00000F0B8F84FF00E0000F0B4F84FF02C000A
:1003000000F0B0F84FF0080000F0ACF84FF001003A
:1003100000F0A8F84FF00C0000F0A4F84FF0030034
:1003200000F0A0F84FF0050000F066FA80BD00BFB5
:1003300080B500AF4FF00C0000F094F848F21913AC
:10034000C1F6FF734FF001021A7080BD80B500AF97
:1003500048F21A13C1F6FF731B78002B08D1FFF780
:100360009FFF48F21A13C1F6FF734FF001021A7093
:10037000FFF7DEFF80BD00BF80B582B000AF024650
:100380000B46FA71BB71FB79032B2AD801A252F8F4
:1003900023F000BFA5030000B5030000C503000063
:1003A000D5030000BB79A3F18003DBB2184600F04F
:1003B00059F816E0BB79A3F14003DBB2184600F010
:1003C00051F80EE0BB79A3F16C03DBB2184600F0E4
:1003D00049F806E0BB79A3F12C03DBB2184600F024
:1003E00041F807F10807BD4680BD00BF80B584B065
:1003F00000AF78604FF00103BB737B681B78FB7321
:100400000CE0FB7B184600F011F8BA7B7B681344C4
:100410001B78FB73BB7B03F10103BB73FB7B002BDE
:10042000EFD107F11007BD4680BD00BF80B584B095
:1004300000AF0346FB7100F035F8FB794FEA131368
:10044000FB73FB7B184600F02FF9FB7903F00F03D9
:10045000FB73FB7B184600F027F907F11007BD4638
:1004600080BD00BF80B584B000AF0346FB71FB794F
:100470004FEA1313FB7300F015F8FB7B03F00F0337
:10048000FB73FB7B184600F065F9FB7903F00F0363
:10049000FB73FB7B184600F05DF907F11007BD46C2
:1004A00080BD00BF80B582B000AF4FF00003FB718C
:1004B00045F22013C4F2000345F22012C4F20002F8
:1004C0001278D2B202F080021A7045F22213C4F2FE
:1004D00000031B78DBB223F00F03FB7145F22213FC
:1004E000C4F20003FA7942F00F02D2B21A7045F258
:1004F0002313C4F200031B78DBB223F00F03FB715C
:1005000045F22313C4F20003FA791A7045F224135A
:10051000C4F200031B78DBB223F00F03FB7145F23A
:100520002413C4F20003FA791A7045F22013C4F2BE
:10053000000345F22012C4F200021278D2B202F097
:10054000DF021A7045F22013C4F2000345F22012B4
:10055000C4F200021278D2B242F04002D2B21A7053
:100560004FF0000000F06CF945F22013C4F20003D4
:1005700045F22012C4F200021278D2B242F0100208
:10058000D2B21A704FF0010000F05AF945F221136F
:10059000C4F200031B78FB7145F22013C4F2000380
:1005A00045F22012C4F200021278D2B202F0EF0239
:1005B0001A704FF0000000F043F9FB7903F00803D4
:1005C000FB7145F22013C4F2000345F22012C4F27D
:1005D00000021278D2B242F01002D2B21A704FF07A
:1005E000010000F02DF945F22013C4F2000345F29A
:1005F0002012C4F200021278D2B202F0EF021A7096
:10060000FB79002BACD145F22013C4F2000345F274
:100610002012C4F200021278D2B202F0BF021A70A5
:1006200045F22013C4F2000345F22012C4F2000286
:100630001278D2B202F080021A7045F22213C4F28C
:1006400000031B78DBB223F00F03FB7145F222138A
:10065000C4F20003FA791A7045F22313C4F20003BE
:100660001B78DBB223F00F03FB7145F22313C4F2B6
:100670000003FA7942F00F02D2B21A7045F2241345
:10068000C4F200031B78DBB223F00F03FB7145F2C9
:100690002413C4F20003FA7942F00F02D2B21A70A6
:1006A00007F10807BD4680BD80B582B000AF0346A4
:1006B000FB71FFF7F7FE45F22013C4F2000345F289
:1006C0002012C4F200021278D2B242F02002D2B25A
:1006D0001A7045F22013C4F2000345F22012C4F24E
:1006E00000021278D2B202F0BF021A7045F2201353
:1006F000C4F2000345F22012C4F200021278D2B212
:1007000002F0F0021A7045F22013C4F2000345F221
:100710002012C4F200021278D1B2FA7941EA020240
:10072000D2B242F01002D2B21A704FF0010000F0C3
:1007300087F845F22013C4F2000345F22012C4F2F8
:1007400000021278D2B202F0EF021A7007F1080725
:10075000BD4680BD80B582B000AF0346FB7145F257
:100760002013C4F2000345F22012C4F200021278F2
:10077000D2B202F09F021A7045F22013C4F20003B5
:1007800045F22012C4F200021278D2B202F0F00256
:100790001A7045F22013C4F2000345F22012C4F28D
:1007A00000021278D1B2FA7941EA0202D2B242F0E2
:1007B0001002D2B21A704FF0010000F041F845F279
:1007C0002013C4F2000345F22012C4F20002127892
:1007D000D2B202F0EF021A7007F10807BD4680BDE1
:1007E00080B483B000AF0346FB7101BE07F10C0774
:1007F000BD4680BC704700BF80B582B000AF786056
:100800000BE048F21013C1F6FF731B68184600F0A6
:1008100047FC7B68A3F500437B607B68B3F5004F22
:10082000EFD848F20813C1F6FF731B687A6802FB21
:1008300003F3184600F034FC07F10807BD4680BDFD
:1008400080B582B000AF0346FB80FA8848F20C13F3
:10085000C1F6FF731B7803FB02F3184600F020FC7F
:1008600007F10807BD4680BD80B500AF48F21B13F5
:10087000C1F6FF731B78002B08D100F00BF848F28B
:100880001B13C1F6FF734FF001021A7000F054F809
:1008900080BD00BF80B582B000AF46F27E43C4F297
:1008A00000031B78DBB223F03F03BB7146F27E43AB
:1008B000C4F20003BA7942F00902D2B21A7046F2C9
:1008C0009E43C4F2000346F29E42C4F20002127834
:1008D000D2B242F00102D2B21A704FF0630000F0BF
:1008E00041F84FF0630000F063F84FF0000000F0B3
:1008F0006FF846F28E43C4F200034FF000021A7004
:1009000000F0D6FB0346FB7146F29E43C4F200039F
:1009100046F29E42C4F200021278D2B242F01002B5
:10092000D2B21A70FB79184600F0C6FB00F02AF824
:1009300007F10807BD4680BD80B400AF46F27E4394
:10094000C4F2000346F27E42C4F200021278D2B230
:100950006FEA42626FEA5262D2B21A70BD4680BC40
:10096000704700BF80B483B000AF0346FB7146F20E
:100970000E43C4F20003FA791A7007F10C07BD4662
:1009800080BC704780B400AF04E046F25E43C4F21E
:1009900000031B7846F26E43C4F200031B78DBB2FF
:1009A00003F01003002BF0D1BD4680BC704700BFA0
:1009B00080B483B000AF0346FB7146F24E43C4F2ED
:1009C0000003FA791A7007F10C07BD4680BC704726
:1009D00080B483B000AF0346FB7146F22E43C4F2ED
:1009E0000003FA791A7007F10C07BD4680BC704706
:1009F00080B500AF44F60073C4F2000344F6007201
:100A0000C4F200021278D2B202F001021A7044F667
:100A10000273C4F2000344F60272C4F200021278B8
:100A2000D2B202F0FC021A7044F60173C4F2000361
:100A300044F60172C4F200021278D2B242F001020E
:100A4000D2B21A7044F60B73C4F2000344F60B7270
:100A5000C4F200021278D2B202F0CF021A7044F649
:100A60000B73C4F2000344F60B72C4F20002127856
:100A7000D2B242F03002D2B21A7044F60B73C4F212
:100A8000000344F60B72C4F200021278D2B202F0F4
:100A9000F0021A7044F60B73C4F2000344F60B72B2
:100AA000C4F200021278D2B242F00F02D2B21A702F
:100AB00042F20F7000F0A4F842F20F7000F05CF800
:100AC0004FF0000000F048F880BD00BF80B400AFD8
:100AD00044F2A333C4F2000344F2A332C4F200028E
:100AE0001278D2B242F00102D2B21A7044F2B33399
:100AF000C4F2000344F2B332C4F200021278D2B25C
:100B000042F00102D2B21A7044F60073C4F200033C
:100B100044F60072C4F200021278D2B242F001022E
:100B2000D2B21A70BD4680BC704700BF80B500AF1E
:100B300048F21C13C1F6FF731B78002B08D1FFF796
:100B400057FF48F21C13C1F6FF734FF001021A70F1
:100B5000FFF7BCFF80BD00BF80B483B000AF034689
:100B6000FB7144F60373C4F20003FA791A7007F1BB
:100B70000C07BD4680BC704780B582B000AF03460D
:100B8000FB8044F2A333C4F200031B78DBB203F012
:100B90000103002B0ED044F2A333C4F200031B78F0
:100BA000DBB203F00103002B14BF0023012318461E
:100BB000FFF716FE44F2A333C4F2000344F2A3325B
:100BC000C4F200021278D2B242F00102D2B21A701C
:100BD00044F60673C4F20003FA881A8044F2A33381
:100BE000C4F2000344F2A332C4F200021278D2B27B
:100BF00002F0FE021A7007F10807BD4680BD00BF73
:100C000080B483B000AF0346FB8044F60473C4F2A3
:100C10000003FA881A8007F10C07BD4680BC7047B4
:100C200080B500AF00F048F840F64540C0F2000043
:100C300000F00EF84FF0070000F01EF800F030F85A
:100C400080BD00BF80B400AFBD4680BC704700BF10
:100C500080B485B000AF78604EF60853CEF2000342
:100C60001B68FB60FB6803F144037A681A6007F1B4
:100C70001407BD4680BC704780B483B000AF034604
:100C8000FB714EF20143CEF20003FA794FEA4212B1
:100C9000D2B21A7007F10C07BD4680BC704700BF86
:100CA00080B400AF4EF20013CEF200034FF0020208
:100CB0001A60BD4680BC704780B400AF4EF280130E
:100CC000CEF200034FF002021A60BD4680BC7047AE
:100CD00080B485B000AF4FF000037B604FF000039D
:100CE0003B6036E03B684FEA830303F190431B68A7
:100CF000BB60BB68FB73BB6823F0FF03BB6018E0FD
:100D00007B684FEA430303F1904303F138031B78F8
:100D10001A46BB6813441A467B684FEA430303F143
:100D2000904303F138035B7813707B6803F1010390
:100D30007B60FB7B002B0CBF00230123DBB2FA7B23
:100D400002F1FF32FA73002BDAD13B6803F10103A1
:100D50003B603B680D2BC5D907F11407BD4680BC2D
:100D6000704700BF80B584B000AF07F10803FB6097
:100D700044F28000C4F2000040F22B11C0F21901CD
:100D800000F09EF944F20033C4F200034FF0020277
:100D90001A7044F20003C4F200034FF008021A7004
:100DA00044F20023C4F200034FF003021A7044F22D
:100DB000A163C4F2000340F20812C4F600121278D4
:100DC000D2B21A7044F22223C4F200034FF0080298
:100DD0001A8044F22023C4F2000341F251021A8027
:100DE0004FF00003FB714FF01903BB601AE0FB7971
:100DF000DBB24FEA4303DAB244F22523C4F2000324
:100E00001B78DBB203F0010342EA0303DBB203F019
:100E10000303FB714FF4F07000F042F9BB6803F17B
:100E2000FF33BB60FB681B68002B03D0FB79DBB290
:100E3000032BDCD144F20403C4F200034FF48072AC
:100E40001A8044F20403C4F200034FF007021A7040
:100E500044F20603C4F200034FF000021A7044F299
:100E60000803C4F200034FF048021A7044F204036E
:100E7000C4F200034FF000021A7044F20103C4F2FE
:100E800000034FF002021A7044F2A233C4F20003CE
:100E900044F2A232C4F200021278D2B242F001024D
:100EA000D2B21A7007F11007BD4680BD80B483B07E
:100EB00000AF40F2CF13C4F600131B78FB7145F668
:100EC0006E03C4F20003FA7902F007021A7045F6C5
:100ED0006F03C4F20003FA794FEA1212D2B21A7009
:100EE00045F67603C4F200034FF044021A7007F18E
:100EF0000C07BD4680BC704780B582B000AF72B6AB
:100F000044F2E863C4F2000344F2E862C4F200026F
:100F10001278D2B242F00402D2B21A704FF000033B
:100F2000FB7031E0FA7813464FEA430313444FEA6B
:100F300043031A4641F20843C0F2000313447B60A6
:100F40007B681A7859784FEA012141EA02029978C0
:100F50004FEA014141EA0202DB784FEA036343EAC8
:100F600002031A467B6819795B794FEA032343EA47
:100F700001039BB210464FF000011A4600F08EF9B3
:100F8000FB7803F10103FB70FB78092BCAD9FFF74B
:100F90009FFE45F20303C4F2010345F20302C4F2CB
:100FA00001021278D2B242F00202D2B21A7045F2B5
:100FB0001303C4F2010345F21302C4F201021278D2
:100FC000D2B242F00202D2B21A7044F2A033C4F29A
:100FD000000344F2A032C4F200021278D2B242F00E
:100FE0004002D2B21A7044F2C233C4F2000344F297
:100FF000C232C4F200021278D2B242F01002D2B26F
:101000001A7045F22210C4F2000040F2E801C4F662
:1010100000014FF0080200F079F845F26010C4F2C8
:10102000000040F2F001C4F600014FF00A0200F0A7
:101030006DF844F22233C4F2000344F22232C4F2C7
:1010400000021278D2B242F00802D2B21A7044F60C
:101050000003C4F200034FF001021A70FFF782FE92
:1010600044F60003C4F200036FF07E021A7040F2EF
:101070000403C4F208034FF001021A70FFF716FFD1
:1010800044F2B030C4F2000044F2A031C4F20001D6
:101090004FF00E0200F03AF807F10807BD4680BD98
:1010A0000230800803D000BF01380046FCD17047F1
:1010B000EFF3108072B6704780F31088704700BF5E
:1010C00080B483B000AF786039603B68DAB27B6887
:1010D0001A707B6803F101037B603B684FEA1323BE
:1010E0003B603B68DAB27B681A707B6803F10103EE
:1010F0007B603B684FEA13233B603B68DAB27B6856
:101100001A7007F10C07BD4680BC7047032A2DE911
:10111000F0070BD83AB1002311F803C000F803C060
:1011200001339342F8D1BDE8F007704782180C46AE
:10113000034603E014F8011C03F8011C03F0030646
:101140001946A44601330134002EF3D11CF00304E8
:10115000634608BFC1EB020C68D06542C4F1040AC3
:101160000CEB050733464FEACA0A5CF805604FEA04
:10117000C408551A08E057F8044F264604FA0AF442
:1011800049EA0404CC5004335C18032D26FA08F90C
:10119000A5F104050CEB0306EDDC002302E0F15C95
:1011A000E154013319199142F9D3BCE753F8404C8B
:1011B00041F8404C53F83C4C41F83C4C53F8384C07
:1011C00041F8384C53F8344C41F8344C53F8304C17
:1011D00041F8304C53F82C4C41F82C4C53F8284C27
:1011E00041F8284C53F8244C41F8244C53F8204C37
:1011F00041F8204C53F81C4C41F81C4C53F8184C47
:1012000041F8184C53F8144C41F8144C53F8104C56
:1012100041F8104C53F80C4C41F80C4C53F8084C66
:1012200041F8084C53F8044C41F8044C1C460D4658
:1012300040334031BCF13F0FACF1400CB6DC2146ED
:101240002B46541B0FE051F8105C43F8105C51F82A
:101250000C5C43F80C5C51F8085C43F8085C51F8EE
:10126000045C43F8045C0F2C0D469C4601F1100110
:1012700003F11003A4F11004E5DCCCEB0201002320
:1012800003E0EC584CF8034004335E19032903EBE8
:101290000C04A1F10401F4DC7FE700BF032AC9B20A
:1012A00030B407D822B10023C15401339342FBD19B
:1012B00030BC704700EB020C034601E003F8011C50
:1012C00003F003041A460133002CF7D14FF0013329
:1012D000C2EB0C0403FB01F31FE042F8403C42F870
:1012E0003C3C42F8383C42F8343C42F8303C42F84E
:1012F0002C3C42F8283C42F8243C42F8203C42F87E
:101300001C3C42F8183C42F8143C42F8103C42F8AD
:101310000C3C42F8083C42F8043C154640323F2C55
:10132000A4F14004D9DC2A46C5EB0C0407E042F8DE
:10133000103C42F80C3C42F8083C42F8043C15468C
:1013400010320F2CA4F11004F1DC2A46C5EB0C0579
:1013500001E042F8043C14460432032DA5F10405D3
:10136000F7DC01E004F8011B6445FBD3A0E700BFF4
:1013700008B500F017F8074800B10068064901B148
:1013800009680022FEF70EFF044B0BB1AFF300809B
:10139000FEE700BF000000000000000000000000A9
:1013A000FEE7000070B541F2504641F25045C0F2F0
:1013B0000006C0F20005761BB61006D0002455F8D2
:1013C000243001349847A642F9D841F2504541F201
:1013D0005846C0F20005C0F20006761B00F032F855
:1013E000B61006D0002455F8243001349847A642A0
:0413F000F9D870BDFB
:1013F4004F6E20004F6666004C4544207374617440
:1014040075733A00004F00400C000051004020006A
:10141400305100403000C05100401000F0510040F5
:1014240010000000014000100014014000080040BA
:101434000140000A004C014000020050014020001D
:10144400F8B500BFF8BC08BC9E46704731010000E7
:1014540005020000F8B500BFF8BC08BC9E46704702
:101464001D01000000000000801400000080FF1F28
:0C1474001801000008000000000000004B
:10148000000000000000000000000000000000005C
:10149000000000000000000000000000000000004C
:1014A000000000000000000000000000000000003C
:1014B000000000000000000000000000000000002C
:1014C000000000000000000000000000000000001C
:1014D000000000000000000000000000000000000C
:1014E00000000000000000000000000000000000FC
:1014F00000000000000000000000000000000000EC
:1015000000000000000000000000000000000000DB
:1015100000000000000000000000000000000000CB
:1015200000000000000000000000000000000000BB
:1015300000000000000000000000000000000000AB
:10154000000000000000000000000000000000009B
:10155000000000000000000000000000000000008B
:10156000000000000000000000000000000000007B
:10157000000000000000000000000000000000006B
:101580000000000000366E01C05D00001800000081
:081590000000E02E0000000045
:04000003000001E117
:00000001FF
