:10000000008000204114000085BD000085BD000077
:1000100085BD000085BD000085BD000085BD0000D8
:1000200085BD000085BD000085BD000085BD0000C8
:1000300085BD000085BD000085BD000085BD0000B8
:1000400085BD000085BD000085BD000085BD0000A8
:1000500085BD000085BD000085BD000085BD000098
:1000600085BD000085BD000085BD000085BD000088
:1000700085BD000085BD000085BD000085BD000078
:1000800085BD000085BD000085BD000085BD000068
:1000900085BD000085BD000085BD000085BD000058
:1000A00085BD000085BD000085BD000085BD000048
:1000B00085BD000085BD000085BD000085BD000038
:1000C00080B51448144B21E05C689968DD688C4267
:1000D0000CD0002205E0A6180832D6E9008941E9D3
:1000E00002898C460831AA42F5D101E004EB050CE7
:1000F0001C696146002204E008320026002741E91D
:1001000002670831A242F7D1143301380028DBD14D
:100110000BF0DEFD0100000038C5000048F2B063BE
:10012000C1F6FF731A780AB901201870704700BF32
:1001300048F20010C1F6FF7008B503682BB140F219
:100140000003C0F2000303B1984708BD80B584B036
:1001500000AF78607B68002B02DA4FF000037B6011
:100160004BF6F053C0F200031B687A689A4205DD33
:100170004BF6F053C0F200031B687B6048F2A87393
:10018000C1F6FF737A681A6048F2A873C1F6FF736C
:100190001B689BB2184601F06DFD4FF001004FF057
:1001A000000101F019FA48F2A873C1F6FF731B6849
:1001B00007F10C0210464BF60861C0F200011A4626
:1001C00003F0C4FB07F10C03184601F03FFA07F1F6
:1001D0001007BD4680BD00BF80B58AB000AF4FF0AC
:1001E00000024FF00003C7E9002348F20473C1F690
:1001F000FF731B68002B04D14FF000024FF0000387
:1002000074E04FF00003FB6017E0FA6848F67403EF
:10021000C1F6FF7353F82230184602F03DFF024644
:100220000B46D7E9000102F0EBFD02460B46C7E999
:100230000023FB6803F10103FB60FB68022BE4DD94
:1002400048F20473C1F6FF731B68184602F024FFDE
:1002500002460B46D7E9000103F0AEF802460B4612
:10026000C7E904234BF6F453C0F200031B68184699
:1002700002F012FF02460B4610461946D7E9042346
:1002800003F09AF802460B46C7E906234BF60063D3
:10029000C0F20003D3E900231046194616A3D3E9A0
:1002A000002302F05FFF02460B46104619464FF04E
:1002B00000024FF0804303F5A01303F07DF80246DF
:1002C0000B4610461946D7E9062302F04BFF0246BB
:1002D0000B46104619460AA3D3E9002302F042FF59
:1002E00002460B46C7E90823D7E9082310461946FA
:1002F00007F12807BD4680BD182D4454FB21094055
:10030000555555555555B53FB0B59EB010AFC7E9D9
:10031000000148F21813C1F6FF73D3E90023C7E9BF
:1003200002234FF000024FF00003C7E904234FF00F
:1003300000024FF00003C7E9062348F21813C1F684
:10034000FF73D3E900231046194602F059FD024617
:100350000B46C7E9082348F2D863C1F6FF731B6850
:10036000002B7AD048F22813C1F6FF73D3E90001BD
:1003700048F2C863C1F6FF73D3E9002302F03EFDE3
:1003800002460B46C7E9042348F23013C1F6FF7357
:10039000D3E9000148F2D063C1F6FF73D3E900232B
:1003A00002F02CFD02460B46C7E906234FF000037E
:1003B0001C46D7E904014FF000024FF0000303F0A0
:1003C00061F90346002B02D04FF001031C46E3B253
:1003D000002B42D04FF000031C46D7E906014FF036
:1003E00000024FF0000303F039F90346002B02D05E
:1003F0004FF001031C46E3B2002B04D0D7E90823D9
:10040000C7E9022329E0D7E90401D7E9062302F06E
:10041000D3FF02460B46C7E902234FF000031C46F8
:10042000D7E90201D7E9082303F02CF90346002B92
:1004300002D04FF001031C46E3B2002B0DD048F26E
:100440001813C1F6FF73D3E900231046194602F0D2
:10045000D7FC02460B46C7E90223D7E90201D7E9D8
:10046000002302F0CBFC02460B46C7E90A2348F200
:10047000C063C1F6FF731A6848F25873C1F6FF7380
:100480004FEAC20202EB0301D7E90A23C1E90023C4
:1004900048F2C063C1F6FF731A6848F25873C1F698
:1004A000FF734FEAC2021344D3E9000148F2C46368
:1004B000C1F6FF731A6848F25873C1F6FF734FEA2A
:1004C000C2021344D3E9002302F098FC02460B4613
:1004D000104619464FF000024FF0804303F5101309
:1004E00002F06AFF02460B46C7E90C2348F2C063DC
:1004F000C1F6FF731B6803F1010146F26763C6F2A0
:10050000666383FB01234FEAA3024FEAE173C3EB67
:10051000020213464FEA830313444FEA4303C3EB3B
:10052000010248F2C063C1F6FF731A6048F2C0636B
:10053000C1F6FF731A6848F2C463C1F6FF731B6803
:100540009A421FD148F2C463C1F6FF731B6803F1DE
:10055000010146F26763C6F2666383FB01234FEA3B
:10056000A3024FEAE173C3EB020213464FEA83038F
:1005700013444FEA4303C3EB010248F2C463C1F6DC
:10058000FF731A6048F2B863C1F6FF73D3E9002322
:1005900010461946D7E90A2302F032FC02460B4600
:1005A0001046194648F2B863C1F6FF73C3E900016B
:1005B00048F2A873C1F6FF73D3F800C048F2B863DD
:1005C000C1F6FF73D3E9000148F2C863C1F6FF73B7
:1005D000D3E90023D7E90045CDE90045D7E90A452D
:1005E000CDE90245CDE90401D7E90C01CDE90601C9
:1005F000CDE90823D7E90223CDE90A23D7E904236B
:10060000CDE90C23D7E90623CDE90E2348F2AC70DF
:10061000C1F6FF704BF60C61C0F20001624603F0B8
:1006200095F948F2AC70C1F6FF7001F049FC48F250
:100630003813C1F6FF73D3E9002310461946D7E9F2
:100640000A2302F08FFD02460B4614461D4648F26F
:10065000B863C1F6FF73D3E9000148F24013C1F655
:10066000FF73D3E9002302F07DFD02460B462046CE
:10067000294602F0C5FB02460B4614461D4648F2C9
:100680004813C1F6FF73D3E9002310461946D7E992
:100690000C2302F067FD02460B462046294602F075
:1006A000ADFB02460B461046194602F0F5FF024626
:1006B00048F22013C1F6FF731B681344184607F174
:1006C0003807BD46B0BD00BF80B500AF48F2FC633F
:1006D000C1F6FF731B68002B06D04BF64C60C0F2CE
:1006E000000001F0EDFB75E001F0AAFB03461A469D
:1006F00048F25073C1F6FF731A7048F25073C1F696
:10070000FF731B780A2B0DD048F25073C1F6FF73AC
:100710001B780D2B06D048F25073C1F6FF731B787F
:10072000042B13D148F2FC63C1F6FF734FF00102B2
:100730001A604FF0240001F0A9FB48F25073C1F693
:10074000FF731B78184601F0A1FB43E048F2507399
:10075000C1F6FF731B78002B38D048F2F863C1F65E
:10076000FF731B68642B0DD148F2FC63C1F6FF7365
:100770004FF001021A604BF66460C0F2000001F015
:100780009FFB27E048F2F863C1F6FF731A6848F24E
:100790005073C1F6FF73197848F61003C1F6FF7362
:1007A000995448F2F863C1F6FF731B6803F1010224
:1007B00048F2F863C1F6FF731A6048F25073C1F64D
:1007C000FF731B78184601F061FB03E04FF0210036
:1007D00001F05CFB80BD00BF80B500AF48F2DC6378
:1007E000C1F6FF731B68002B0AD100F0BBFB00F0C1
:1007F000E9FB48F2DC63C1F6FF734FF001021A60B7
:1008000048F2C863C1F6FF734FF000004FF00001DB
:10081000C3E9000148F2E063C1F6FF734FF0010243
:100820001A6048F2D063C1F6FF734FF000004FF03A
:100830000001C3E900014BF67860C0F2000001F04E
:100840003FFB80BD80B500AF4FF00000FFF77EFC9E
:1008500048F2DC63C1F6FF734FF000021A604BF6FA
:100860009C60C0F2000001F02BFB80BD2DE9F0433D
:1008700095B008AF07F1280348F61000C1F6FF70E5
:100880004BF6B861C0F200011A4603F0D7F80346F0
:10089000012B40F0108307F12803184603F0EAF912
:1008A0000346FB6207F1280318464BF6C461C0F209
:1008B000000103F0F1F80346002B3ED14FF0000396
:1008C0007B62FA6A48F61003C1F6FF731A4407F117
:1008D000240310464BF6C861C0F200011A4603F02B
:1008E000ADF80346002B11DD48F2DC63C1F6FF735F
:1008F0001B68002B04D17B6A1846FFF727FC05E034
:100900004BF6CC60C0F2000001F0DAFA48F2A873AE
:10091000C1F6FF731B6848F2AC70C1F6FF704BF66E
:10092000F461C0F200011A4603F010F848F2AC700E
:10093000C1F6FF7001F0C4FABDE207F128031846C2
:100940004BF60471C0F2000103F0A6F80346002B39
:1009500034D148F2A873C1F6FF731E68FFF73CFC60
:100960008046894648F23813C1F6FF73D3E9004543
:1009700048F24013C1F6FF73D3E9000148F248136F
:10098000C1F6FF73D3E90023CDE90089CDE9024523
:10099000CDE90401CDE9062348F2AC70C1F6FF7041
:1009A0004BF60871C0F20001324602F0CFFF48F268
:1009B000AC70C1F6FF7001F083FA7CE207F1280306
:1009C00018464BF64071C0F2000103F065F803468B
:1009D000002B3AD148F2DC63C1F6FF731B68002B91
:1009E00014BF0022012248F2DC63C1F6FF731A60D3
:1009F00048F2DC63C1F6FF731B68002B1ED000F0C9
:100A0000B1FA00F0DFFA48F2C863C1F6FF734FF0A5
:100A100000004FF00001C3E9000148F2D063C1F6C5
:100A2000FF734FF000004FF00001C3E900014BF6E7
:100A30004470C0F2000001F043FA3CE24BF65470FF
:100A4000C0F2000001F03CFA35E207F12803184635
:100A50004BF66871C0F2000103F01EF80346002B4C
:100A600002D1FFF7B9FE26E207F1280318464BF63C
:100A70006C71C0F2000103F00FF80346002B30D177
:100A800048F2D863C1F6FF731B68002B14BF002225
:100A9000012248F2D863C1F6FF731A6048F2DC63A2
:100AA000C1F6FF731B68002B14D148F2D863C1F65E
:100AB000FF731B68002B06D04BF67070C0F200006D
:100AC00001F0FEF9F7E14BF68C70C0F2000001F086
:100AD000F7F9F0E14BF6A870C0F2000001F0F0F970
:100AE000E9E107F1280318464BF6DC71C0F200017A
:100AF00002F0D2FF0346002B36D14FF000033B62D9
:100B0000FA6A48F61003C1F6FF731A4407F120038E
:100B100010464BF6C861C0F200011A4602F08EFF83
:100B20000346002B09DD3B6A184602F0B5FA48F28D
:100B30003813C1F6FF73C3E9000148F23813C1F658
:100B4000FF73D3E9002348F2AC70C1F6FF704BF697
:100B5000E071C0F2000102F0F9FE48F2AC70C1F69B
:100B6000FF7001F0ADF9A6E107F1280318464BF636
:100B7000EC71C0F2000102F08FFF0346002B37D169
:100B80004FF000024FF00003C7E90623FA6A48F667
:100B90001003C1F6FF731A4407F1180310464BF611
:100BA000F071C0F200011A4602F048FF0346002B24
:100BB00007DDD7E9060148F24013C1F6FF73C3E928
:100BC000000148F24013C1F6FF73D3E9002348F255
:100BD000AC70C1F6FF704BF6F471C0F2000102F088
:100BE000B5FE48F2AC70C1F6FF7001F069F962E140
:100BF00007F1280318464CF20001C0F2000102F090
:100C00004BFF0346002B36D14FF000037B61FA6A9D
:100C100048F61003C1F6FF731A4407F11403104697
:100C20004BF6C861C0F200011A4602F007FF034606
:100C3000002B09DD7B69184602F02EFA48F24813B2
:100C4000C1F6FF73C3E9000148F24813C1F6FF7310
:100C5000D3E9002348F2AC70C1F6FF704CF20401F6
:100C6000C0F2000102F072FE48F2AC70C1F6FF70F3
:100C700001F026F91FE107F1280318464CF2100194
:100C8000C0F2000102F008FF0346002B32D14FF002
:100C900000033B61FA6A48F61003C1F6FF731A4479
:100CA00007F1100310464BF6C861C0F200011A4666
:100CB00002F0C4FE0346002B05DD3A6948F220131A
:100CC000C1F6FF731A6048F22013C1F6FF731B6868
:100CD00048F2AC70C1F6FF704CF21401C0F2000192
:100CE0001A4602F033FE48F2AC70C1F6FF7001F014
:100CF000E7F8E0E007F1280318464CF22801C0F2BB
:100D0000000102F0C9FE0346002B5DD14FF0000246
:100D10004FF00003C7E90223FA6A48F61003C1F650
:100D2000FF731A4407F1080310464BF6F071C0F246
:100D300000011A4602F082FE0346002B2DDD48F228
:100D4000DC63C1F6FF731B68002B20D1D7E90201D9
:100D500048F21813C1F6FF73C3E9000148F22813E3
:100D6000C1F6FF73D3E9000148F21813C1F6FF730F
:100D7000D3E9002302F020FB02460B461046194639
:100D800048F23013C1F6FF73C3E9000105E04CF2ED
:100D90002C00C0F2000001F093F848F21813C1F6DD
:100DA000FF73D3E9002348F2AC70C1F6FF704CF238
:100DB0005801C0F2000102F0C9FD48F2AC70C1F662
:100DC000FF7001F07DF876E007F1280318464CF239
:100DD0007001C0F2000102F05FFE0346002B5CD1FF
:100DE0004FF000024FF00003C7E90023FA6A48F60B
:100DF0001003C1F6FF731A443B4610464BF6F071E0
:100E0000C0F200011A4602F019FE0346002B2DDD48
:100E100048F2DC63C1F6FF731B68002B20D1D7E9D1
:100E2000000148F22813C1F6FF73C3E9000148F23C
:100E30002813C1F6FF73D3E9000148F21813C1F675
:100E4000FF73D3E9002302F0B7FA02460B461046BF
:100E5000194648F23013C1F6FF73C3E9000105E0FB
:100E60004CF27400C0F2000001F02AF848F2281396
:100E7000C1F6FF73D3E9002348F2AC70C1F6FF70EE
:100E80004CF2A401C0F2000102F060FD48F2AC7027
:100E9000C1F6FF7001F014F80DE007F128031846C1
:100EA0004CF2C001C0F2000102F0F6FD0346002B37
:100EB00001D1FFF7C7FC07F13407BD46BDE8F08359
:100EC00080B483B000AF4FF000037B600BE07A6822
:100ED00048F61003C1F6FF734FF0000199547B6888
:100EE00003F101037B6048F2F863C1F6FF731B68EE
:100EF0007A689A42EBDB48F2F863C1F6FF734FF071
:100F000000021A6007F10C07BD4680BC704700BFA5
:100F100080B483B000AF48F20073C1F6FF734FF0A6
:100F200000021A6048F20473C1F6FF734FF000022A
:100F30001A604FF000037B600CE07A6848F6740397
:100F4000C1F6FF734FF0000143F822107B6803F1F4
:100F500001037B607B68022BEFDD07F10C07BD46C8
:100F600080BC704780B483B000AF48F2C063C1F664
:100F7000FF734FF000021A6048F2C463C1F6FF73BA
:100F80004FF000021A604FF000037B6012E07A68B5
:100F900048F25873C1F6FF734FEAC20202EB030135
:100FA0004FF000024FF00003C1E900237B6803F11A
:100FB00001037B607B68092BE9DD07F10C07BD4667
:100FC00080BC704780B400AF48F2B863C1F6FF73CD
:100FD0004FF000004FF00001C3E90001BD4680BCA6
:100FE000704700BF80B400AF48F2E463C1F6FF73FE
:100FF0004FF001021A60BD4680BC704780B400AF5C
:1010000048F2E863C1F6FF734FF001021A60BD4673
:1010100080BC704780B400AF48F2EC63C1F6FF7348
:101020004FF001021A60BD4680BC704780B400AF2B
:1010300048F2F063C1F6FF734FF001021A60BD463B
:1010400080BC704780B400AF48F2F463C1F6FF7310
:101050004FF001021A60BD4680BC704700000000DE
:10106000B0B582B000AF62B600F0A0FA00F040FD6B
:1010700000F0E6FC40F6E570C0F2000000F0F8FC7D
:1010800000F05EFE00F03AFF40F6FD70C0F2000096
:1010900000F04CFF01F098F900F088FF41F21500D4
:1010A000C0F2000000F09AFF01F076F801F032FA89
:1010B00001F0D8F941F22D00C0F2000001F0EAF988
:1010C00001F034FB01F0ACFB41F24500C0F200003E
:1010D00001F0BEFB48F2A873C1F6FF734FF00002A7
:1010E0001A6048F2A873C1F6FF731B689BB21846DA
:1010F00000F0C0FD4FF000004FF0000100F06CFA6E
:1011000048F20810C1F6FF7000F0A0FAFFF7D8FE11
:10111000FFF7FEFEFFF726FF02E000BF00E000BF82
:1011200048F2E463C1F6FF731B68002B12D048F24B
:10113000DC63C1F6FF731B68002B02D0FFF782FB54
:1011400001E0FFF749FB48F2E463C1F6FF734FF09B
:1011500000021A6048F2E863C1F6FF731B68002BB7
:1011600008D0FFF7B1FA48F2E863C1F6FF734FF019
:1011700000021A6048F2FC63C1F6FF731B68002B83
:101180000AD0FFF773FBFFF79BFE48F2FC63C1F642
:10119000FF734FF000021A6048F2EC63C1F6FF7370
:1011A0001B68002B00F09A8001F046F903463B6073
:1011B00048F20873C1F6FF731A683B68C3EB020379
:1011C0007B607B68002B07DA4BF6FC53C0F2000310
:1011D0001A687B68134400E07B687B6048F2007308
:1011E000C1F6FF731A6848F67403C1F6FF73796895
:1011F00043F8221048F20073C1F6FF731B6803F135
:10120000010145F25653C5F2555383FB01024FEAE3
:10121000E173C3EB020213464FEA43031344C3EBEB
:10122000010248F20073C1F6FF731A6048F20473BA
:10123000C1F6FF731B68022B0BDC48F20473C1F686
:10124000FF731B6803F1010248F20473C1F6FF73D8
:101250001A6048F20873C1F6FF733A681A604BF6D9
:101260000063C0F20003D3E900231046194670A3BF
:10127000D3E9002301F076FF02460B4610461946DB
:101280006DA3D3E9002301F06DFF02460B46104623
:1012900019464FF000024FF0804303F5201302F08F
:1012A0008BF802460B461046194648F2C863C1F651
:1012B000FF73D3E9002301F0A3FD02460B4610465D
:1012C000194648F2C863C1F6FF73C3E9000148F24A
:1012D000EC63C1F6FF734FF000021A6048F2F0634E
:1012E000C1F6FF731B68002B10D04CF2C400C0F293
:1012F000000000F0E5FDFFF70BFEFFF733FE48F2BC
:10130000F063C1F6FF734FF000021A6048F2E06329
:10131000C1F6FF731B68002B38D048F2C863C1F6D2
:10132000FF73D3E9000148F22813C1F6FF73D3E934
:1013300000234FF0000C644602F09AF90346002B9C
:1013400002D04FF001031C46E3B2002B1ED0FFF782
:1013500079FA48F2E063C1F6FF734FF000021A60B9
:1013600048F2D063C1F6FF73D3E9002348F2AC70B2
:10137000C1F6FF704CF2D401C0F2000102F0E6FAAF
:1013800048F2AC70C1F6FF7000F09AFD48F2DC63E1
:10139000C1F6FF731B68002B3FF4BFAE48F2F46345
:1013A000C1F6FF731B68002B3FF4B9AE4BF6F85340
:1013B000C0F200031B68184601F06EFE04460D469D
:1013C0004BF6F453C0F200031B68184601F064FEAC
:1013D00002460B462046294601F0EEFF02460B4628
:1013E0001046194648F2D063C1F6FF73D3E90023D3
:1013F00001F006FD02460B461046194648F2D0633E
:10140000C1F6FF73C3E90001FEF7E6FE02460B4694
:1014100010461946FEF778FF03461846FEF796FE7B
:1014200048F2F463C1F6FF734FF000021A6077E6EA
:10143000182D4454FB2109409A9999999999C93FCB
:10144000054B1C7844F001041C70044B1A78D2B28E
:10145000034B1A70FEF734FEE8460040FA4600409F
:10146000BC76004080B582B000AF4EF60C53CEF291
:10147000000340F20042C0F2FA521A604EF61453D2
:10148000CEF200034EF61452CEF20002126842F47D
:1014900000721A604FF000037B6014E07A687B688A
:1014A0004FEA830140F20003C0F200030B441B68C3
:1014B000194648F20003C1F6FF7343F822107B6817
:1014C00003F101037B607B682F2BE7D947F2BC63F4
:1014D000C4F200031B78DAB248F68003C1F6FF734A
:1014E0001A704EF60853CEF2000348F20002C1F61D
:1014F000FF721A6001F014FB07F10807BD4680BDBA
:1015000080B500AF4FF0280000F0E2FB4FF0030081
:1015100000F050FA4FF0050000F0DAFB4FF0030046
:1015200000F048FA4FF00F0000F0D2FB4FF003003C
:1015300000F040FA4FF0010000F0CAFB4FF002004B
:1015400000F038FA4FF0050000F0C2FB4FF0060043
:1015500000F0B8F84FF00E0000F0B4F84FF02C0097
:1015600000F0B0F84FF0080000F0ACF84FF00100C8
:1015700000F0A8F84FF00C0000F0A4F84FF00300C2
:1015800000F0A0F84FF0050000F0A2FB80BD00BF06
:1015900080B500AF4FF00C0000F094F848F21073E3
:1015A000C1F6FF734FF001021A7080BD80B500AF25
:1015B00048F21173C1F6FF731B78002B08D1FFF7B7
:1015C0009FFF48F21173C1F6FF734FF001021A70CA
:1015D000FFF7DEFF80BD00BF80B582B000AF0246DE
:1015E0000B46FA71BB71FB79032B2AD801A252F882
:1015F00023F000BF05160000151600002516000098
:1016000035160000BB79A3F18003DBB2184600F069
:1016100059F816E0BB79A3F14003DBB2184600F09D
:1016200051F80EE0BB79A3F16C03DBB2184600F071
:1016300049F806E0BB79A3F12C03DBB2184600F0B1
:1016400041F807F10807BD4680BD00BF80B584B0F2
:1016500000AF78604FF00103BB737B681B78FB73AE
:101660000CE0FB7B184600F011F8BA7B7B68134452
:101670001B78FB73BB7B03F10103BB73FB7B002B6C
:10168000EFD107F11007BD4680BD00BF80B584B023
:1016900000AF0346FB7100F035F8FB794FEA1313F6
:1016A000FB73FB7B184600F02FF9FB7903F00F0367
:1016B000FB73FB7B184600F027F907F11007BD46C6
:1016C00080BD00BF80B584B000AF0346FB71FB79DD
:1016D0004FEA1313FB7300F015F8FB7B03F00F03C5
:1016E000FB73FB7B184600F065F9FB7903F00F03F1
:1016F000FB73FB7B184600F05DF907F11007BD4650
:1017000080BD00BF80B582B000AF4FF00003FB7119
:1017100045F22013C4F2000345F22012C4F2000285
:101720001278D2B202F080021A7045F22213C4F28B
:1017300000031B78DBB223F00F03FB7145F2221389
:10174000C4F20003FA7942F00F02D2B21A7045F2E5
:101750002313C4F200031B78DBB223F00F03FB71E9
:1017600045F22313C4F20003FA791A7045F22413E8
:10177000C4F200031B78DBB223F00F03FB7145F2C8
:101780002413C4F20003FA791A7045F22013C4F24C
:10179000000345F22012C4F200021278D2B202F025
:1017A000DF021A7045F22013C4F2000345F2201242
:1017B000C4F200021278D2B242F04002D2B21A70E1
:1017C0004FF0000000F0A8FA45F22013C4F2000325
:1017D00045F22012C4F200021278D2B242F0100296
:1017E000D2B21A704FF0010000F096FA45F22113C0
:1017F000C4F200031B78FB7145F22013C4F200030E
:1018000045F22012C4F200021278D2B202F0EF02C6
:101810001A704FF0000000F07FFAFB7903F0080324
:10182000FB7145F22013C4F2000345F22012C4F20A
:1018300000021278D2B242F01002D2B21A704FF007
:10184000010000F069FA45F22013C4F2000345F2EA
:101850002012C4F200021278D2B202F0EF021A7023
:10186000FB79002BACD145F22013C4F2000345F202
:101870002012C4F200021278D2B202F0BF021A7033
:1018800045F22013C4F2000345F22012C4F2000214
:101890001278D2B202F080021A7045F22213C4F21A
:1018A00000031B78DBB223F00F03FB7145F2221318
:1018B000C4F20003FA791A7045F22313C4F200034C
:1018C0001B78DBB223F00F03FB7145F22313C4F244
:1018D0000003FA7942F00F02D2B21A7045F22413D3
:1018E000C4F200031B78DBB223F00F03FB7145F257
:1018F0002413C4F20003FA7942F00F02D2B21A7034
:1019000007F10807BD4680BD80B582B000AF034631
:10191000FB71FFF7F7FE45F22013C4F2000345F216
:101920002012C4F200021278D2B242F02002D2B2E7
:101930001A7045F22013C4F2000345F22012C4F2DB
:1019400000021278D2B202F0BF021A7045F22013E0
:10195000C4F2000345F22012C4F200021278D2B29F
:1019600002F0F0021A7045F22013C4F2000345F2AF
:101970002012C4F200021278D1B2FA7941EA0202CE
:10198000D2B242F01002D2B21A704FF0010000F051
:10199000C3F945F22013C4F2000345F22012C4F249
:1019A00000021278D2B202F0EF021A7007F10807B3
:1019B000BD4680BD80B582B000AF0346FB7145F2E5
:1019C0002013C4F2000345F22012C4F20002127880
:1019D000D2B202F09F021A7045F22013C4F2000343
:1019E00045F22012C4F200021278D2B202F0F002E4
:1019F0001A7045F22013C4F2000345F22012C4F21B
:101A000000021278D1B2FA7941EA0202D2B242F06F
:101A10001002D2B21A704FF0010000F07DF945F2C9
:101A20002013C4F2000345F22012C4F2000212781F
:101A3000D2B202F0EF021A7007F10807BD4680BD6E
:101A400080B500AF00F048F841F66520C0F2000014
:101A500000F00EF84FF0070000F01EF800F030F82C
:101A600080BD00BF80B400AFBD4680BC704700BFE2
:101A700080B485B000AF78604EF60853CEF2000314
:101A80001B68FB60FB6803F140037A681A6007F18A
:101A90001407BD4680BC704780B483B000AF0346D6
:101AA000FB714EF20043CEF20003FA794FEA421284
:101AB000D2B21A7007F10C07BD4680BC704700BF58
:101AC00080B400AF4EF20013CEF200034FF00102DB
:101AD0001A60BD4680BC704780B400AF4EF28013E0
:101AE000CEF200034FF001021A60BD4680BC704781
:101AF00080B500AF48F21273C1F6FF731B78002B5C
:101B000008D100F00BF848F21273C1F6FF734FF0E2
:101B100001021A7000F062F880BD00BF80B582B08B
:101B200000AF46F27543C4F200031B78DBB223F02A
:101B30003F03BB7146F27543C4F20003BA7942F029
:101B40000902D2B21A7046F29443C4F2000346F27C
:101B50009442C4F200021278D2B242F00102D2B230
:101B60001A7046F29543C4F2000346F29542C4F25D
:101B700000021278D2B242F00102D2B21A7040F2E0
:101B8000E73000F041F840F2E73000F063F84FF042
:101B9000000000F06FF846F28543C4F200034FF0F6
:101BA00000021A7000F080F80346FB7146F295437C
:101BB000C4F2000346F29542C4F200021278D2B297
:101BC00042F01002D2B21A70FB79184600F070F899
:101BD00000F02AF807F10807BD4680BD80B400AFC9
:101BE00046F27543C4F2000346F27542C4F20002A5
:101BF0001278D2B26FEA42626FEA5262D2B21A70BF
:101C0000BD4680BC704700BF80B483B000AF0346C0
:101C1000FB8046F20443C4F20003FA881A8007F1FD
:101C20000C07BD4680BC704780B400AF04E046F2AC
:101C30005443C4F200031B8846F26543C4F2000318
:101C40001B78DBB203F01003002BF0D1BD4680BC43
:101C5000704700BF80B483B000AF0346FB8046F2FC
:101C60004443C4F20003FA881A8007F10C07BD460A
:101C700080BC704780B483B000AF0346FB8046F25F
:101C80002443C4F20003FA881A8007F10C07BD460A
:101C900080BC7047000000000230800803D000BF05
:101CA00001380046FCD17047EFF3108072B67047E0
:101CB00080F31088704700BF80B483B000AF034644
:101CC000FB7101BE07F10C07BD4680BC704700BF29
:101CD00080B582B000AF78600BE048F25C13C1F6CB
:101CE000FF731B681846FFF7D7FF7B68A3F5004317
:101CF0007B607B68B3F5004FEFD848F25413C1F610
:101D0000FF731B687A6802FB03F31846FFF7C4FFF2
:101D100007F10807BD4680BD80B582B000AF03461D
:101D2000FB80FA8848F25813C1F6FF731B7803FB57
:101D300002F31846FFF7B0FF07F10807BD4680BD64
:101D400080B500AF48F21373C1F6FF731B78002B08
:101D500008D100F00BF848F21373C1F6FF734FF08F
:101D600001021A7000F024F880BD00BF80B400AFFB
:101D700046F28743C4F200034FF020021A7046F285
:101D80002653C4F200034FF007021A7046F236538E
:101D9000C4F200034FF048021A7046F28443C4F2C2
:101DA00000034FF000021A70BD4680BC704700BFB0
:101DB00080B582B000AFFFF777FF0346FB7146F2B4
:101DC0009753C4F2000346F29752C4F2000212780D
:101DD000D2B242F02002D2B21A7046F29743C4F255
:101DE000000346F29742C4F200021278D2B242F0E7
:101DF0001002D2B21A7046F29443C4F2000346F2C3
:101E00009442C4F200021278D2B242F01002D2B26E
:101E10001A7044F2A233C4F2000344F2A232C4F2B4
:101E200000021278D2B242F00102D2B21A70FB79EB
:101E30001846FFF73DFF07F10807BD4680BD00BF0C
:101E400080B483B000AF4FF00003BB7146F267432C
:101E5000C4F200031B78FB71FB7903F02003002B15
:101E60000DD046F24753C4F200031B78BB71FB79D7
:101E700003F01E03002B02D04FF00003BB71BB79AF
:101E8000184607F10C07BD4680BC704780B483B08C
:101E900000AF0346FB7146F26443C4F200031B78B3
:101EA000DBB203F00403002BF5D146F24743C4F242
:101EB0000003FA791A7007F10C07BD4680BC704721
:101EC00080B582B000AF786048F21373C1F6FF733B
:101ED0001B78002B0DD008E07B681B787A6802F134
:101EE00001027A601846FFF7D1FF7B681B78002B50
:101EF000F2D107F10807BD4680BD00BF80B500AF35
:101F000000F048F841F62170C0F2000000F00EF831
:101F10004FF0070000F01EF800F030F880BD00BF61
:101F200080B400AFBD4680BC704700BF80B485B0B0
:101F300000AF78604EF60853CEF200031B68FB60DA
:101F4000FB6803F144037A681A6007F11407BD4681
:101F500080BC704780B483B000AF0346FB714EF283
:101F60000143CEF20003FA794FEA4212D2B21A705C
:101F700007F10C07BD4680BC704700BF80B400AFBE
:101F80004EF20013CEF200034FF002021A60BD467B
:101F900080BC704780B400AF4EF28013CEF20003D5
:101FA0004FF002021A60BD4680BC704780B500AF9A
:101FB00000F048F841F6D170C0F2000000F00EF8D1
:101FC0004FF0070000F01EF800F030F880BD00BFB1
:101FD00080B400AFBD4680BC704700BF80B485B000
:101FE00000AF78604EF60853CEF200031B68FB602A
:101FF000FB6803F14C037A681A6007F11407BD46C9
:1020000080BC704780B483B000AF0346FB714EF2D2
:102010000343CEF20003FA794FEA4212D2B21A70A9
:1020200007F10C07BD4680BC704700BF80B400AF0D
:102030004EF20013CEF200034FF008021A60BD46C4
:1020400080BC704780B400AF4EF28013CEF2000324
:102050004FF008021A60BD4680BC704780B500AFE3
:1020600044F60073C4F2000344F60072C4F20002A6
:102070001278D2B202F001021A7044F60273C4F26E
:10208000000344F60272C4F200021278D2B202F0E7
:10209000FC021A7044F60173C4F2000344F60172A4
:1020A000C4F200021278D2B242F00102D2B21A7027
:1020B00044F60B73C4F2000344F60B72C4F2000240
:1020C0001278D2B202F0CF021A7044F60B73C4F247
:1020D000000344F60B72C4F200021278D2B242F04E
:1020E0003002D2B21A7044F60B73C4F2000344F605
:1020F0000B72C4F200021278D2B202F0F0021A702F
:1021000044F60B73C4F2000344F60B72C4F20002EF
:102110001278D2B242F00F02D2B21A7044F62060A6
:1021200000F0A4F844F6206000F05CF84FF00800DE
:1021300000F048F880BD00BF80B400AF44F2A33384
:10214000C4F2000344F2A332C4F200021278D2B205
:1021500042F00102D2B21A7044F2B333C4F2000367
:1021600044F2B332C4F200021278D2B242F0010259
:10217000D2B21A7044F60073C4F2000344F600723F
:10218000C4F200021278D2B242F00102D2B21A7046
:10219000BD4680BC704700BF80B500AF48F21573E4
:1021A000C1F6FF731B78002B08D1FFF757FF48F2E9
:1021B0001573C1F6FF734FF001021A70FFF7BCFFF1
:1021C00080BD00BF80B483B000AF0346FB7144F60E
:1021D0000373C4F20003FA791A7007F10C07BD46C5
:1021E00080BC704780B582B000AF0346FB8044F2EC
:1021F000A333C4F200031B78DBB203F00103002B0E
:102200000ED044F2A333C4F200031B78DBB203F018
:102210000103002B14BF002301231846FFF74CFDD8
:1022200044F2A333C4F2000344F2A332C4F2000226
:102230001278D2B242F00102D2B21A7044F606739A
:10224000C4F20003FA881A8044F2A333C4F20003F4
:1022500044F2A332C4F200021278D2B202F0FE02BB
:102260001A7007F10807BD4680BD00BF80B483B077
:1022700000AF0346FB8044F60473C4F20003FA88FF
:102280001A8007F10C07BD4680BC704780B500AFCF
:1022900044F61873C4F2000344F61872C4F2000244
:1022A0001278D2B202F001021A7044F61A73C4F224
:1022B000000344F61A72C4F200021278D2B202F09D
:1022C000FC021A7044F62373C4F2000344F623722E
:1022D000C4F200021278D2B202F0CF021A7044F6B1
:1022E0002373C4F2000344F62372C4F2000212788E
:1022F000D2B242F03002D2B21A7044F62373C4F262
:10230000000344F62372C4F200021278D2B202F043
:10231000F0021A7044F62373C4F2000344F62372E9
:10232000C4F200021278D2B242F00F02D2B21A7096
:1023300044F61973C4F2000344F61972C4F20002A1
:102340001278D2B242F00102D2B21A704FF6FF7088
:1023500000F060F84FF6FF7000F07AF84FF00000E0
:1023600000F048F880BD00BF80B400AF44F2A33352
:10237000C4F2000344F2A332C4F200021278D2B2D3
:1023800042F00402D2B21A7044F2B333C4F2000332
:1023900044F2B332C4F200021278D2B242F0040224
:1023A000D2B21A7044F61873C4F2000344F61872DD
:1023B000C4F200021278D2B242F00102D2B21A7014
:1023C000BD4680BC704700BF80B500AF48F21673B1
:1023D000C1F6FF731B78002B08D1FFF757FF48F2B7
:1023E0001673C1F6FF734FF001021A70FFF7BCFFBE
:1023F00080BD00BF80B483B000AF0346FB7144F6DC
:102400001B73C4F20003FA791A7007F10C07BD467A
:1024100080BC704780B485B000AF0346FB80FB886A
:10242000FB8144F61C73C4F20003FA891A8007F199
:102430001407BD4680BC704780B400AF44F62073DB
:10244000C4F200031B889BB21846BD4680BC70478F
:1024500080B483B000AF0346FB8007F10C07BD4694
:1024600080BC704780B500AF00F048F842F2894068
:10247000C0F2000000F00EF84FF0070000F01EF868
:1024800000F030F880BD00BF80B400AFBD4680BC16
:10249000704700BF80B485B000AF78604EF6085337
:1024A000CEF200031B68FB60FB6803F148037A6807
:1024B0001A6007F11407BD4680BC704780B483B032
:1024C00000AF0346FB714EF20243CEF20003FA79ED
:1024D0004FEA4212D2B21A7007F10C07BD4680BC17
:1024E000704700BF80B400AF4EF20013CEF200037D
:1024F0004FF004021A60BD4680BC704780B400AF44
:102500004EF28013CEF200034FF004021A60BD4673
:1025100080BC704780B500AF48F21773C1F6FF73F7
:102520001B78002B08D100F01FF848F21773C1F692
:10253000FF734FF001021A7000F002F880BD00BF77
:1025400080B500AF46F27453C4F2000346F27452F1
:10255000C4F200021278D2B242F00102D2B21A7072
:1025600000F00AF880BD00BF80B500AF4FF000005A
:1025700000F020F880BD00BF80B582B000AFFFF74B
:1025800093FB0346FB7146F29453C4F2000346F2F8
:102590009452C4F200021278D2B242F01002D2B2C7
:1025A0001A70FB791846FFF783FB07F10807BD4651
:1025B00080BD00BF80B483B000AF0346FB7146F21C
:1025C0008453C4F2000346F28452C4F2000212782B
:1025D000D2B2114601F0F801FA7902F0070241EA9D
:1025E0000202D2B21A7007F10C07BD4680BC7047D8
:1025F00080B500AF44F60C73C4F2000344F60C72CD
:10260000C4F200021278D2B202F001021A7044F64B
:102610000E73C4F2000344F60E72C4F20002127884
:10262000D2B202F0FC021A7044F60D73C4F2000339
:1026300044F60D72C4F200021278D2B242F00102E6
:10264000D2B21A7044F61773C4F2000344F617723C
:10265000C4F200021278D2B202F0CF021A7044F62D
:102660001773C4F2000344F61772C4F20002127822
:10267000D2B242F03002D2B21A7044F61773C4F2EA
:10268000000344F61772C4F200021278D2B202F0CC
:10269000F0021A7044F61773C4F2000344F617727E
:1026A000C4F200021278D2B242F00F02D2B21A7013
:1026B00042F2107000F0A4F842F2107000F05CF8E2
:1026C0004FF0080000F048F880BD00BF80B400AFB4
:1026D00044F2A333C4F2000344F2A332C4F2000272
:1026E0001278D2B242F00202D2B21A7044F2B3337C
:1026F000C4F2000344F2B332C4F200021278D2B240
:1027000042F00202D2B21A7044F60C73C4F2000313
:1027100044F60C72C4F200021278D2B242F0010206
:10272000D2B21A70BD4680BC704700BF80B500AF02
:1027300048F21873C1F6FF731B78002B08D1FFF71E
:1027400057FF48F21873C1F6FF734FF001021A7079
:10275000FFF7BCFF80BD00BF80B483B000AF03466D
:10276000FB7144F60F73C4F20003FA791A7007F193
:102770000C07BD4680BC704780B582B000AF0346F1
:10278000FB8044F2A333C4F200031B78DBB203F0F6
:102790000203002B0ED044F2A333C4F200031B78D3
:1027A000DBB203F00203002B14BF00230123184601
:1027B000FFF782FA44F2A333C4F2000344F2A332D7
:1027C000C4F200021278D2B242F00202D2B21A70FF
:1027D00044F61273C4F20003FA881A8044F2A33359
:1027E000C4F2000344F2A332C4F200021278D2B25F
:1027F00002F0FD021A7007F10807BD4680BD00BF58
:1028000080B483B000AF0346FB8044F61073C4F27B
:102810000003FA881A8007F10C07BD4680BC704798
:1028200080B500AF00F048F842F64500C0F2000065
:1028300000F00EF84FF0070000F01EF800F030F83E
:1028400080BD00BF80B400AFBD4680BC704700BFF4
:1028500080B485B000AF78604EF60853CEF2000326
:102860001B68FB60FB6803F184037A681A6007F158
:102870001407BD4680BC704780B483B000AF0346E8
:10288000FB714EF21143CEF20003FA794FEA421285
:10289000D2B21A7007F10C07BD4680BC704700BF6A
:1028A00080B400AF4EF20013CEF200034FF40032BA
:1028B0001A60BD4680BC704780B400AF4EF28013F2
:1028C000CEF200034FF400321A60BD4680BC704760
:1028D00080B485B000AF4FF000037B604FF0000381
:1028E0003B6036E03B684FEA830303F190431B688B
:1028F000BB60BB68FB73BB6823F0FF03BB6018E0E1
:102900007B684FEA430303F1904303F168031B78AC
:102910001A46BB6813441A467B684FEA430303F127
:10292000904303F168035B7813707B6803F1010344
:102930007B60FB7B002B0CBF00230123DBB2FA7B07
:1029400002F1FF32FA73002BDAD13B6803F1010385
:102950003B603B68192BC5D907F11407BD4680BC05
:10296000704700BF80B584B000AF07F10803FB607B
:1029700044F28000C4F2000040F20C01C0F21801E1
:1029800000F012FA44F28400C4F2000040F21D018B
:10299000C0F2190100F008FA44F28800C4F2000005
:1029A00047F22F51C0F2190100F0FEF944F2003352
:1029B000C4F200034FF002021A7044F20003C4F2A2
:1029C00000034FF008021A7044F20023C4F200031F
:1029D0004FF003021A7044F2A163C4F2000340F204
:1029E0000812C4F600121278D2B21A7044F22223EE
:1029F000C4F200034FF008021A8044F22023C4F20C
:102A0000000341F251021A804FF00003FB714FF0B6
:102A10001903BB601AE0FB79DBB24FEA4303DAB279
:102A200044F22523C4F200031B78DBB203F0010358
:102A300042EA0303DBB203F00303FB714FF4F070CF
:102A4000FFF72AF9BB6803F1FF33BB60FB681B6823
:102A5000002B03D0FB79DBB2032BDCD144F204035F
:102A6000C4F200034FF480721A8044F20403C4F2EB
:102A700000034FF007021A7044F20603C4F2000389
:102A80004FF000021A7044F20803C4F200034FF042
:102A900048021A7044F20403C4F200034FF000022B
:102AA0001A7044F20103C4F200034FF002021A70DC
:102AB00044F2A233C4F2000344F2A232C4F2000290
:102AC0001278D2B242F00702D2B21A7007F11007A0
:102AD000BD4680BD80B483B000AF40F2CF13C4F6D2
:102AE00000131B78FB7145F66E03C4F20003FA79FC
:102AF00002F007021A7045F66F03C4F20003FA7978
:102B00004FEA1212D2B21A7045F67603C4F20003ED
:102B10004FF044021A7007F10C07BD4680BC7047A5
:102B200080B586B000AF72B644F2E863C4F2000329
:102B300044F2E862C4F200021278D2B242F0040217
:102B4000D2B21A704FF00003FB7031E0FA781346EE
:102B50004FEA430313444FEA43031A464CF2F80387
:102B6000C0F2000313447B607B681A7859784FEAFF
:102B7000012141EA020299784FEA014141EA020249
:102B8000DB784FEA036343EA02031A467B6819794C
:102B90005B794FEA032343EA01039BB210464FF0EF
:102BA00000011A4600F068FEFB7803F10103FB7098
:102BB000FB78092BCAD94FF00003FB7043E0FA7889
:102BC00013464FEA830313444FEA43031A464CF279
:102BD0003413C0F200031344BB60BB681A78597801
:102BE0004FEA012141EA020299784FEA014141EAA4
:102BF0000202DB784FEA036343EA0203FB60BB682F
:102C00001A7959794FEA012141EA020299794FEA8A
:102C1000014141EA0202DB794FEA036343EA02031E
:102C20003B61BB681A7A5B7A4FEA032343EA0203EB
:102C3000FB82FB8AF86839691A4600F055FDFB787B
:102C400003F10103FB70FB78012BB8D9FFF740FEBD
:102C500045F20303C4F2010345F20302C4F2010288
:102C60001278D2B242F00202D2B21A7045F21303C5
:102C7000C4F2010345F21302C4F201021278D2B287
:102C800042F00202D2B21A7044F2A033C4F200033E
:102C900044F2A032C4F200021278D2B242F04002F2
:102CA000D2B21A7044F2C233C4F2000344F2C23208
:102CB000C4F200021278D2B242F01002D2B21A70FC
:102CC00045F22210C4F2000040F26051C4F6000147
:102CD0004FF0080200F008FD45F23010C4F2000089
:102CE00040F26851C4F600014FF00A0200F0FCFC0B
:102CF00045F24210C4F2000040F27451C4F60001E3
:102D00004FF0080200F0F0FC45F25210C4F200004F
:102D100040F27C51C4F600014FF0080200F0E4FCE0
:102D200045F26010C4F2000040F28451C4F6000184
:102D30004FF00A0200F0D8FC44F22233C4F2000340
:102D400044F22232C4F200021278D2B242F00802F7
:102D5000D2B21A7044F60003C4F200034FF001022D
:102D60001A70FFF7FFFD44F60003C4F200036FF092
:102D70007E021A7040F20403C4F208034FF001020D
:102D80001A70FFF7A7FE44F2B030C4F2000044F21C
:102D9000A031C4F200014FF00E0200F0A5FC07F1D3
:102DA0001807BD4680BD00BF80B483B000AF786017
:102DB00039603B68DAB27B681A707B6803F1010303
:102DC0007B603B684FEA13233B603B68DAB27B6869
:102DD0001A707B6803F101037B603B684FEA1323A1
:102DE0003B603B68DAB27B681A7007F10C07BD469E
:102DF00080BC704781F0004102E000BF83F00043D7
:102E000030B54FEA41044FEA430594EA050F08BF85
:102E100090EA020F1FBF54EA000C55EA020C7FEA49
:102E2000645C7FEA655C00F0E2804FEA5454D4EBC6
:102E30005555B8BF6D420CDD2C4480EA020281EA90
:102E4000030382EA000083EA010180EA020281EAC8
:102E50000303362D88BF30BD11F0004F4FEA01311A
:102E60004FF4801C4CEA113102D0404261EB410129
:102E700013F0004F4FEA03334CEA133302D05242AF
:102E800063EB430394EA050F00F0A780A4F101046B
:102E9000D5F1200E0DDB02FA0EFC22FA05F28018A5
:102EA00041F1000103FA0EF2801843FA05F359418B
:102EB0000EE0A5F120050EF1200E012A03FA0EFC0A
:102EC00028BF4CF0020C43FA05F3C01851EBE37134
:102ED00001F0004507D54FF0000EDCF1000C7EEB51
:102EE00000006EEB0101B1F5801F1BD3B1F5001F8F
:102EF0000CD349085FEA30004FEA3C0C04F10104AE
:102F00004FEA445212F5800F80F09A80BCF1004FD6
:102F100008BF5FEA500C50F1000041EB045141EA58
:102F2000050130BD5FEA4C0C404141EB010111F459
:102F3000801FA4F10104E9D191F0000F04BF014604
:102F40000020B1FA81F308BF2033A3F10B03B3F1E2
:102F500020020CDA0C3208DD02F1140CC2F10C0272
:102F600001FA0CF021FA02F10CE002F11402D8BFD0
:102F7000C2F1200C01FA02F120FA0CFCDCBF41EA9C
:102F80000C019040E41AA2BF01EB0451294330BD6B
:102F90006FEA04041F3C1CDA0C340EDC04F1140448
:102FA000C4F1200220FA04F001FA02F340EA03001F
:102FB00021FA04F345EA030130BDC4F10C04C4F165
:102FC000200220FA02F001FA04F340EA0300294645
:102FD00030BD21FA04F0294630BD94F0000F83F48F
:102FE000801306BF81F480110134013D4EE77FEA72
:102FF000645C18BF7FEA655C29D094EA050F08BFBE
:1030000090EA020F05D054EA000C04BF194610469E
:1030100030BD91EA030F1EBF0021002030BD5FEAE2
:10302000545C05D14000494128BF41F0004130BD0A
:1030300014F580043CBF01F5801130BD01F000455E
:1030400045F0FE4141F470014FF0000030BD7FEAD1
:10305000645C1ABF194610467FEA655C1CBF0B46CC
:10306000024650EA013406BF52EA033591EA030FE3
:1030700041F4002130BD00BF90F0000F04BF0021DB
:10308000704730B54FF4806404F132044FF000050E
:103090004FF0000150E700BF90F0000F04BF002187
:1030A000704730B54FF4806404F1320410F00045ED
:1030B00048BF40424FF000013EE700BF42004FEAE8
:1030C000E2014FEA31014FEA02701FBF12F07F4365
:1030D00093F07F4F81F06051704792F0000F14BF62
:1030E00093F07F4F704730B54FF4607401F00045A6
:1030F00021F0004120E700BF50EA010208BF7047FD
:1031000030B54FF000050AE050EA010208BF7047F1
:1031100030B511F0004502D5404261EB41014FF45A
:10312000806404F132045FEA915C3FF4DCAE4FF05E
:1031300003025FEADC0C18BF03325FEADC0C18BF45
:10314000033202EBDC02C2F1200300FA03FC20FA96
:1031500002F001FA03FE40EA0E0021FA02F11444E3
:10316000C1E600BF70B54FF0FF0C4CF4E06C1CEAF8
:1031700011541DBF1CEA135594EA0C0F95EA0C0F6D
:1031800000F0DEF82C4481EA030621EA4C5123EAE0
:103190004C5350EA013518BF52EA033541F480110F
:1031A00043F4801338D0A0FB02CE4FF00005E1FBC2
:1031B00002E506F00042E0FB03E54FF00006E1FB0C
:1031C00003569CF0000F18BF4EF0010EA4F1FF044F
:1031D000B6F5007F64F5407404D25FEA4E0E6D418F
:1031E00046EB060642EAC62141EA55514FEAC520A0
:1031F00040EA5E504FEACE2EB4F1FD0C88BFBCF51C
:10320000E06F1ED8BEF1004F08BF5FEA500E50F1CC
:10321000000041EB045170BD06F0004646EA010192
:1032200040EA020081EA0301B4EB5C04C2BFD4EBC4
:103230000C0541EA045170BD41F480114FF0000EBD
:10324000013C00F3AB8014F1360FDEBF002001F02B
:10325000004170BDC4F10004203C35DA0C341BDCA5
:1032600004F11404C4F1200500FA05F320FA04F077
:1032700001FA05F240EA020001F0004221F00041AB
:1032800010EBD37021FA04F642EB06015EEA430E1E
:1032900008BF20EAD37070BDC4F10C04C4F120054E
:1032A00000FA04F320FA05F001FA04F240EA020001
:1032B00001F0004110EBD37041F100015EEA430ED2
:1032C00008BF20EAD37070BDC4F1200500FA05F2F2
:1032D0004EEA020E20FA04F301FA05F243EA020371
:1032E00021FA04F001F0004121FA04F220EA020080
:1032F00000EBD3705EEA430E08BF20EAD37070BDC6
:1033000094F0000F0FD101F00046400041EB0101A5
:1033100011F4801F08BF013CF7D041EA060195F087
:10332000000F18BF704703F00046520043EB030341
:1033300013F4801F08BF013DF7D043EA060370472E
:1033400094EA0C0F0CEA135518BF95EA0C0F0CD039
:1033500050EA410618BF52EA4306D1D181EA03017F
:1033600001F000414FF0000070BD50EA410606BF79
:103370001046194652EA430619D094EA0C0F02D1BE
:1033800050EA013613D195EA0C0F05D152EA033603
:103390001CBF104619460AD181EA030101F0004121
:1033A00041F0FE4141F470014FF0000070BD41F06A
:1033B000FE4141F4780170BD70B54FF0FF0C4CF444
:1033C000E06C1CEA11541DBF1CEA135594EA0C0F63
:1033D00095EA0C0F00F0A7F8A4EB050481EA030EB0
:1033E00052EA03354FEA013100F088804FEA033397
:1033F0004FF0805545EA131343EA12634FEA022265
:1034000045EA111545EA10654FEA00260EF0004125
:103410009D4208BF964244F1FD0404F5407402D277
:103420005B084FEA3202B61A65EB03055B084FEA08
:1034300032024FF480104FF4002CB6EB020E75EB05
:10344000030E22BFB61A754640EA0C005B084FEA2D
:103450003202B6EB020E75EB030E22BFB61A7546AA
:1034600040EA5C005B084FEA3202B6EB020E75EBF5
:10347000030E22BFB61A754640EA9C005B084FEA6D
:103480003202B6EB020E75EB030E22BFB61A75467A
:1034900040EADC0055EA060E18D04FEA051545EA69
:1034A00016754FEA06164FEAC30343EA52734FEA12
:1034B000C2025FEA1C1CC0D111F4801F0BD141EA8B
:1034C00000014FF000004FF0004CB6E711F4801FF0
:1034D00004BF01430020B4F1FD0C88BFBCF5E06FD0
:1034E0003FF6AFAEB5EB030C04BFB6EB020C5FEAE0
:1034F000500C50F1000041EB045170BD0EF0004E35
:103500004EEA113114EB5C04C2BFD4EB0C0541EA66
:10351000045170BD41F480114FF0000E013C90E663
:1035200045EA060E8DE60CEA135594EA0C0F08BF27
:1035300095EA0C0F3FF43BAF94EA0C0F0AD150EA26
:1035400001347FF434AF95EA0C0F7FF425AF1046B9
:1035500019462CE795EA0C0F06D152EA03353FF4E1
:10356000FDAE1046194622E750EA410618BF52EA5E
:1035700043067FF4C5AE50EA41047FF40DAF52EA32
:1035800043057FF4EBAE12E74FF0FF3C06E000BFCF
:103590004FF0010C02E000BF4FF0010C4DF804CDDC
:1035A0004FEA410C7FEA6C5C4FEA430C18BF7FEA9C
:1035B0006C5C1BD001B050EA410C0CBF52EA430CCA
:1035C00091EA030F02BF90EA020F0020704710F14A
:1035D000000F91EA030F58BF994208BF90422CBFD9
:1035E000D8176FEAE37040F0010070474FEA410CD2
:1035F0007FEA6C5C02D150EA013C07D14FEA430CF0
:103600007FEA6C5CD6D152EA033CD3D05DF8040B60
:10361000704700BF8446104662468C461946634692
:1036200000E000BF01B5FFF7B7FF002848BF10F169
:10363000000F01BD4DF808EDFFF7F4FF0CBF0120AE
:1036400000205DF808FB00BF4DF808EDFFF7EAFF2A
:1036500034BF012000205DF808FB00BF4DF808EDE5
:10366000FFF7E0FF94BF012000205DF808FB00BFDA
:103670004DF808EDFFF7CEFF94BF012000205DF864
:1036800008FB00BF4DF808EDFFF7C4FF34BF012071
:1036900000205DF808FB00BF4FEA410212F500125E
:1036A00015D211D56FF47873B3EB625212D94FEA89
:1036B000C12343F0004343EA505311F0004F23FA73
:1036C00002F018BF404270474FF00000704750EAC8
:1036D000013005D111F0004008BF6FF00040704785
:1036E0004FF00000704700BF032A2DE9F0070BD808
:1036F0003AB1002311F803C000F803C0013393422C
:10370000F8D1BDE8F007704782180C46034603E085
:1037100014F8011C03F8011C03F003061946A44623
:1037200001330134002EF3D11CF00304634608BFBB
:10373000C1EB020C68D06542C4F1040A0CEB05072A
:1037400033464FEACA0A5CF805604FEAC408551AC6
:1037500008E057F8044F264604FA0AF449EA04043C
:10376000CC5004335C18032D26FA08F9A5F10405A2
:103770000CEB0306EDDC002302E0F15CE1540133C5
:1037800019199142F9D3BCE753F8404C41F8404C29
:1037900053F83C4C41F83C4C53F8384C41F8384C09
:1037A00053F8344C41F8344C53F8304C41F8304C19
:1037B00053F82C4C41F82C4C53F8284C41F8284C29
:1037C00053F8244C41F8244C53F8204C41F8204C39
:1037D00053F81C4C41F81C4C53F8184C41F8184C49
:1037E00053F8144C41F8144C53F8104C41F8104C59
:1037F00053F80C4C41F80C4C53F8084C41F8084C69
:1038000053F8044C41F8044C1C460D4640334031FB
:10381000BCF13F0FACF1400CB6DC21462B46541BEB
:103820000FE051F8105C43F8105C51F80C5C43F861
:103830000C5C51F8085C43F8085C51F8045C43F8F0
:10384000045C0F2C0D469C4601F1100103F110039E
:10385000A4F11004E5DCCCEB0201002303E0EC58FA
:103860004CF8034004335E19032903EB0C04A1F167
:103870000401F4DC7FE700BF032AC9B230B407D8E3
:1038800022B10023C15401339342FBD130BC7047B5
:1038900000EB020C034601E003F8011C03F00304F3
:1038A0001A460133002CF7D14FF00133C2EB0C0460
:1038B00003FB01F31FE042F8403C42F83C3C42F875
:1038C000383C42F8343C42F8303C42F82C3C42F858
:1038D000283C42F8243C42F8203C42F81C3C42F888
:1038E000183C42F8143C42F8103C42F80C3C42F8B8
:1038F000083C42F8043C154640323F2CA4F14004F9
:10390000D9DC2A46C5EB0C0407E042F8103C42F82B
:103910000C3C42F8083C42F8043C154610320F2C8F
:10392000A4F11004F1DC2A46C5EB0C0501E042F8D5
:10393000043C14460432032DA5F10405F7DC01E034
:1039400004F8011B6445FBD3A0E700BF0EB448F2A6
:10395000681330B59CB01FACC1F6FF73054601A9D2
:1039600054F8042B4FF0FF3C18684FF40273ADF885
:1039700010302346059501956FF00045ADF812C053
:10398000069503951B9400F033FA019B00221A70F0
:103990001CB0BDE8304003B0704700BF0CB40B460C
:1039A00010B59CB01EAC01A905934FF4027C54F8ED
:1039B000042B01934FF0FF33ADF8123023461B94D4
:1039C0006FF00044ADF810C00694039400F010FAB4
:1039D000019B00221A701CB0BDE8104002B0704775
:1039E000002070470CB44FF40173F0B59DB022ACC9
:1039F00005460846ADF8103054F8047B0191059156
:103A000000F038F93A46234601A94FF0FF3C1B94D9
:103A1000ADF812C00646284643F6E1150696C0F2F8
:103A2000000502960A95002513950E9501F08CFC71
:103A30001DB0BDE8F04002B0704700BF0EB44FF4B7
:103A4000017370B59DB021ACADF8103054F8045B33
:103A50000590019000F00EF948F268112A46C1F66F
:103A6000FF71234643F6E1154FF0FF3CC0F200051D
:103A7000ADF812C00A9500251B9413950E950646C5
:103A8000086801A90696029601F05EFC1DB0BDE82B
:103A9000704003B0704700BF80EA010212F0030FCC
:103AA0003AD110F0030220F0030021F0030150F896
:103AB00004CB08BF51F8043B0DD082F003024FEA5B
:103AC000C2026FF07F4323FA02F251F8043B4CEA42
:103AD000020C43EA020300BFACF101329C4501BF76
:103AE00022EA0C0212F0803F50F804CB51F8043B5C
:103AF000F2D04FEA0C604FEA1C2C012828BFB0EB33
:103B0000036F08BF1B0AF4D003F0FF034FEA1060F5
:103B1000A0EB0300704700BF10F0030F0AD010F8AD
:103B2000012B11F8013B012A28BF9A42F4D0A2EBE5
:103B3000030070474DF8045D4DF8044D4FF001024D
:103B400042EA022242EA024201F0030C21F00301A0
:103B500050F8044B51F8045BBCF1020F26D04BD84F
:103B600024F07F4CBCEB152FA4EB020323EA0403E3
:103B70000DD113EAC21308BF51F8045B0AD18CEAD5
:103B8000040CBCEB056F0CD150F8044BE8E74FEA8E
:103B900015255CE033F07F4352D10D784FEA146C69
:103BA00055E04FEA146C05F0FF0550E04FEA044C75
:103BB000A4EB02034FEA1C4C23EA0403BCEB154FB1
:103BC00017D113EAC21308BF51F8045B07D18CEA7E
:103BD000040CBCEB054F08D150F8044BE6E71B047E
:103BE0002ED10D884FEA144C31E04FEA05454FEADB
:103BF000144C4FEA15452AE004F0FF0CBCEB156F9E
:103C0000A4EB020323EA04030DD113EAC21308BF95
:103C100051F8045B0AD18CEA040CBCEB052F0AD1E5
:103C200050F8044BE8E74FEA156510E014F0FF0F79
:103C300006D051F8045B4FEA142C25F07F4506E0CE
:103C40004FF000005DF8044B5DF8045B70470CF02A
:103C5000FF0205F0FF00012828BF904204BF4FEA91
:103C60001C2C2D0AF3D0A2EB00005DF8044B5DF88C
:103C7000045B704720F0030110F00300C0F1000066
:103C800051F8043B00F1040C4FEACC0C6FF0000239
:103C90001CBF22FA0CF213434FF0010C4CEA0C2C1F
:103CA0004CEA0C4CA3EB0C0222EA030212EACC12FF
:103CB00004BF51F8043B0430F4D013F0FF0F1FBFD2
:103CC000013013F47F4F013013F47F0F18BF013020
:103CD000704700BF2DE9F04F85B092460C46039027
:103CE00090681768002800F081804FF000090B6889
:103CF0004D46002D54D0A668B542B0463EBF18468A
:103D00002E46A8463CD3A08910F4906F08BF1846F1
:103D100036D06269216902EB420B5B1A03F1010C98
:103D20000BEBDB7BAC444FEA6B0BE3455A463CBFE5
:103D3000E3465A4610F4806F37D01146039801933A
:103D400003F04EFF019B00283BD01A4621690193E6
:103D50000290FFF7C9FCA289019BDDF808C022F49C
:103D6000906242F08002A2812E46A846C3EB0B026D
:103D70000CEB0300A260C4F810C02060C4F814B0BB
:103D80004246494604F082FAA2682368961BA66060
:103D9000DAF8082043442360551BCAF80850FDB1E7
:103DA000D7F800907D680837A3E70398019304F0E3
:103DB00079FF019B84460028D6D10398216903F03E
:103DC00087FD039A0C234FF0FF3013600023A28974
:103DD000CAF8043042F04002CAF80830A28102E07A
:103DE0002846CAF8045005B0BDE8F08F5060FAE7E5
:103DF0002DE9F04FC5B00E469A461546099003F0DE
:103E0000ABFEB38913F0800F00681B9003D03369B9
:103E1000002B01F08C800DF17409B3464C46002252
:103E200010920023189217921A920D922DAA1993AC
:103E300028320DF1F703169207930023CDF8DC909A
:103E4000389339932B78B3F1250218BF0122002B48
:103E50000CBF002202F0010202B32E4616F8013F09
:103E60001A1E18BF0122252B0CBF002202F00102EE
:103E7000002AF3D1771B08BF35460FD06760389B07
:103E8000399A01332560D219072B3992389379DC9E
:103E900008340D983546C0190D903378002B00F08A
:103EA000378700214FF00002CDF828A06B1C0C9141
:103EB0004FF0FF388DF80F218A466A782B204FF09B
:103EC000200C5D1CA2F12003582B00F21982DFE8C0
:103ED00013F0290217021702350217021702170200
:103EE0001702170217023C0248021702C802CF024B
:103EF0001702EF02F602F602F602F602F602F602E8
:103F0000F602F602F602170217021702170217024C
:103F1000170217021702170217024F028802170230
:103F200088021702170217021702C10217021702AE
:103F3000EE03170217021702170217029303170264
:103F40001702AD0317021702170217021702170212
:103F50001702170217021702C703D8038802880244
:103F600088020B03D803170217020F031702190365
:103F700029033E038C031702590317028403170217
:103F80001702EA000998594637AAFFF7A3FE00284E
:103F90007CD14C467DE71899012940F35284119A4F
:103FA00001236360389B2260399A013338930132D0
:103FB000072B399200F39685083401236360389B00
:103FC000399A01331B980132072B399220603893BC
:103FD00000F37D8508341098002200231999FFF71B
:103FE00029FB002840F003851899119B4A1E626046
:103FF000591C389B21603999013338938A18072B53
:10400000399200F32F8408341A9A1A9862603EAAF3
:10401000389B2260399A013338931218072B399252
:1040200000F34F8104F108031AF0040F00F05681E9
:104030000C990B9A8E1A002E40F35081102E4CF2E0
:104040004817D8BFC0F2000740F3DE831024C0F247
:1040500000070DF1DC08DDF824A003E0103E102E6F
:1040600040F3D2835C60389A399901321F60103175
:10407000072A399103F108033892EFDD504659467B
:104080004246FFF727FE4B460028E7D05E46B3893D
:104090000D9813F0400F18BF4FF0FF300D900D98A2
:1040A00045B0BDE8F08F1AF0200F4CF28C10C0F232
:1040B00000001492179000F0C3820A99CB1D23F0E0
:1040C000070303F108020A92D3E9006756EA0701E1
:1040D0000CBF002201221AEA020F40F0BC84022326
:1040E0004FF000018DF80F11B8F1000FA8BF2AF0B2
:1040F000800AB8F1000F18BF42F00102002A00F058
:104100006081012B00F03484022B00F01784169993
:10411000CDF82C8011914FEAD6084FEAD70C48EA27
:10412000477806F0070067464646303056EA0702F1
:1041300001F8010DEFD11AF0010FDDF82C8011917B
:1041400040F0DB84169B5B1A0E930E9BCDF85480D7
:104150004345B8BF43460B939DF80F3113B10B99FC
:1041600001310B911AF00202139202D00B9B023321
:104170000B931AF08400129038D10C990B9A8E1A76
:10418000002E33DD102E4CF24817D8BFC0F20007C6
:1041900020DD4FF01008C0F2000702E0103E102EA4
:1041A00018DDC4F80480389B399A01332760103237
:1041B000072B399204F108043893EFDD099859462A
:1041C00037AA4C46FFF786FD00287FF45FAF103E0C
:1041D000102EE6DC6660389B27605A1C399B3892AB
:1041E0009B19072A399300F3F78308349DF80F31A0
:1041F00073B101236360389B43AA03322260399A6A
:10420000013338930132072B399200F3408308348D
:10421000139B6BB102236360389B43AA2260399AD7
:10422000013338930232072B399200F33A83083472
:104230001298802800F0B28215980E9BC61A002EA4
:104240002EDD102EA74FC8BF4FF0100803DC1BE077
:10425000103E102E18DDC4F80480389B399A0133C3
:1042600027601032072B399204F108043893EFDDF0
:104270000998594637AA4C46FFF72CFD00287FF4D1
:1042800005AF103E102EE6DC6660389B27605A1C96
:10429000399B38929B19072A399300F3EE82083430
:1042A0001AF4807F40F019820E99119A6160389B50
:1042B0002260399A013338935218072B39927FF7CD
:1042C000B1AE0998594637AAFFF704FD00287FF4DC
:1042D000DDAE1AF0040F4B467FF4AAAE399B0D9861
:1042E0000B9A0C998A42ACBF801840180D90002B95
:1042F00040F09E820023DDF828A038934C46A1E5CB
:104300001492002A00F0048501208DF8B4204FF0AB
:1043100000012DAA0B908DF80F1111920E90002123
:1043200015911FE79DF80F31002B40F00C840A997E
:104330002B468DF80FC12A780A91C2E50A994AF0F6
:10434000010A2A782B460A91BBE50A9B0A9A1B6848
:10435000111D002B0C93C0F2B2852A782B460A91CE
:10436000AFE50A992B468DF80F012A780A91A8E546
:104370004AF0100A14921AF0200F00F087810A9870
:10438000C31D23F0070303F108010A91D3E9006775
:10439000002E77F10000C0F2768356EA07014FF055
:1043A00001030CBF00220122B8F1000FA8BF2AF0C0
:1043B000800AB8F1000F18BF42F00102002A7FF412
:1043C000A0AE002B40F0E5811AF0010F00F0E18172
:1043D00030238DF8DB302DAB012027330E90119365
:1043E000B3E61AF0080F149200F0BF830A98C31DB9
:1043F00023F0070303F108010A915E681F6819960C
:1044000010973846314604F027FE0346002800F096
:1044100093843846002200233146FFF715F900281F
:1044200040F015849DF80F3103204CF280124CF2BD
:104430007C110B901498C0F20001C0F200022AF027
:10444000800A4728D8BF0A460321119200220E9104
:10445000159283E60A994AF0080A2A782B460A91AF
:104460002FE50A992A784AF0040A2B460A9128E592
:104470002B4613F8012B2A2A00F0CF86A2F1300137
:10448000092988BF4FF0000810D802354FF0000806
:1044900015F8012C08EB88082B46013501EB48087C
:1044A000A2F130010929F3D948EAE8781D4609E567
:1044B0000A994AF0800A2A782B460A9101E5A2F16E
:1044C000300100262B4606EB860613F8012B01EB84
:1044D0004606A2F130011D460929F3D90C961D4666
:1044E000F0E400BF58C100004AF0400A0A9934E7DE
:1044F0002A786C2A00F018840A994AF0100A2B4690
:104500000A91DEE41AF0200F00F023830A990D9A35
:104510000B6810464FEAE0710A9AC3E9000102F104
:10452000040A8FE41AF02003149200F0C7800A9B5B
:10453000DA1D002322F0070202F108000A90D2E9F6
:10454000006756EA07010CBF00220122C8E50A9A5B
:104550004CF28C100A997823C0F20000149316686C
:1045600004318DF80D314AF0020A3023321E18BF93
:1045700001228DF80C3136464FF0000717900223C8
:104580000A91ADE50A9B14924FF00002181D8DF8B8
:104590000F211B680A901193002B00F04D85B8F194
:1045A000000F1198C0F22A850021424603F034FE24
:1045B0000346002800F06E8511981B1A0E934345A0
:1045C00040F38284CDF83880002128EAE8789DF80D
:1045D0000F31CDF82C801591C0E51AF0200F149200
:1045E00010D00A9BDA1D0123A4E70A994AF0200A99
:1045F0002A782B460A9164E44AF0100A14921AF0C1
:10460000200FEED11AF0100F40F054821AF0400F34
:1046100000F050820A980123011D0A910688321E7B
:1046200018BF012236464FF0000759E51AF0200F57
:1046300014924CF26812C0F2000217927FF43DAD62
:104640001AF0100F40F02D821AF0400F00F029826E
:104650000A990A1D0A920E8836464FF0000735E582
:10466000149201200A9A4FF000010B900E901368EB
:1046700004328DF80F110A922DAA8DF8B4301192E0
:104680004DE61AF0200F14927FF479AE1AF0100F55
:1046900040F0ED811AF0400F00F0E9810A98011D09
:1046A0000A91B0F9006036464FEAE67770E64AF0C4
:1046B000100A14921AF020037FF439AF1AF0100296
:1046C00000F05F820A9A101D0A901668321E18BF09
:1046D000012236464FF0000702E5149B652B7FF759
:1046E0005AAC1098002200231999FEF7A3FF002866
:1046F00000F0E18001236360389A4CF2A813C0F205
:1047000000032360399B013238920133072A399321
:10471000D8BF04F1080300F39F82429A189882429E
:1047200003DB1AF0010F3FF47FAC1B9901225A60A2
:10473000389A19603999013238920131072A399132
:1047400000F3EB830833189A561E002E7FF76CACEB
:10475000102EA04F40F3E98110240DF1DC0803E096
:10476000103E102E40F3E1815C60389A3999013295
:104770001F601031072A399103F108033892EFDDE9
:10478000099859464246FFF7A5FA4B460028E7D05C
:104790007CE4169900220E921191D6E40C990B9AA2
:1047A0008E1A002E7FF748AD102E8A4FC8BF4FF0EB
:1047B000100803DC1BE0103E102E18DDC4F8048046
:1047C000389B399A013327601032072B399204F154
:1047D00008043893EFDD0998594637AA4C46FFF78D
:1047E00079FA00287FF452AC103E102EE6DC6660A9
:1047F000389B27605A1C399B38929B19072A39939A
:1048000000F38881083417E55E60389A1F60399B91
:1048100001323892F318072A39937FF760AD09986F
:10482000594637AAFFF756FA00283FF457AD2DE452
:104830000998594637AAFFF74DFA00283FF45AADB8
:1048400024E41AF0010F7FF4AAAB01236360389BC4
:10485000399A013311990132072B3992216038932B
:104860007FF7D1AB0998594637AAFFF733FA0028EA
:104870007FF40CAC4C46FFF7C7BB0998594637AAE2
:10488000FFF728FA00287FF401AC4C4608E50998A8
:10489000594637AAFFF71EFA00287FF4F7AB4C46BB
:1048A000B6E40998594637AAFFF714FA00287FF4AE
:1048B000EDAB4C46BCE4429B002B40F3D9811899E8
:1048C0008B42C0F26F81119A6160389B2260399AE5
:1048D000013338935218072B3992D8BF04F10803DB
:1048E00000F3BA83429C1898241A002C40F39B8151
:1048F000102C384F40F38B81CDF838A01026AA46F3
:104900000DF1DC08099D03E0103C102C40F37C8184
:104910005E60389A399901321F601031072A399147
:1049200003F108033892EFDD284659464246FFF767
:10493000D1F94B460028E7D0FFF7A8BB1698DDF861
:104940005CC003461190310906F00F0241EA07717D
:1049500038091CF802200E46074656EA070103F8FC
:10496000012DF0D1169A1193D21A0E92FFF7EDBBDA
:1049700000230922B24273EB0700169B3EBFCDF81D
:104980002C80A0461C461AD2304639460A22002303
:1049900006F02AFE30463946002302F1300C0A2286
:1049A00004F801CD06F020FE06460F46092000213E
:1049B000B042B941E8D323464446DDF82C805A1E64
:1049C0003036119203F8016C169B9B1A0E93FFF779
:1049D000BCBB00BF58C100000998594637AAFFF771
:1049E00079F900287FF452AB4C46FFF7FFBB1898CB
:1049F000461E002E7FF708AB102E9C4FC8BF4FF00D
:104A0000100803DC1BE0103E102E18DDC4F80480F3
:104A1000389B399A013327601032072B399204F101
:104A200008043893EFDD0998594637AA4C46FFF73A
:104A300051F900287FF42AAB103E102EE6DC6660A8
:104A4000389B399A013327609219072B3992389392
:104A50007FF7D9AA06E7149830214AF0020A01220A
:104A600002238DF80C118DF80D01FFF739BB0A9A5E
:104A7000131D16680A9336464FEAE677002E77F143
:104A80000000BFF68AAC764267EB47072D2356EA53
:104A900007028DF80F310CBF002201220123FFF71E
:104AA00023BB0A9B181D1E680A9036464FF000076C
:104AB000FFF70CBB0A9A131D16680A930123321ED6
:104AC00018BF012236464FF00007FFF709BB0998CF
:104AD000594637AAFFF7FEF800287FF4D7AA4C46BC
:104AE000FFF779BA0998594637AAFFF7F3F8002873
:104AF0007FF4CCAA4C46FFF760BA302800F09682CB
:104B0000119A302302F8013D169B11929B1A0E93C5
:104B1000FFF71BBB0998594637AAFFF7DBF80028B7
:104B20007FF4B4AA4C46FFF787BB5E60389A399988
:104B300001321F608919072A399138923FF7C1ABBA
:104B40000833FFF771BA0A992B462A780A91FFF7C2
:104B5000B8B91AF0100F00F0CD810A980D9900F144
:104B6000040A03681960FFF76DB90A9AD31D23F090
:104B7000070303F108000A905E681F6819961097F2
:104B80003FE41AF0400300F0A9810A9913460A1D78
:104B90000A920E88321E18BF012236464FF00007D7
:104BA000FFF79EBA119A636038992260399A0131F1
:104BB0003891D3180729399300F36282083401230E
:104BC000429E6360389B399A01331B980132072B50
:104BD0003893D8BF04F108032060399200F346826D
:104BE000429A119918988E191E60811A5960399944
:104BF0008A1A3899121839920131389107293FF7EA
:104C000060AB0833FFF710BA5546DDF838A05C609A
:104C1000389A399901321F600919072A3991389257
:104C200000F37F8208331AF0010F3FF4FDA91B99AE
:104C300001225A60389A196039990132389201314B
:104C4000072A39913FF73DAB0833FFF7EDB92D2324
:104C50008DF80F31FFF7E8BB0998594637AAFFF7DF
:104C600039F800287FF412AA4B4656E558C10000D7
:104C700001236360389A4CF2A813C0F2000323604A
:104C8000399B013238920133072A3993D8BF04F196
:104C9000080300F37381429A2AB9189818B91AF0D8
:104CA000010F3FF4C1A91B9901225A60389A19607B
:104CB0003999013238920131072A399100F368811C
:104CC0000833429C6442002C40F38781102C9E4F95
:104CD00040F3A08110260DF1DC0803E0103C102CFD
:104CE00040F398815E60389A399901321F60103123
:104CF000072A399103F108033892EFDD09985946E4
:104D00004246FEF7E7FF4B460028E7D0FFF7BEB963
:104D1000399B5E46002B3FF4BAA90998594637AA39
:104D2000FEF7D8FFFFF7B3B90A994AF0200A6A786C
:104D30006B1C0A91FFF7C5B838463146089304F05A
:104D40009DF9089B002840F00181B8F1FF3F08BFA2
:104D500008F107080ED0149A672A14BF0023012314
:104D6000472A08BF43F0010323B1B8F1000F08BF81
:104D70004FF0010833463A46CDE93A234AF4807AA7
:104D80003B9B002BC0F20A820023159314996629DD
:104D900014BF00230123462908BF43F001031293E7
:104DA000002B00F08A810323CDF82C800B990E97FD
:104DB0000F9600930998DDE90E23019142A9029113
:104DC00041A9039140A9049101F042FC149AB2F167
:104DD000670318BF0123472A0CBF002303F0010318
:104DE00011902BB91AF0010F08BFDDF800C11AD0DD
:104DF000119B0B98129903EB000C29B11B78302BF7
:104E000000F0D080429B9C4438460022002331466B
:104E1000CDF820C0FEF70EFCDDF820C0002800F021
:104E20007381CDF800C114981199672814BF00232D
:104E30000123472808BF43F00103C1EB0C0118917F
:104E4000002B00F04A81429A12F1030F0E9202DB0E
:104E5000904580F24B81149B023B14930E9A149858
:104E6000531E4293002B8DF8F800C0F2D1812B2203
:104E70008DF8F920092B00F362813FA930338DF8BA
:104E8000FB3030238DF8FA303EAB189ACB1A1899C4
:104E90001A935918012A0E9140F3CC810E980130D3
:104EA0000E9020EAE0710B91159B002B00F0FD8025
:104EB0002D2300208DF80F311590FFF750B90C9B72
:104EC0005B420C93FFF7CEBA0E9A00209DF80F318B
:104ED00022EAE27215900B92FFF740B90A98011D81
:104EE0000A910668321E18BF012236464FF00007AD
:104EF000FFF7F6B81AF0400F17BF0A9A0A990D98F3
:104F000002F1040A11BF136801F1040A0B680D9A3B
:104F100014BF18801A60FEF795BF0998594637AA42
:104F2000FEF7D8FE00287FF4B1A84B460BE40998A1
:104F3000402102F055FE30603061002800F08D8184
:104F400040237361FEF767BF58C1000003204CF295
:104F500088124CF284110B901498C0F20001C0F238
:104F6000000215934728D8BF0A462AF0800A032179
:104F700011929DF80F310E91FFF7F0B8099859463C
:104F800037AAFEF7A7FE00287FF480A84B4682E6EA
:104F90000998594637AAFEF79DFE00287FF476A8A7
:104FA0004B468EE63846002200233146CDF820C01D
:104FB000FEF740FBDDF820C000287FF423AF0B9AFA
:104FC000C2F1010342931EE70998594637AAFEF73A
:104FD00081FE00287FF45AA84B46189A11985A600F
:104FE000389A399918600132189838920918072AA6
:104FF00039913FF766A90833FFF716B800211591DC
:10500000FEF738FE9DF80F3120EAE0720E900B9209
:10501000FFF7A4B85C60389A1F60511C399A389128
:10502000121907293992CFDC0833D6E7169911985F
:10503000081A0E90FFF789B8B8F1060F34BF414641
:1050400006214CF2A012C0F2000221EAE1730E9197
:1050500011920B93FFF763B90998594637AAFEF7E7
:1050600039FE00287FF412A84B463BE409985946C4
:1050700037AAFEF72FFE00287FF408A84B46AFE5BD
:105080000998594637AAFEF725FE00287EF4FEAFA0
:105090004C4694E5CDF8388028EAE8781590CDF8AC
:1050A0002C809DF80F31FFF759B80E989DF80F31FD
:1050B00020EAE0700B90FFF751B8149A652A14BFEC
:1050C00000230123452A08BF43F00103002B32D0FF
:1050D00008F101030B93022368E61498652862DD4A
:1050E000149A662A1CBF429B0E936FD0189A0E9B8F
:1050F0009A425BDC1AF0010F40F0818023EAE370F2
:1051000067210B901491CFE6409B9C4598BF9C462D
:105110007FF689AE302203F8012B9C454093FAD8E4
:1051200081E60998594637AAFEF7D4FD00287EF497
:10513000ADAF4B4677E5CDF82C80023336E646F22C
:10514000676C0DF1F700C6F2666C8CFB0321DA1771
:10515000C2EBA10202EB8201A3EB41011346303105
:10516000092A00F8011DF0DC3033421ED9B200F8E4
:10517000011C079B934298BF0DF1FA017FF684AEA4
:1051800002460DF1FB0301E012F8011B03F8011CBC
:105190001946079801339042F6D875E62D2006F19E
:1051A00000461590F2E542990E9157E60E9918982F
:1051B0000029DABF0E9AC2F1020301231B186721EE
:1051C00023EAE3720E9314910B926DE64298002845
:1051D0000E9038DDB8F1000F07D11AF0010F04BFAF
:1051E00020EAE0710B913FF45FAE0E9A66201490B6
:1051F000531C43440E9323EAE3710B9154E60E9A39
:105200006723149301320E9222EAE2700B904BE670
:105210002D225B428DF8F9202CE60A991A78D1F8F4
:10522000008004310A91B8F1000FB8BF4FF0FF3889
:10523000FEF747BE1AF0010F04BF21EAE1730B939A
:105240003FF432AE2AE6B8F1000F0ED11AF0010F8A
:105250000BD101220B920E9226E609980C234FF0F7
:10526000FF310D910360FEF71ABF08F102036620BB
:1052700023EAE3710E9314900B9115E610B50C46DA
:10528000496B69B104F14403994201D002F020FB5B
:10529000236C00206063636013B1E36B236010BD77
:1052A00022690021A3894FF0FF30616043F02003A1
:1052B0002260A38110BD00BFB1F1FF3F30B583B0C4
:1052C00014D0B2F80CC0CCB2536B2CF020019181F9
:1052D0007BB15168936B99422CDA13682146581EB2
:1052E000106003F8014C536801335360084603B063
:1052F00030BD1369E3B11068834204D210F8011C79
:10530000431EA1420FD055681346D063214602F1D7
:10531000440003F8464F5063032015649063012056
:1053200013605060E2E750681360431C5360DDE790
:105330001068E8E71146019201F01CF8019A002874
:10534000CBD04FF0FF31D1E72DE9F04FADF52F7DF8
:105350000C4617468046099302F082F9A38948F269
:105360005C2113F4005FC1F6FF7102BF43F40053E8
:10537000A381626E0D9104BF22F400536366002086
:1053800067AA054603320A900C900B9003923A7874
:10539000AD923AB348F264160137C1F6FF7633682E
:1053A000991891F8019019F0080923D063680DE06D
:1053B000236831685A1C1B785B185B7813F0080F60
:1053C000E5D0636801352260013B6360002BEFDCB0
:1053D00040462146FFF752FF0028E9D03A78AD92C7
:1053E000002AD7D10C9D02F03DF928460DF52F7DFE
:1053F000BDE8F08F252A10D06368002B40F30A81A6
:10540000236817F8012C19789142EBD162680133B7
:1054100001352360531E6360B9E73A78CB460A2111
:105420000137782A00F2C4830FF2040C5CF822F0F2
:10543000D55B0000B15B0000B15B0000B15B000018
:10544000B15B0000B15B0000B15B0000B15B00002C
:10545000B15B0000B15B0000B15B0000B15B00001C
:10546000B15B0000B15B0000B15B0000B15B00000C
:10547000B15B0000B15B0000B15B0000B15B0000FC
:10548000B15B0000B15B0000B15B0000B15B0000EC
:10549000B15B0000B15B0000B15B0000B15B0000DC
:1054A000B15B0000B15B0000B15B0000B15B0000CC
:1054B000B15B0000B15B0000B15B0000B15B0000BC
:1054C000B15B0000F9530000B15B0000B15B00006C
:1054D000B15B0000B15B0000DF5B0000B15B00006E
:1054E000B15B0000B15B0000B15B0000B15B00008C
:1054F000E75B0000E75B0000E75B0000E75B0000A4
:10550000E75B0000E75B0000E75B0000E75B000093
:10551000E75B0000E75B0000B15B0000B15B0000EF
:10552000B15B0000B15B0000B15B0000B15B00004B
:10553000B15B0000B15B0000B15B0000B15B00003B
:105540003B560000F55B0000B15B0000F55B00001E
:10555000B15B0000B15B0000B15B0000B15B00001B
:10556000FD5B0000B15B0000B15B0000055C00006A
:10557000B15B0000B15B0000B15B0000B15B0000FB
:10558000B15B0000B15B0000B15B0000B15B0000EB
:105590001F5C0000B15B0000B15B00003D5C0000DF
:1055A000B15B0000B15B0000B15B0000B15B0000CB
:1055B000B15B0000B15B0000B15B0000535C000018
:1055C0003F560000F55B0000F55B0000F55B000056
:1055D000155B00001D5B0000B15B0000B15B0000CB
:1055E000335B0000B15B0000475B0000635B0000C1
:1055F000795B0000B15B0000B15B0000935B0000D1
:10560000B15B00009B5B0000B15B0000B15B000080
:105610001F5C000040462146FFF730FE00283FF4A3
:10562000EFAE0C9D02F01EF825B1A38913F0400FD8
:105630003FF4DBAE4FF0FF35D7E649F00109DA461B
:105640004AF2E112C0F200020A234FF0030C0B925F
:105650000A93CDF820C06368002B40F34A8219F00A
:10566000400F08BF236812D0089A531E032B00F284
:10567000D780DFE813F0AA0194001D0036014046F0
:105680002146FFF7FBFD0028CBD1236801351978AF
:10569000013332688A18527812F0080FE4D0626839
:1056A000013A6260002AC8BF2360E8DD0135EEE7F9
:1056B0000BF1FF3349F4586CB3F5AE7F4CF2AC13E9
:1056C00088BFABF5AE7B0DF14C09C0F200030E971D
:1056D0000A9F92BF4FF0000B40F25D1A0BF1FF3BA7
:1056E0002A4600264D46089699466646D4F800C0DC
:1056F0009CF80000A0F12B014D2900F2A781DFE802
:1057000011F0C701A501C701A501A501D201CD0175
:10571000CD01CD01CD01CD01CD01CD01F101F101D1
:10572000A501A501A501A501A501A501A501EC0102
:10573000EC01EC01EC01EC01EC01A501A501A501D6
:10574000A501A501A501A501A501A501A501A50129
:10575000A501A501A501A501A501A5018C01A50132
:10576000A501A501A501A501A501A501A501EC01C2
:10577000EC01EC01EC01EC01EC01A501A501A50196
:10578000A501A501A501A501A501A501A501A501E9
:10579000A501A501A501A501A501A5018C01BBF1EC
:1057A000000F14BFDA464FF0FF3A19F0010300F082
:1057B000ED8319F01000089018BF0DF52D7B04D172
:1057C0000999D1F800B0043109913B464FF0000926
:1057D0002F465D469B460E960E9B226819681378ED
:1057E0005918497881F00801C1F3C001BAF1000FDE
:1057F0000CBF002101F00101002940F046845B4606
:10580000AB463D461F46089E002E7FF4C0ADCBF848
:105810000060DDF830C00CF1010CCDF830C0B6E509
:10582000BBF1000F14BFDA464FF0010A19F0010670
:1058300000F05A8319F01000089018BF4FF00009CB
:1058400004D10999D1F80090043109912B46CDF883
:105850003C90C146DDF83480554600260DF14C0BD6
:105860009A460E97D8F800309E423FF4DAAE23688D
:105870000021D4F804E00822ABA8ABAF13F801CBA9
:105880000EF1FF3EC4F804E00BF806C001362360B9
:10589000FDF7F2FF48460F995A463346009702F04B
:1058A00071FCB0F1FF3F3FF4BCAE002840F0B9837B
:1058B000089808B90F990860089AB244013D002A77
:1058C00000F0B98300266368002B40F35083002D5D
:1058D000C8D10E9F5546C846089E002E7FF457AD8E
:1058E00097E70BF1FF33B3F5AE7F00F2F7820022AA
:1058F0004FF0000B41461197904649F4F06913AE02
:105900005B465F460A46CDF820B0CDF840B0CDF8F2
:1059100038B0CDF83CB0D4F800E09EF80000A0F11B
:105920002B014E2900F2D681DFE811F05D02D4018F
:105930005D025502D4014502BE01BE01BE01BE0199
:10594000BE01BE01BE01BE01BE01D401D401D4011D
:10595000D401D401D401D401D302D401D401D4019F
:10596000BA02B302D401D4019602D401D401D40105
:10597000D4016B02D401D401D401D401D401640256
:10598000D401D401D401D4018F02D401D401D401B3
:10599000D401D401D401D401D302D401D401D4015F
:1059A000BA02B302D401D4019602D401D401D401C5
:1059B000D4016B02D401D401D401D401D401640216
:1059C000D401D401D401D4018F02BBF1000F14BF64
:1059D000DA464FF0FF3A19F0100F00F040812368CB
:1059E00000261A780DF5D67C01331CF80220002A17
:1059F00000F0B883626801362360013AB245626004
:105A000000F0B282002AECDC40462146FFF736FC6B
:105A1000002840F0A9822368E3E706F4C061B1F5ED
:105A2000007F13D126F40076102746F4A06605F80F
:105A3000010B6168013961600029C4BF0CF10101EB
:105A400021605EDDBAF1010A7FF450AE16F4807F6A
:105A5000A9460A97B44615460E9F0FD00DF14C0A81
:105A6000CA4508D219F8011D404622460796FFF79D
:105A700023FCDDF81CC0CA453FF4B4AC1CF0100296
:105A800000F0548313AB0898ED1A2D184D447EE4B2
:105A900016F0800FDAD026F08006C8E739F91770C3
:105AA00026F43866C3E716F4006FC0D017B946F481
:105AB0000076083716F4806F18BF26F4B066B6D1AA
:105AC000BBF1000F03D00BF1FF3B0AF1010A08986C
:105AD00026F4607601300890ABE70A2FB6DD26F495
